{
  "_format": "hh-sol-artifact-1",
  "contractName": "NFTMarket",
  "sourceName": "contracts/NFTMarket.sol",
  "abi": [
    {
      "inputs": [],
      "stateMutability": "nonpayable",
      "type": "constructor"
    },
    {
      "anonymous": false,
      "inputs": [
        {
          "indexed": true,
          "internalType": "uint256",
          "name": "itemId",
          "type": "uint256"
        },
        {
          "indexed": true,
          "internalType": "address",
          "name": "nftContract",
          "type": "address"
        },
        {
          "indexed": true,
          "internalType": "uint256",
          "name": "tokenId",
          "type": "uint256"
        },
        {
          "indexed": false,
          "internalType": "address",
          "name": "seller",
          "type": "address"
        },
        {
          "indexed": false,
          "internalType": "address",
          "name": "owner",
          "type": "address"
        },
        {
          "indexed": false,
          "internalType": "uint256",
          "name": "price",
          "type": "uint256"
        },
        {
          "indexed": false,
          "internalType": "bool",
          "name": "sold",
          "type": "bool"
        }
      ],
      "name": "MarketItemCreated",
      "type": "event"
    },
    {
      "inputs": [
        {
          "internalType": "address",
          "name": "nftContract",
          "type": "address"
        },
        {
          "internalType": "uint256",
          "name": "tokenId",
          "type": "uint256"
        },
        {
          "internalType": "uint256",
          "name": "price",
          "type": "uint256"
        }
      ],
      "name": "createMarketItem",
      "outputs": [],
      "stateMutability": "payable",
      "type": "function"
    },
    {
      "inputs": [
        {
          "internalType": "address",
          "name": "nftContract",
          "type": "address"
        },
        {
          "internalType": "uint256",
          "name": "itemId",
          "type": "uint256"
        }
      ],
      "name": "createMarketSale",
      "outputs": [],
      "stateMutability": "payable",
      "type": "function"
    },
    {
      "inputs": [],
      "name": "fetchMarketItems",
      "outputs": [
        {
          "components": [
            {
              "internalType": "uint256",
              "name": "itemId",
              "type": "uint256"
            },
            {
              "internalType": "address",
              "name": "nftContract",
              "type": "address"
            },
            {
              "internalType": "uint256",
              "name": "tokenId",
              "type": "uint256"
            },
            {
              "internalType": "address payable",
              "name": "seller",
              "type": "address"
            },
            {
              "internalType": "address payable",
              "name": "owner",
              "type": "address"
            },
            {
              "internalType": "uint256",
              "name": "price",
              "type": "uint256"
            },
            {
              "internalType": "bool",
              "name": "sold",
              "type": "bool"
            }
          ],
          "internalType": "struct NFTMarket.MarketItem[]",
          "name": "",
          "type": "tuple[]"
        }
      ],
      "stateMutability": "view",
      "type": "function"
    },
    {
      "inputs": [],
      "name": "getListingPrice",
      "outputs": [
        {
          "internalType": "uint256",
          "name": "",
          "type": "uint256"
        }
      ],
      "stateMutability": "view",
      "type": "function"
    },
    {
      "inputs": [
        {
          "internalType": "uint256",
          "name": "_listingPrice",
          "type": "uint256"
        }
      ],
      "name": "setListingPrice",
      "outputs": [],
      "stateMutability": "nonpayable",
      "type": "function"
    },
    {
      "inputs": [
        {
          "internalType": "address",
          "name": "_nftAddress",
          "type": "address"
        }
      ],
      "name": "setNftAddress",
      "outputs": [],
      "stateMutability": "nonpayable",
      "type": "function"
    }
  ],
  "bytecode": "0x60806040526658d15e1762800060055534801561001b57600080fd5b50600160008190555033600360006101000a81548173ffffffffffffffffffffffffffffffffffffffff021916908373ffffffffffffffffffffffffffffffffffffffff160217905550611373806100746000396000f3fe6080604052600436106100555760003560e01c80630b102d1a1461005a5780630f08efe01461008357806312e85585146100ae57806358eb2df5146100d95780637c726b69146100f5578063c23b139e1461011e575b600080fd5b34801561006657600080fd5b50610081600480360381019061007c9190610c25565b61013a565b005b34801561008f57600080fd5b506100986101d8565b6040516100a59190610f86565b60405180910390f35b3480156100ba57600080fd5b506100c3610504565b6040516100d09190611028565b60405180910390f35b6100f360048036038101906100ee9190610c8a565b61050e565b005b34801561010157600080fd5b5061011c60048036038101906101179190610cd9565b610893565b005b61013860048036038101906101339190610c4e565b61089d565b005b600360009054906101000a900473ffffffffffffffffffffffffffffffffffffffff1673ffffffffffffffffffffffffffffffffffffffff163373ffffffffffffffffffffffffffffffffffffffff161461019457600080fd5b80600460006101000a81548173ffffffffffffffffffffffffffffffffffffffff021916908373ffffffffffffffffffffffffffffffffffffffff16021790555050565b606060006101e66001610b56565b905060006101f46002610b56565b6101fe6001610b56565b61020891906110e3565b90506000808267ffffffffffffffff81111561024d577f4e487b7100000000000000000000000000000000000000000000000000000000600052604160045260246000fd5b60405190808252806020026020018201604052801561028657816020015b610273610b7a565b81526020019060019003908161026b5790505b50905060005b848110156104f957600073ffffffffffffffffffffffffffffffffffffffff16600660006001846102bd919061108d565b815260200190815260200160002060040160009054906101000a900473ffffffffffffffffffffffffffffffffffffffff1673ffffffffffffffffffffffffffffffffffffffff1614156104e65760006006600060018461031e919061108d565b81526020019081526020016000206000015490506000600660008381526020019081526020016000209050806040518060e0016040529081600082015481526020016001820160009054906101000a900473ffffffffffffffffffffffffffffffffffffffff1673ffffffffffffffffffffffffffffffffffffffff1673ffffffffffffffffffffffffffffffffffffffff168152602001600282015481526020016003820160009054906101000a900473ffffffffffffffffffffffffffffffffffffffff1673ffffffffffffffffffffffffffffffffffffffff1673ffffffffffffffffffffffffffffffffffffffff1681526020016004820160009054906101000a900473ffffffffffffffffffffffffffffffffffffffff1673ffffffffffffffffffffffffffffffffffffffff1673ffffffffffffffffffffffffffffffffffffffff168152602001600582015481526020016006820160009054906101000a900460ff1615151515815250508486815181106104c9577f4e487b7100000000000000000000000000000000000000000000000000000000600052603260045260246000fd5b60200260200101819052506001856104e1919061108d565b945050505b80806104f1906111a7565b91505061028c565b508094505050505090565b6000600554905090565b60026000541415610554576040517f08c379a000000000000000000000000000000000000000000000000000000000815260040161054b90610fe8565b60405180910390fd5b60026000819055506000811161059f576040517f08c379a000000000000000000000000000000000000000000000000000000000815260040161059690611008565b60405180910390fd5b60055434146105e3576040517f08c379a00000000000000000000000000000000000000000000000000000000081526004016105da90610fc8565b60405180910390fd5b6105ed6001610b64565b60006105f96001610b56565b90506040518060e001604052808281526020018573ffffffffffffffffffffffffffffffffffffffff1681526020018481526020013373ffffffffffffffffffffffffffffffffffffffff168152602001600073ffffffffffffffffffffffffffffffffffffffff16815260200183815260200160001515815250600660008381526020019081526020016000206000820151816000015560208201518160010160006101000a81548173ffffffffffffffffffffffffffffffffffffffff021916908373ffffffffffffffffffffffffffffffffffffffff1602179055506040820151816002015560608201518160030160006101000a81548173ffffffffffffffffffffffffffffffffffffffff021916908373ffffffffffffffffffffffffffffffffffffffff16021790555060808201518160040160006101000a81548173ffffffffffffffffffffffffffffffffffffffff021916908373ffffffffffffffffffffffffffffffffffffffff16021790555060a0820151816005015560c08201518160060160006101000a81548160ff0219169083151502179055509050508373ffffffffffffffffffffffffffffffffffffffff166323b872dd3330866040518463ffffffff1660e01b81526004016107da93929190610f4f565b600060405180830381600087803b1580156107f457600080fd5b505af1158015610808573d6000803e3d6000fd5b50505050828473ffffffffffffffffffffffffffffffffffffffff16827f045dfa01dcba2b36aba1d3dc4a874f4b0c5d2fbeb8d2c4b34a7d88c8d8f929d133600360009054906101000a900473ffffffffffffffffffffffffffffffffffffffff1687600060405161087d9493929190610f0a565b60405180910390a4506001600081905550505050565b8060058190555050565b600260005414156108e3576040517f08c379a00000000000000000000000000000000000000000000000000000000081526004016108da90610fe8565b60405180910390fd5b6002600081905550600060066000838152602001908152602001600020600501549050600060066000848152602001908152602001600020600201549050813414610963576040517f08c379a000000000000000000000000000000000000000000000000000000000815260040161095a90610fa8565b60405180910390fd5b6006600084815260200190815260200160002060030160009054906101000a900473ffffffffffffffffffffffffffffffffffffffff1673ffffffffffffffffffffffffffffffffffffffff166108fc349081150290604051600060405180830381858888f193505050501580156109df573d6000803e3d6000fd5b508373ffffffffffffffffffffffffffffffffffffffff166323b872dd3033846040518463ffffffff1660e01b8152600401610a1d93929190610f4f565b600060405180830381600087803b158015610a3757600080fd5b505af1158015610a4b573d6000803e3d6000fd5b50505050336006600085815260200190815260200160002060040160006101000a81548173ffffffffffffffffffffffffffffffffffffffff021916908373ffffffffffffffffffffffffffffffffffffffff16021790555060016006600085815260200190815260200160002060060160006101000a81548160ff021916908315150217905550610add6002610b64565b600360009054906101000a900473ffffffffffffffffffffffffffffffffffffffff1673ffffffffffffffffffffffffffffffffffffffff166108fc6005549081150290604051600060405180830381858888f19350505050158015610b47573d6000803e3d6000fd5b50505060016000819055505050565b600081600001549050919050565b6001816000016000828254019250508190555050565b6040518060e0016040528060008152602001600073ffffffffffffffffffffffffffffffffffffffff16815260200160008152602001600073ffffffffffffffffffffffffffffffffffffffff168152602001600073ffffffffffffffffffffffffffffffffffffffff168152602001600081526020016000151581525090565b600081359050610c0a8161130f565b92915050565b600081359050610c1f81611326565b92915050565b600060208284031215610c3757600080fd5b6000610c4584828501610bfb565b91505092915050565b60008060408385031215610c6157600080fd5b6000610c6f85828601610bfb565b9250506020610c8085828601610c10565b9150509250929050565b600080600060608486031215610c9f57600080fd5b6000610cad86828701610bfb565b9350506020610cbe86828701610c10565b9250506040610ccf86828701610c10565b9150509250925092565b600060208284031215610ceb57600080fd5b6000610cf984828501610c10565b91505092915050565b6000610d0e8383610e5e565b60e08301905092915050565b610d2381611171565b82525050565b610d3281611129565b82525050565b610d4181611117565b82525050565b610d5081611117565b82525050565b6000610d6182611053565b610d6b818561106b565b9350610d7683611043565b8060005b83811015610da7578151610d8e8882610d02565b9750610d998361105e565b925050600181019050610d7a565b5085935050505092915050565b610dbd8161113b565b82525050565b610dcc8161113b565b82525050565b6000610ddf60408361107c565b9150610dea8261121f565b604082019050919050565b6000610e0260248361107c565b9150610e0d8261126e565b604082019050919050565b6000610e25601f8361107c565b9150610e30826112bd565b602082019050919050565b6000610e48601c8361107c565b9150610e53826112e6565b602082019050919050565b60e082016000820151610e746000850182610eec565b506020820151610e876020850182610d38565b506040820151610e9a6040850182610eec565b506060820151610ead6060850182610d29565b506080820151610ec06080850182610d29565b5060a0820151610ed360a0850182610eec565b5060c0820151610ee660c0850182610db4565b50505050565b610ef581611167565b82525050565b610f0481611167565b82525050565b6000608082019050610f1f6000830187610d47565b610f2c6020830186610d1a565b610f396040830185610efb565b610f466060830184610dc3565b95945050505050565b6000606082019050610f646000830186610d47565b610f716020830185610d47565b610f7e6040830184610efb565b949350505050565b60006020820190508181036000830152610fa08184610d56565b905092915050565b60006020820190508181036000830152610fc181610dd2565b9050919050565b60006020820190508181036000830152610fe181610df5565b9050919050565b6000602082019050818103600083015261100181610e18565b9050919050565b6000602082019050818103600083015261102181610e3b565b9050919050565b600060208201905061103d6000830184610efb565b92915050565b6000819050602082019050919050565b600081519050919050565b6000602082019050919050565b600082825260208201905092915050565b600082825260208201905092915050565b600061109882611167565b91506110a383611167565b9250827fffffffffffffffffffffffffffffffffffffffffffffffffffffffffffffffff038211156110d8576110d76111f0565b5b828201905092915050565b60006110ee82611167565b91506110f983611167565b92508282101561110c5761110b6111f0565b5b828203905092915050565b600061112282611147565b9050919050565b600061113482611147565b9050919050565b60008115159050919050565b600073ffffffffffffffffffffffffffffffffffffffff82169050919050565b6000819050919050565b600061117c82611183565b9050919050565b600061118e82611195565b9050919050565b60006111a082611147565b9050919050565b60006111b282611167565b91507fffffffffffffffffffffffffffffffffffffffffffffffffffffffffffffffff8214156111e5576111e46111f0565b5b600182019050919050565b7f4e487b7100000000000000000000000000000000000000000000000000000000600052601160045260246000fd5b7f506c65617365207375626d6974207468652061736b696e67207072696365206960008201527f6e206f7264657220746f20636f6d706c65746520746865207075726368617365602082015250565b7f5072696365206d75737420626520657175616c20746f206c697374696e67207060008201527f7269636500000000000000000000000000000000000000000000000000000000602082015250565b7f5265656e7472616e637947756172643a207265656e7472616e742063616c6c00600082015250565b7f5072696365206d757374206265206174206c6561737420312077656900000000600082015250565b61131881611117565b811461132357600080fd5b50565b61132f81611167565b811461133a57600080fd5b5056fea2646970667358221220d9ef3d85fa7d6e66a937d91df298491e0f49a456ddf708963755ca09ce1ee6da64736f6c63430008040033",
  "linkReferences": {},
  "deployedLinkReferences": {}
}