{
  "_format": "hh-sol-artifact-1",
  "contractName": "NFTMarket",
  "sourceName": "contracts/NFTMarket.sol",
  "abi": [
    {
      "inputs": [],
      "stateMutability": "nonpayable",
      "type": "constructor"
    },
    {
      "anonymous": false,
      "inputs": [
        {
          "indexed": true,
          "internalType": "uint256",
          "name": "itemId",
          "type": "uint256"
        },
        {
          "indexed": true,
          "internalType": "address",
          "name": "nftContract",
          "type": "address"
        },
        {
          "indexed": true,
          "internalType": "uint256",
          "name": "tokenId",
          "type": "uint256"
        },
        {
          "indexed": false,
          "internalType": "address",
          "name": "seller",
          "type": "address"
        },
        {
          "indexed": false,
          "internalType": "address",
          "name": "owner",
          "type": "address"
        },
        {
          "indexed": false,
          "internalType": "uint256",
          "name": "price",
          "type": "uint256"
        },
        {
          "indexed": false,
          "internalType": "bool",
          "name": "sold",
          "type": "bool"
        }
      ],
      "name": "MarketItemCreated",
      "type": "event"
    },
    {
      "inputs": [
        {
          "internalType": "address",
          "name": "nftContract",
          "type": "address"
        },
        {
          "internalType": "uint256",
          "name": "tokenId",
          "type": "uint256"
        },
        {
          "internalType": "uint256",
          "name": "price",
          "type": "uint256"
        }
      ],
      "name": "createMarketItem",
      "outputs": [],
      "stateMutability": "payable",
      "type": "function"
    },
    {
      "inputs": [
        {
          "internalType": "address",
          "name": "nftContract",
          "type": "address"
        },
        {
          "internalType": "uint256",
          "name": "itemId",
          "type": "uint256"
        }
      ],
      "name": "createMarketSale",
      "outputs": [],
      "stateMutability": "payable",
      "type": "function"
    },
    {
      "inputs": [],
      "name": "fetchMarketItems",
      "outputs": [
        {
          "components": [
            {
              "internalType": "uint256",
              "name": "itemId",
              "type": "uint256"
            },
            {
              "internalType": "address",
              "name": "nftContract",
              "type": "address"
            },
            {
              "internalType": "uint256",
              "name": "tokenId",
              "type": "uint256"
            },
            {
              "internalType": "address payable",
              "name": "seller",
              "type": "address"
            },
            {
              "internalType": "address payable",
              "name": "owner",
              "type": "address"
            },
            {
              "internalType": "uint256",
              "name": "price",
              "type": "uint256"
            },
            {
              "internalType": "bool",
              "name": "sold",
              "type": "bool"
            }
          ],
          "internalType": "struct NFTMarket.MarketItem[]",
          "name": "",
          "type": "tuple[]"
        }
      ],
      "stateMutability": "view",
      "type": "function"
    },
    {
      "inputs": [],
      "name": "getListingPrice",
      "outputs": [
        {
          "internalType": "uint256",
          "name": "",
          "type": "uint256"
        }
      ],
      "stateMutability": "view",
      "type": "function"
    },
    {
      "inputs": [
        {
          "internalType": "uint256",
          "name": "_listingPrice",
          "type": "uint256"
        }
      ],
      "name": "setListingPrice",
      "outputs": [],
      "stateMutability": "nonpayable",
      "type": "function"
    },
    {
      "inputs": [
        {
          "internalType": "address",
          "name": "_nftAddress",
          "type": "address"
        }
      ],
      "name": "setNftAddress",
      "outputs": [],
      "stateMutability": "nonpayable",
      "type": "function"
    }
  ],
  "bytecode": "0x60806040526658d15e1762800060055534801561001b57600080fd5b50600160008190555033600360006101000a81548173ffffffffffffffffffffffffffffffffffffffff021916908373ffffffffffffffffffffffffffffffffffffffff16021790555061162b806100746000396000f3fe6080604052600436106100555760003560e01c80630b102d1a1461005a5780630f08efe01461008357806312e85585146100ae57806358eb2df5146100d95780637c726b69146100f5578063c23b139e1461011e575b600080fd5b34801561006657600080fd5b50610081600480360381019061007c9190610e25565b61013a565b005b34801561008f57600080fd5b506100986101d8565b6040516100a591906111bf565b60405180910390f35b3480156100ba57600080fd5b506100c3610504565b6040516100d09190611291565b60405180910390f35b6100f360048036038101906100ee9190610e8a565b61050e565b005b34801561010157600080fd5b5061011c60048036038101906101179190610ed9565b6108d2565b005b61013860048036038101906101339190610e4e565b6108dc565b005b600360009054906101000a900473ffffffffffffffffffffffffffffffffffffffff1673ffffffffffffffffffffffffffffffffffffffff163373ffffffffffffffffffffffffffffffffffffffff161461019457600080fd5b80600460006101000a81548173ffffffffffffffffffffffffffffffffffffffff021916908373ffffffffffffffffffffffffffffffffffffffff16021790555050565b606060006101e66001610c91565b905060006101f46002610c91565b6101fe6001610c91565b6102089190611357565b90506000808267ffffffffffffffff81111561024d577f4e487b7100000000000000000000000000000000000000000000000000000000600052604160045260246000fd5b60405190808252806020026020018201604052801561028657816020015b610273610d7a565b81526020019060019003908161026b5790505b50905060005b848110156104f957600073ffffffffffffffffffffffffffffffffffffffff16600660006001846102bd9190611301565b815260200190815260200160002060040160009054906101000a900473ffffffffffffffffffffffffffffffffffffffff1673ffffffffffffffffffffffffffffffffffffffff1614156104e65760006006600060018461031e9190611301565b81526020019081526020016000206000015490506000600660008381526020019081526020016000209050806040518060e0016040529081600082015481526020016001820160009054906101000a900473ffffffffffffffffffffffffffffffffffffffff1673ffffffffffffffffffffffffffffffffffffffff1673ffffffffffffffffffffffffffffffffffffffff168152602001600282015481526020016003820160009054906101000a900473ffffffffffffffffffffffffffffffffffffffff1673ffffffffffffffffffffffffffffffffffffffff1673ffffffffffffffffffffffffffffffffffffffff1681526020016004820160009054906101000a900473ffffffffffffffffffffffffffffffffffffffff1673ffffffffffffffffffffffffffffffffffffffff1673ffffffffffffffffffffffffffffffffffffffff168152602001600582015481526020016006820160009054906101000a900460ff1615151515815250508486815181106104c9577f4e487b7100000000000000000000000000000000000000000000000000000000600052603260045260246000fd5b60200260200101819052506001856104e19190611301565b945050505b80806104f19061144e565b91505061028c565b508094505050505090565b6000600554905090565b60026000541415610554576040517f08c379a000000000000000000000000000000000000000000000000000000000815260040161054b90611251565b60405180910390fd5b60026000819055506000811161059f576040517f08c379a000000000000000000000000000000000000000000000000000000000815260040161059690611271565b60405180910390fd5b60055434146105e3576040517f08c379a00000000000000000000000000000000000000000000000000000000081526004016105da90611231565b60405180910390fd5b6105ed6001610c9f565b60006105f96001610c91565b905061063a6040518060400160405280600f81526020017f4c697374696e672050726963653a20000000000000000000000000000000000081525083610cb5565b6040518060e001604052808281526020018573ffffffffffffffffffffffffffffffffffffffff1681526020018481526020013373ffffffffffffffffffffffffffffffffffffffff168152602001600073ffffffffffffffffffffffffffffffffffffffff16815260200183815260200160001515815250600660008381526020019081526020016000206000820151816000015560208201518160010160006101000a81548173ffffffffffffffffffffffffffffffffffffffff021916908373ffffffffffffffffffffffffffffffffffffffff1602179055506040820151816002015560608201518160030160006101000a81548173ffffffffffffffffffffffffffffffffffffffff021916908373ffffffffffffffffffffffffffffffffffffffff16021790555060808201518160040160006101000a81548173ffffffffffffffffffffffffffffffffffffffff021916908373ffffffffffffffffffffffffffffffffffffffff16021790555060a0820151816005015560c08201518160060160006101000a81548160ff0219169083151502179055509050508373ffffffffffffffffffffffffffffffffffffffff166323b872dd3330866040518463ffffffff1660e01b815260040161081993929190611188565b600060405180830381600087803b15801561083357600080fd5b505af1158015610847573d6000803e3d6000fd5b50505050828473ffffffffffffffffffffffffffffffffffffffff16827f045dfa01dcba2b36aba1d3dc4a874f4b0c5d2fbeb8d2c4b34a7d88c8d8f929d133600360009054906101000a900473ffffffffffffffffffffffffffffffffffffffff168760006040516108bc9493929190611143565b60405180910390a4506001600081905550505050565b8060058190555050565b60026000541415610922576040517f08c379a000000000000000000000000000000000000000000000000000000000815260040161091990611251565b60405180910390fd5b600260008190555060006006600083815260200190815260200160002060050154905060006006600084815260200190815260200160002060020154905061099f6040518060400160405280600781526020017f6e667449643a200000000000000000000000000000000000000000000000000081525084610cb5565b6109de6040518060400160405280600981526020017f746f6b656e49443a20000000000000000000000000000000000000000000000081525082610cb5565b610a1d6040518060400160405280600781526020017f50726963653a200000000000000000000000000000000000000000000000000081525083610cb5565b610a5c6040518060400160405280600b81526020017f6d73672e76616c75653a2000000000000000000000000000000000000000000081525034610cb5565b813414610a9e576040517f08c379a0000000000000000000000000000000000000000000000000000000008152600401610a9590611211565b60405180910390fd5b6006600084815260200190815260200160002060030160009054906101000a900473ffffffffffffffffffffffffffffffffffffffff1673ffffffffffffffffffffffffffffffffffffffff166108fc349081150290604051600060405180830381858888f19350505050158015610b1a573d6000803e3d6000fd5b508373ffffffffffffffffffffffffffffffffffffffff166323b872dd3033846040518463ffffffff1660e01b8152600401610b5893929190611188565b600060405180830381600087803b158015610b7257600080fd5b505af1158015610b86573d6000803e3d6000fd5b50505050336006600085815260200190815260200160002060040160006101000a81548173ffffffffffffffffffffffffffffffffffffffff021916908373ffffffffffffffffffffffffffffffffffffffff16021790555060016006600085815260200190815260200160002060060160006101000a81548160ff021916908315150217905550610c186002610c9f565b600360009054906101000a900473ffffffffffffffffffffffffffffffffffffffff1673ffffffffffffffffffffffffffffffffffffffff166108fc6005549081150290604051600060405180830381858888f19350505050158015610c82573d6000803e3d6000fd5b50505060016000819055505050565b600081600001549050919050565b6001816000016000828254019250508190555050565b610d4d8282604051602401610ccb9291906111e1565b6040516020818303038152906040527f9710a9d0000000000000000000000000000000000000000000000000000000007bffffffffffffffffffffffffffffffffffffffffffffffffffffffff19166020820180517bffffffffffffffffffffffffffffffffffffffffffffffffffffffff8381831617835250505050610d51565b5050565b60008151905060006a636f6e736f6c652e6c6f679050602083016000808483855afa5050505050565b6040518060e0016040528060008152602001600073ffffffffffffffffffffffffffffffffffffffff16815260200160008152602001600073ffffffffffffffffffffffffffffffffffffffff168152602001600073ffffffffffffffffffffffffffffffffffffffff168152602001600081526020016000151581525090565b600081359050610e0a816115c7565b92915050565b600081359050610e1f816115de565b92915050565b600060208284031215610e3757600080fd5b6000610e4584828501610dfb565b91505092915050565b60008060408385031215610e6157600080fd5b6000610e6f85828601610dfb565b9250506020610e8085828601610e10565b9150509250929050565b600080600060608486031215610e9f57600080fd5b6000610ead86828701610dfb565b9350506020610ebe86828701610e10565b9250506040610ecf86828701610e10565b9150509250925092565b600060208284031215610eeb57600080fd5b6000610ef984828501610e10565b91505092915050565b6000610f0e8383611097565b60e08301905092915050565b610f23816113e5565b82525050565b610f328161139d565b82525050565b610f418161138b565b82525050565b610f508161138b565b82525050565b6000610f61826112bc565b610f6b81856112df565b9350610f76836112ac565b8060005b83811015610fa7578151610f8e8882610f02565b9750610f99836112d2565b925050600181019050610f7a565b5085935050505092915050565b610fbd816113af565b82525050565b610fcc816113af565b82525050565b6000610fdd826112c7565b610fe781856112f0565b9350610ff781856020860161141b565b611000816114c6565b840191505092915050565b60006110186040836112f0565b9150611023826114d7565b604082019050919050565b600061103b6024836112f0565b915061104682611526565b604082019050919050565b600061105e601f836112f0565b915061106982611575565b602082019050919050565b6000611081601c836112f0565b915061108c8261159e565b602082019050919050565b60e0820160008201516110ad6000850182611125565b5060208201516110c06020850182610f38565b5060408201516110d36040850182611125565b5060608201516110e66060850182610f29565b5060808201516110f96080850182610f29565b5060a082015161110c60a0850182611125565b5060c082015161111f60c0850182610fb4565b50505050565b61112e816113db565b82525050565b61113d816113db565b82525050565b60006080820190506111586000830187610f47565b6111656020830186610f1a565b6111726040830185611134565b61117f6060830184610fc3565b95945050505050565b600060608201905061119d6000830186610f47565b6111aa6020830185610f47565b6111b76040830184611134565b949350505050565b600060208201905081810360008301526111d98184610f56565b905092915050565b600060408201905081810360008301526111fb8185610fd2565b905061120a6020830184611134565b9392505050565b6000602082019050818103600083015261122a8161100b565b9050919050565b6000602082019050818103600083015261124a8161102e565b9050919050565b6000602082019050818103600083015261126a81611051565b9050919050565b6000602082019050818103600083015261128a81611074565b9050919050565b60006020820190506112a66000830184611134565b92915050565b6000819050602082019050919050565b600081519050919050565b600081519050919050565b6000602082019050919050565b600082825260208201905092915050565b600082825260208201905092915050565b600061130c826113db565b9150611317836113db565b9250827fffffffffffffffffffffffffffffffffffffffffffffffffffffffffffffffff0382111561134c5761134b611497565b5b828201905092915050565b6000611362826113db565b915061136d836113db565b9250828210156113805761137f611497565b5b828203905092915050565b6000611396826113bb565b9050919050565b60006113a8826113bb565b9050919050565b60008115159050919050565b600073ffffffffffffffffffffffffffffffffffffffff82169050919050565b6000819050919050565b60006113f0826113f7565b9050919050565b600061140282611409565b9050919050565b6000611414826113bb565b9050919050565b60005b8381101561143957808201518184015260208101905061141e565b83811115611448576000848401525b50505050565b6000611459826113db565b91507fffffffffffffffffffffffffffffffffffffffffffffffffffffffffffffffff82141561148c5761148b611497565b5b600182019050919050565b7f4e487b7100000000000000000000000000000000000000000000000000000000600052601160045260246000fd5b6000601f19601f8301169050919050565b7f506c65617365207375626d6974207468652061736b696e67207072696365206960008201527f6e206f7264657220746f20636f6d706c65746520746865207075726368617365602082015250565b7f5072696365206d75737420626520657175616c20746f206c697374696e67207060008201527f7269636500000000000000000000000000000000000000000000000000000000602082015250565b7f5265656e7472616e637947756172643a207265656e7472616e742063616c6c00600082015250565b7f5072696365206d757374206265206174206c6561737420312077656900000000600082015250565b6115d08161138b565b81146115db57600080fd5b50565b6115e7816113db565b81146115f257600080fd5b5056fea26469706673582212206db5231204e79cd14c2dd34ef806f8c952ba1edcb63a4076690d4751332c4f6964736f6c63430008040033",
  "linkReferences": {},
  "deployedLinkReferences": {}
}