{
  "_format": "hh-sol-artifact-1",
  "contractName": "NFTMarket",
  "sourceName": "contracts/NFTMarket.sol",
  "abi": [
    {
      "inputs": [
        {
          "internalType": "address",
          "name": "_bankAddress",
          "type": "address"
        }
      ],
      "stateMutability": "nonpayable",
      "type": "constructor"
    },
    {
      "anonymous": false,
      "inputs": [
        {
          "indexed": true,
          "internalType": "uint256",
          "name": "itemId",
          "type": "uint256"
        },
        {
          "indexed": true,
          "internalType": "address",
          "name": "nftContract",
          "type": "address"
        },
        {
          "indexed": true,
          "internalType": "uint256",
          "name": "tokenId",
          "type": "uint256"
        },
        {
          "indexed": false,
          "internalType": "address",
          "name": "seller",
          "type": "address"
        },
        {
          "indexed": false,
          "internalType": "address",
          "name": "owner",
          "type": "address"
        },
        {
          "indexed": false,
          "internalType": "uint256",
          "name": "price",
          "type": "uint256"
        },
        {
          "indexed": false,
          "internalType": "bool",
          "name": "sold",
          "type": "bool"
        }
      ],
      "name": "MarketItemCreated",
      "type": "event"
    },
    {
      "inputs": [
        {
          "internalType": "address",
          "name": "nftContract",
          "type": "address"
        },
        {
          "internalType": "uint256",
          "name": "tokenId",
          "type": "uint256"
        },
        {
          "internalType": "uint256",
          "name": "price",
          "type": "uint256"
        }
      ],
      "name": "createMarketItem",
      "outputs": [],
      "stateMutability": "payable",
      "type": "function"
    },
    {
      "inputs": [
        {
          "internalType": "address",
          "name": "nftContract",
          "type": "address"
        },
        {
          "internalType": "uint256",
          "name": "itemId",
          "type": "uint256"
        }
      ],
      "name": "createMarketSale",
      "outputs": [],
      "stateMutability": "payable",
      "type": "function"
    },
    {
      "inputs": [],
      "name": "fetchMarketItems",
      "outputs": [
        {
          "components": [
            {
              "internalType": "uint256",
              "name": "itemId",
              "type": "uint256"
            },
            {
              "internalType": "address",
              "name": "nftContract",
              "type": "address"
            },
            {
              "internalType": "uint256",
              "name": "tokenId",
              "type": "uint256"
            },
            {
              "internalType": "address payable",
              "name": "seller",
              "type": "address"
            },
            {
              "internalType": "address payable",
              "name": "owner",
              "type": "address"
            },
            {
              "internalType": "uint256",
              "name": "price",
              "type": "uint256"
            },
            {
              "internalType": "bool",
              "name": "sold",
              "type": "bool"
            }
          ],
          "internalType": "struct NFTMarket.MarketItem[]",
          "name": "",
          "type": "tuple[]"
        }
      ],
      "stateMutability": "view",
      "type": "function"
    },
    {
      "inputs": [
        {
          "internalType": "address",
          "name": "_nftAddress",
          "type": "address"
        }
      ],
      "name": "setNftAddress",
      "outputs": [],
      "stateMutability": "nonpayable",
      "type": "function"
    },
    {
      "inputs": [
        {
          "internalType": "uint256",
          "name": "_sellerPremium",
          "type": "uint256"
        }
      ],
      "name": "setSellerPremium",
      "outputs": [],
      "stateMutability": "nonpayable",
      "type": "function"
    }
  ],
  "bytecode": "0x608060405260fa6006556101f46007553480156200001c57600080fd5b50604051620018ce380380620018ce8339818101604052810190620000429190620000ea565b600160008190555033600360006101000a81548173ffffffffffffffffffffffffffffffffffffffff021916908373ffffffffffffffffffffffffffffffffffffffff16021790555080600560006101000a81548173ffffffffffffffffffffffffffffffffffffffff021916908373ffffffffffffffffffffffffffffffffffffffff1602179055505062000164565b600081519050620000e4816200014a565b92915050565b600060208284031215620000fd57600080fd5b60006200010d84828501620000d3565b91505092915050565b600062000123826200012a565b9050919050565b600073ffffffffffffffffffffffffffffffffffffffff82169050919050565b620001558162000116565b81146200016157600080fd5b50565b61175a80620001746000396000f3fe60806040526004361061004a5760003560e01c80630b102d1a1461004f5780630f08efe01461007857806358eb2df5146100a35780638d3c43fd146100bf578063c23b139e146100e8575b600080fd5b34801561005b57600080fd5b5061007660048036038101906100719190610f25565b610104565b005b34801561008457600080fd5b5061008d6101a2565b60405161009a919061129c565b60405180910390f35b6100bd60048036038101906100b89190610f8a565b6104ce565b005b3480156100cb57600080fd5b506100e660048036038101906100e19190610fd9565b61084e565b005b61010260048036038101906100fd9190610f4e565b610858565b005b600360009054906101000a900473ffffffffffffffffffffffffffffffffffffffff1673ffffffffffffffffffffffffffffffffffffffff163373ffffffffffffffffffffffffffffffffffffffff161461015e57600080fd5b80600460006101000a81548173ffffffffffffffffffffffffffffffffffffffff021916908373ffffffffffffffffffffffffffffffffffffffff16021790555050565b606060006101b06001610cf8565b905060006101be6002610cf8565b6101c86001610cf8565b6101d291906114a6565b90506000808267ffffffffffffffff811115610217577f4e487b7100000000000000000000000000000000000000000000000000000000600052604160045260246000fd5b60405190808252806020026020018201604052801561025057816020015b61023d610e7a565b8152602001906001900390816102355790505b50905060005b848110156104c357600073ffffffffffffffffffffffffffffffffffffffff166008600060018461028791906113c5565b815260200190815260200160002060040160009054906101000a900473ffffffffffffffffffffffffffffffffffffffff1673ffffffffffffffffffffffffffffffffffffffff1614156104b0576000600860006001846102e891906113c5565b81526020019081526020016000206000015490506000600860008381526020019081526020016000209050806040518060e0016040529081600082015481526020016001820160009054906101000a900473ffffffffffffffffffffffffffffffffffffffff1673ffffffffffffffffffffffffffffffffffffffff1673ffffffffffffffffffffffffffffffffffffffff168152602001600282015481526020016003820160009054906101000a900473ffffffffffffffffffffffffffffffffffffffff1673ffffffffffffffffffffffffffffffffffffffff1673ffffffffffffffffffffffffffffffffffffffff1681526020016004820160009054906101000a900473ffffffffffffffffffffffffffffffffffffffff1673ffffffffffffffffffffffffffffffffffffffff1673ffffffffffffffffffffffffffffffffffffffff168152602001600582015481526020016006820160009054906101000a900460ff161515151581525050848681518110610493577f4e487b7100000000000000000000000000000000000000000000000000000000600052603260045260246000fd5b60200260200101819052506001856104ab91906113c5565b945050505b80806104bb9061159d565b915050610256565b508094505050505090565b60026000541415610514576040517f08c379a000000000000000000000000000000000000000000000000000000000815260040161050b90611330565b60405180910390fd5b60026000819055506000811161055f576040517f08c379a000000000000000000000000000000000000000000000000000000000815260040161055690611350565b60405180910390fd5b6105696001610d06565b60006105756001610cf8565b90506105b66040518060400160405280600f81526020017f4c697374696e672050726963653a20000000000000000000000000000000000081525083610d1c565b6040518060e001604052808281526020018573ffffffffffffffffffffffffffffffffffffffff1681526020018481526020013373ffffffffffffffffffffffffffffffffffffffff168152602001600073ffffffffffffffffffffffffffffffffffffffff16815260200183815260200160001515815250600860008381526020019081526020016000206000820151816000015560208201518160010160006101000a81548173ffffffffffffffffffffffffffffffffffffffff021916908373ffffffffffffffffffffffffffffffffffffffff1602179055506040820151816002015560608201518160030160006101000a81548173ffffffffffffffffffffffffffffffffffffffff021916908373ffffffffffffffffffffffffffffffffffffffff16021790555060808201518160040160006101000a81548173ffffffffffffffffffffffffffffffffffffffff021916908373ffffffffffffffffffffffffffffffffffffffff16021790555060a0820151816005015560c08201518160060160006101000a81548160ff0219169083151502179055509050508373ffffffffffffffffffffffffffffffffffffffff166323b872dd3330866040518463ffffffff1660e01b815260040161079593929190611265565b600060405180830381600087803b1580156107af57600080fd5b505af11580156107c3573d6000803e3d6000fd5b50505050828473ffffffffffffffffffffffffffffffffffffffff16827f045dfa01dcba2b36aba1d3dc4a874f4b0c5d2fbeb8d2c4b34a7d88c8d8f929d133600360009054906101000a900473ffffffffffffffffffffffffffffffffffffffff168760006040516108389493929190611220565b60405180910390a4506001600081905550505050565b8060078190555050565b6002600054141561089e576040517f08c379a000000000000000000000000000000000000000000000000000000000815260040161089590611330565b60405180910390fd5b600260008190555060006008600083815260200190815260200160002060050154905060006008600084815260200190815260200160002060020154905061091b6040518060400160405280600781526020017f6e667449643a200000000000000000000000000000000000000000000000000081525084610d1c565b61095a6040518060400160405280600981526020017f746f6b656e49443a20000000000000000000000000000000000000000000000081525082610d1c565b6109996040518060400160405280600781526020017f50726963653a200000000000000000000000000000000000000000000000000081525083610d1c565b6109d86040518060400160405280600b81526020017f6d73672e76616c75653a2000000000000000000000000000000000000000000081525034610d1c565b6000612710600754846109eb919061144c565b6109f5919061141b565b9050610a366040518060400160405280600881526020017f4665652069733a2000000000000000000000000000000000000000000000000081525082610d1c565b60008134610a4491906114a6565b9050610a856040518060400160405280600e81526020017f53656c6c65722076616c75653a2000000000000000000000000000000000000081525082610d1c565b833414610ac7576040517f08c379a0000000000000000000000000000000000000000000000000000000008152600401610abe90611310565b60405180910390fd5b6008600086815260200190815260200160002060030160009054906101000a900473ffffffffffffffffffffffffffffffffffffffff1673ffffffffffffffffffffffffffffffffffffffff166108fc829081150290604051600060405180830381858888f19350505050158015610b43573d6000803e3d6000fd5b508573ffffffffffffffffffffffffffffffffffffffff166323b872dd3033866040518463ffffffff1660e01b8152600401610b8193929190611265565b600060405180830381600087803b158015610b9b57600080fd5b505af1158015610baf573d6000803e3d6000fd5b50505050336008600087815260200190815260200160002060040160006101000a81548173ffffffffffffffffffffffffffffffffffffffff021916908373ffffffffffffffffffffffffffffffffffffffff16021790555060016008600087815260200190815260200160002060060160006101000a81548160ff021916908315150217905550610c416002610d06565b600560009054906101000a900473ffffffffffffffffffffffffffffffffffffffff1673ffffffffffffffffffffffffffffffffffffffff166108fc839081150290604051600060405180830381858888f19350505050158015610ca9573d6000803e3d6000fd5b50610ce86040518060400160405280600a81526020017f7472616e73666572656400000000000000000000000000000000000000000000815250610db8565b5050505060016000819055505050565b600081600001549050919050565b6001816000016000828254019250508190555050565b610db48282604051602401610d329291906112e0565b6040516020818303038152906040527f9710a9d0000000000000000000000000000000000000000000000000000000007bffffffffffffffffffffffffffffffffffffffffffffffffffffffff19166020820180517bffffffffffffffffffffffffffffffffffffffffffffffffffffffff8381831617835250505050610e51565b5050565b610e4e81604051602401610dcc91906112be565b6040516020818303038152906040527f41304fac000000000000000000000000000000000000000000000000000000007bffffffffffffffffffffffffffffffffffffffffffffffffffffffff19166020820180517bffffffffffffffffffffffffffffffffffffffffffffffffffffffff8381831617835250505050610e51565b50565b60008151905060006a636f6e736f6c652e6c6f679050602083016000808483855afa5050505050565b6040518060e0016040528060008152602001600073ffffffffffffffffffffffffffffffffffffffff16815260200160008152602001600073ffffffffffffffffffffffffffffffffffffffff168152602001600073ffffffffffffffffffffffffffffffffffffffff168152602001600081526020016000151581525090565b600081359050610f0a816116f6565b92915050565b600081359050610f1f8161170d565b92915050565b600060208284031215610f3757600080fd5b6000610f4584828501610efb565b91505092915050565b60008060408385031215610f6157600080fd5b6000610f6f85828601610efb565b9250506020610f8085828601610f10565b9150509250929050565b600080600060608486031215610f9f57600080fd5b6000610fad86828701610efb565b9350506020610fbe86828701610f10565b9250506040610fcf86828701610f10565b9150509250925092565b600060208284031215610feb57600080fd5b6000610ff984828501610f10565b91505092915050565b600061100e8383611174565b60e08301905092915050565b61102381611534565b82525050565b611032816114ec565b82525050565b611041816114da565b82525050565b611050816114da565b82525050565b600061106182611380565b61106b81856113a3565b935061107683611370565b8060005b838110156110a757815161108e8882611002565b975061109983611396565b92505060018101905061107a565b5085935050505092915050565b6110bd816114fe565b82525050565b6110cc816114fe565b82525050565b60006110dd8261138b565b6110e781856113b4565b93506110f781856020860161156a565b61110081611644565b840191505092915050565b60006111186040836113b4565b915061112382611655565b604082019050919050565b600061113b601f836113b4565b9150611146826116a4565b602082019050919050565b600061115e601c836113b4565b9150611169826116cd565b602082019050919050565b60e08201600082015161118a6000850182611202565b50602082015161119d6020850182611038565b5060408201516111b06040850182611202565b5060608201516111c36060850182611029565b5060808201516111d66080850182611029565b5060a08201516111e960a0850182611202565b5060c08201516111fc60c08501826110b4565b50505050565b61120b8161152a565b82525050565b61121a8161152a565b82525050565b60006080820190506112356000830187611047565b611242602083018661101a565b61124f6040830185611211565b61125c60608301846110c3565b95945050505050565b600060608201905061127a6000830186611047565b6112876020830185611047565b6112946040830184611211565b949350505050565b600060208201905081810360008301526112b68184611056565b905092915050565b600060208201905081810360008301526112d881846110d2565b905092915050565b600060408201905081810360008301526112fa81856110d2565b90506113096020830184611211565b9392505050565b600060208201905081810360008301526113298161110b565b9050919050565b600060208201905081810360008301526113498161112e565b9050919050565b6000602082019050818103600083015261136981611151565b9050919050565b6000819050602082019050919050565b600081519050919050565b600081519050919050565b6000602082019050919050565b600082825260208201905092915050565b600082825260208201905092915050565b60006113d08261152a565b91506113db8361152a565b9250827fffffffffffffffffffffffffffffffffffffffffffffffffffffffffffffffff038211156114105761140f6115e6565b5b828201905092915050565b60006114268261152a565b91506114318361152a565b92508261144157611440611615565b5b828204905092915050565b60006114578261152a565b91506114628361152a565b9250817fffffffffffffffffffffffffffffffffffffffffffffffffffffffffffffffff048311821515161561149b5761149a6115e6565b5b828202905092915050565b60006114b18261152a565b91506114bc8361152a565b9250828210156114cf576114ce6115e6565b5b828203905092915050565b60006114e58261150a565b9050919050565b60006114f78261150a565b9050919050565b60008115159050919050565b600073ffffffffffffffffffffffffffffffffffffffff82169050919050565b6000819050919050565b600061153f82611546565b9050919050565b600061155182611558565b9050919050565b60006115638261150a565b9050919050565b60005b8381101561158857808201518184015260208101905061156d565b83811115611597576000848401525b50505050565b60006115a88261152a565b91507fffffffffffffffffffffffffffffffffffffffffffffffffffffffffffffffff8214156115db576115da6115e6565b5b600182019050919050565b7f4e487b7100000000000000000000000000000000000000000000000000000000600052601160045260246000fd5b7f4e487b7100000000000000000000000000000000000000000000000000000000600052601260045260246000fd5b6000601f19601f8301169050919050565b7f506c65617365207375626d6974207468652061736b696e67207072696365206960008201527f6e206f7264657220746f20636f6d706c65746520746865207075726368617365602082015250565b7f5265656e7472616e637947756172643a207265656e7472616e742063616c6c00600082015250565b7f5072696365206d757374206265206174206c6561737420312077656900000000600082015250565b6116ff816114da565b811461170a57600080fd5b50565b6117168161152a565b811461172157600080fd5b5056fea2646970667358221220163e39eb557f7b46abe9f275710de54b11b5bc68fe51b2106437d02c0a8cb7aa64736f6c63430008040033",
  "linkReferences": {},
  "deployedLinkReferences": {}
}