{
  "_format": "hh-sol-artifact-1",
  "contractName": "DrinkingTrees",
  "sourceName": "contracts/DrinkingTreesCollection1.sol",
  "abi": [
    {
      "inputs": [
        {
          "internalType": "string",
          "name": "_name",
          "type": "string"
        },
        {
          "internalType": "string",
          "name": "_symbol",
          "type": "string"
        },
        {
          "internalType": "string",
          "name": "_initBaseURI",
          "type": "string"
        }
      ],
      "stateMutability": "nonpayable",
      "type": "constructor"
    },
    {
      "anonymous": false,
      "inputs": [
        {
          "indexed": true,
          "internalType": "address",
          "name": "owner",
          "type": "address"
        },
        {
          "indexed": true,
          "internalType": "address",
          "name": "approved",
          "type": "address"
        },
        {
          "indexed": true,
          "internalType": "uint256",
          "name": "tokenId",
          "type": "uint256"
        }
      ],
      "name": "Approval",
      "type": "event"
    },
    {
      "anonymous": false,
      "inputs": [
        {
          "indexed": true,
          "internalType": "address",
          "name": "owner",
          "type": "address"
        },
        {
          "indexed": true,
          "internalType": "address",
          "name": "operator",
          "type": "address"
        },
        {
          "indexed": false,
          "internalType": "bool",
          "name": "approved",
          "type": "bool"
        }
      ],
      "name": "ApprovalForAll",
      "type": "event"
    },
    {
      "anonymous": false,
      "inputs": [
        {
          "indexed": true,
          "internalType": "address",
          "name": "previousOwner",
          "type": "address"
        },
        {
          "indexed": true,
          "internalType": "address",
          "name": "newOwner",
          "type": "address"
        }
      ],
      "name": "OwnershipTransferred",
      "type": "event"
    },
    {
      "anonymous": false,
      "inputs": [
        {
          "indexed": true,
          "internalType": "address",
          "name": "from",
          "type": "address"
        },
        {
          "indexed": true,
          "internalType": "address",
          "name": "to",
          "type": "address"
        },
        {
          "indexed": true,
          "internalType": "uint256",
          "name": "tokenId",
          "type": "uint256"
        }
      ],
      "name": "Transfer",
      "type": "event"
    },
    {
      "inputs": [
        {
          "internalType": "address",
          "name": "to",
          "type": "address"
        },
        {
          "internalType": "uint256",
          "name": "tokenId",
          "type": "uint256"
        }
      ],
      "name": "approve",
      "outputs": [],
      "stateMutability": "nonpayable",
      "type": "function"
    },
    {
      "inputs": [
        {
          "internalType": "address",
          "name": "owner",
          "type": "address"
        }
      ],
      "name": "balanceOf",
      "outputs": [
        {
          "internalType": "uint256",
          "name": "",
          "type": "uint256"
        }
      ],
      "stateMutability": "view",
      "type": "function"
    },
    {
      "inputs": [],
      "name": "baseExtension",
      "outputs": [
        {
          "internalType": "string",
          "name": "",
          "type": "string"
        }
      ],
      "stateMutability": "view",
      "type": "function"
    },
    {
      "inputs": [],
      "name": "baseURI",
      "outputs": [
        {
          "internalType": "string",
          "name": "",
          "type": "string"
        }
      ],
      "stateMutability": "view",
      "type": "function"
    },
    {
      "inputs": [],
      "name": "cost",
      "outputs": [
        {
          "internalType": "uint256",
          "name": "",
          "type": "uint256"
        }
      ],
      "stateMutability": "view",
      "type": "function"
    },
    {
      "inputs": [
        {
          "internalType": "uint256",
          "name": "tokenId",
          "type": "uint256"
        }
      ],
      "name": "getApproved",
      "outputs": [
        {
          "internalType": "address",
          "name": "",
          "type": "address"
        }
      ],
      "stateMutability": "view",
      "type": "function"
    },
    {
      "inputs": [
        {
          "internalType": "address",
          "name": "owner",
          "type": "address"
        },
        {
          "internalType": "address",
          "name": "operator",
          "type": "address"
        }
      ],
      "name": "isApprovedForAll",
      "outputs": [
        {
          "internalType": "bool",
          "name": "",
          "type": "bool"
        }
      ],
      "stateMutability": "view",
      "type": "function"
    },
    {
      "inputs": [],
      "name": "maxMintAmount",
      "outputs": [
        {
          "internalType": "uint256",
          "name": "",
          "type": "uint256"
        }
      ],
      "stateMutability": "view",
      "type": "function"
    },
    {
      "inputs": [],
      "name": "maxSupply",
      "outputs": [
        {
          "internalType": "uint256",
          "name": "",
          "type": "uint256"
        }
      ],
      "stateMutability": "view",
      "type": "function"
    },
    {
      "inputs": [
        {
          "internalType": "uint256",
          "name": "_mintAmount",
          "type": "uint256"
        }
      ],
      "name": "mint",
      "outputs": [],
      "stateMutability": "payable",
      "type": "function"
    },
    {
      "inputs": [],
      "name": "name",
      "outputs": [
        {
          "internalType": "string",
          "name": "",
          "type": "string"
        }
      ],
      "stateMutability": "view",
      "type": "function"
    },
    {
      "inputs": [],
      "name": "owner",
      "outputs": [
        {
          "internalType": "address",
          "name": "",
          "type": "address"
        }
      ],
      "stateMutability": "view",
      "type": "function"
    },
    {
      "inputs": [
        {
          "internalType": "uint256",
          "name": "tokenId",
          "type": "uint256"
        }
      ],
      "name": "ownerOf",
      "outputs": [
        {
          "internalType": "address",
          "name": "",
          "type": "address"
        }
      ],
      "stateMutability": "view",
      "type": "function"
    },
    {
      "inputs": [
        {
          "internalType": "bool",
          "name": "_state",
          "type": "bool"
        }
      ],
      "name": "pause",
      "outputs": [],
      "stateMutability": "nonpayable",
      "type": "function"
    },
    {
      "inputs": [],
      "name": "paused",
      "outputs": [
        {
          "internalType": "bool",
          "name": "",
          "type": "bool"
        }
      ],
      "stateMutability": "view",
      "type": "function"
    },
    {
      "inputs": [
        {
          "internalType": "address",
          "name": "_user",
          "type": "address"
        }
      ],
      "name": "removeWhitelistUser",
      "outputs": [],
      "stateMutability": "nonpayable",
      "type": "function"
    },
    {
      "inputs": [],
      "name": "renounceOwnership",
      "outputs": [],
      "stateMutability": "nonpayable",
      "type": "function"
    },
    {
      "inputs": [
        {
          "internalType": "address",
          "name": "from",
          "type": "address"
        },
        {
          "internalType": "address",
          "name": "to",
          "type": "address"
        },
        {
          "internalType": "uint256",
          "name": "tokenId",
          "type": "uint256"
        }
      ],
      "name": "safeTransferFrom",
      "outputs": [],
      "stateMutability": "nonpayable",
      "type": "function"
    },
    {
      "inputs": [
        {
          "internalType": "address",
          "name": "from",
          "type": "address"
        },
        {
          "internalType": "address",
          "name": "to",
          "type": "address"
        },
        {
          "internalType": "uint256",
          "name": "tokenId",
          "type": "uint256"
        },
        {
          "internalType": "bytes",
          "name": "_data",
          "type": "bytes"
        }
      ],
      "name": "safeTransferFrom",
      "outputs": [],
      "stateMutability": "nonpayable",
      "type": "function"
    },
    {
      "inputs": [
        {
          "internalType": "address",
          "name": "operator",
          "type": "address"
        },
        {
          "internalType": "bool",
          "name": "approved",
          "type": "bool"
        }
      ],
      "name": "setApprovalForAll",
      "outputs": [],
      "stateMutability": "nonpayable",
      "type": "function"
    },
    {
      "inputs": [
        {
          "internalType": "string",
          "name": "_newBaseExtension",
          "type": "string"
        }
      ],
      "name": "setBaseExtension",
      "outputs": [],
      "stateMutability": "nonpayable",
      "type": "function"
    },
    {
      "inputs": [
        {
          "internalType": "string",
          "name": "_newBaseURI",
          "type": "string"
        }
      ],
      "name": "setBaseURI",
      "outputs": [],
      "stateMutability": "nonpayable",
      "type": "function"
    },
    {
      "inputs": [
        {
          "internalType": "uint256",
          "name": "_newCost",
          "type": "uint256"
        }
      ],
      "name": "setCost",
      "outputs": [],
      "stateMutability": "nonpayable",
      "type": "function"
    },
    {
      "inputs": [
        {
          "internalType": "uint256",
          "name": "_newmaxMintAmount",
          "type": "uint256"
        }
      ],
      "name": "setmaxMintAmount",
      "outputs": [],
      "stateMutability": "nonpayable",
      "type": "function"
    },
    {
      "inputs": [
        {
          "internalType": "bytes4",
          "name": "interfaceId",
          "type": "bytes4"
        }
      ],
      "name": "supportsInterface",
      "outputs": [
        {
          "internalType": "bool",
          "name": "",
          "type": "bool"
        }
      ],
      "stateMutability": "view",
      "type": "function"
    },
    {
      "inputs": [],
      "name": "symbol",
      "outputs": [
        {
          "internalType": "string",
          "name": "",
          "type": "string"
        }
      ],
      "stateMutability": "view",
      "type": "function"
    },
    {
      "inputs": [
        {
          "internalType": "uint256",
          "name": "index",
          "type": "uint256"
        }
      ],
      "name": "tokenByIndex",
      "outputs": [
        {
          "internalType": "uint256",
          "name": "",
          "type": "uint256"
        }
      ],
      "stateMutability": "view",
      "type": "function"
    },
    {
      "inputs": [
        {
          "internalType": "address",
          "name": "owner",
          "type": "address"
        },
        {
          "internalType": "uint256",
          "name": "index",
          "type": "uint256"
        }
      ],
      "name": "tokenOfOwnerByIndex",
      "outputs": [
        {
          "internalType": "uint256",
          "name": "",
          "type": "uint256"
        }
      ],
      "stateMutability": "view",
      "type": "function"
    },
    {
      "inputs": [
        {
          "internalType": "uint256",
          "name": "tokenId",
          "type": "uint256"
        }
      ],
      "name": "tokenURI",
      "outputs": [
        {
          "internalType": "string",
          "name": "",
          "type": "string"
        }
      ],
      "stateMutability": "view",
      "type": "function"
    },
    {
      "inputs": [],
      "name": "totalSupply",
      "outputs": [
        {
          "internalType": "uint256",
          "name": "",
          "type": "uint256"
        }
      ],
      "stateMutability": "view",
      "type": "function"
    },
    {
      "inputs": [
        {
          "internalType": "address",
          "name": "from",
          "type": "address"
        },
        {
          "internalType": "address",
          "name": "to",
          "type": "address"
        },
        {
          "internalType": "uint256",
          "name": "tokenId",
          "type": "uint256"
        }
      ],
      "name": "transferFrom",
      "outputs": [],
      "stateMutability": "nonpayable",
      "type": "function"
    },
    {
      "inputs": [
        {
          "internalType": "address",
          "name": "newOwner",
          "type": "address"
        }
      ],
      "name": "transferOwnership",
      "outputs": [],
      "stateMutability": "nonpayable",
      "type": "function"
    },
    {
      "inputs": [
        {
          "internalType": "address",
          "name": "_owner",
          "type": "address"
        }
      ],
      "name": "walletOfOwner",
      "outputs": [
        {
          "internalType": "uint256[]",
          "name": "",
          "type": "uint256[]"
        }
      ],
      "stateMutability": "view",
      "type": "function"
    },
    {
      "inputs": [
        {
          "internalType": "address",
          "name": "_user",
          "type": "address"
        }
      ],
      "name": "whitelistUser",
      "outputs": [],
      "stateMutability": "nonpayable",
      "type": "function"
    },
    {
      "inputs": [
        {
          "internalType": "address",
          "name": "",
          "type": "address"
        }
      ],
      "name": "whitelisted",
      "outputs": [
        {
          "internalType": "bool",
          "name": "",
          "type": "bool"
        }
      ],
      "stateMutability": "view",
      "type": "function"
    },
    {
      "inputs": [],
      "name": "withdraw",
      "outputs": [],
      "stateMutability": "payable",
      "type": "function"
    }
  ],
  "bytecode": "0x60806040526040518060400160405280600581526020017f2e6a736f6e000000000000000000000000000000000000000000000000000000815250600c908051906020019062000051929190620002cb565b5068056bc75e2d63100000600d556103e8600e556014600f556000601060006101000a81548160ff0219169083151502179055503480156200009257600080fd5b5060405162004af838038062004af88339818101604052810190620000b89190620003ed565b82828160009080519060200190620000d2929190620002cb565b508060019080519060200190620000eb929190620002cb565b5050506200010e620001026200012860201b60201c565b6200013060201b60201c565b6200011f81620001f660201b60201c565b50505062000681565b600033905090565b6000600a60009054906101000a900473ffffffffffffffffffffffffffffffffffffffff16905081600a60006101000a81548173ffffffffffffffffffffffffffffffffffffffff021916908373ffffffffffffffffffffffffffffffffffffffff1602179055508173ffffffffffffffffffffffffffffffffffffffff168173ffffffffffffffffffffffffffffffffffffffff167f8be0079c531659141344cd1fd0a4f28419497f9722a3daafe3b4186f6b6457e060405160405180910390a35050565b620002066200012860201b60201c565b73ffffffffffffffffffffffffffffffffffffffff166200022c620002a160201b60201c565b73ffffffffffffffffffffffffffffffffffffffff161462000285576040517f08c379a00000000000000000000000000000000000000000000000000000000081526004016200027c90620004b5565b60405180910390fd5b80600b90805190602001906200029d929190620002cb565b5050565b6000600a60009054906101000a900473ffffffffffffffffffffffffffffffffffffffff16905090565b828054620002d9906200057d565b90600052602060002090601f016020900481019282620002fd576000855562000349565b82601f106200031857805160ff191683800117855562000349565b8280016001018555821562000349579182015b82811115620003485782518255916020019190600101906200032b565b5b5090506200035891906200035c565b5090565b5b80821115620003775760008160009055506001016200035d565b5090565b6000620003926200038c8462000500565b620004d7565b905082815260208101848484011115620003ab57600080fd5b620003b884828562000547565b509392505050565b600082601f830112620003d257600080fd5b8151620003e48482602086016200037b565b91505092915050565b6000806000606084860312156200040357600080fd5b600084015167ffffffffffffffff8111156200041e57600080fd5b6200042c86828701620003c0565b935050602084015167ffffffffffffffff8111156200044a57600080fd5b6200045886828701620003c0565b925050604084015167ffffffffffffffff8111156200047657600080fd5b6200048486828701620003c0565b9150509250925092565b60006200049d60208362000536565b9150620004aa8262000658565b602082019050919050565b60006020820190508181036000830152620004d0816200048e565b9050919050565b6000620004e3620004f6565b9050620004f18282620005b3565b919050565b6000604051905090565b600067ffffffffffffffff8211156200051e576200051d62000618565b5b620005298262000647565b9050602081019050919050565b600082825260208201905092915050565b60005b83811015620005675780820151818401526020810190506200054a565b8381111562000577576000848401525b50505050565b600060028204905060018216806200059657607f821691505b60208210811415620005ad57620005ac620005e9565b5b50919050565b620005be8262000647565b810181811067ffffffffffffffff82111715620005e057620005df62000618565b5b80604052505050565b7f4e487b7100000000000000000000000000000000000000000000000000000000600052602260045260246000fd5b7f4e487b7100000000000000000000000000000000000000000000000000000000600052604160045260246000fd5b6000601f19601f8301169050919050565b7f4f776e61626c653a2063616c6c6572206973206e6f7420746865206f776e6572600082015250565b61446780620006916000396000f3fe60806040526004361061020f5760003560e01c80635c975abb11610118578063a22cb465116100a0578063d5abeb011161006f578063d5abeb011461077f578063d936547e146107aa578063da3ef23f146107e7578063e985e9c514610810578063f2fde38b1461084d5761020f565b8063a22cb465146106c5578063b88d4fde146106ee578063c668286214610717578063c87b56dd146107425761020f565b8063715018a6116100e7578063715018a6146106135780637f00c7a61461062a5780638da5cb5b1461065357806395d89b411461067e578063a0712d68146106a95761020f565b80635c975abb146105435780636352211e1461056e5780636c0360eb146105ab57806370a08231146105d65761020f565b80632f745c591161019b578063438b63001161016a578063438b63001461044e57806344a0d68a1461048b5780634a4c560d146104b45780634f6ccce7146104dd57806355f804b31461051a5761020f565b80632f745c59146103b557806330cc7ae0146103f25780633ccfd60b1461041b57806342842e0e146104255761020f565b8063095ea7b3116101e2578063095ea7b3146102e257806313faede61461030b57806318160ddd14610336578063239c70ae1461036157806323b872dd1461038c5761020f565b806301ffc9a71461021457806302329a291461025157806306fdde031461027a578063081812fc146102a5575b600080fd5b34801561022057600080fd5b5061023b600480360381019061023691906131fa565b610876565b60405161024891906137ba565b60405180910390f35b34801561025d57600080fd5b50610278600480360381019061027391906131d1565b6108f0565b005b34801561028657600080fd5b5061028f610989565b60405161029c91906137d5565b60405180910390f35b3480156102b157600080fd5b506102cc60048036038101906102c7919061328d565b610a1b565b6040516102d99190613731565b60405180910390f35b3480156102ee57600080fd5b5061030960048036038101906103049190613195565b610aa0565b005b34801561031757600080fd5b50610320610bb8565b60405161032d9190613a37565b60405180910390f35b34801561034257600080fd5b5061034b610bbe565b6040516103589190613a37565b60405180910390f35b34801561036d57600080fd5b50610376610bcb565b6040516103839190613a37565b60405180910390f35b34801561039857600080fd5b506103b360048036038101906103ae919061308f565b610bd1565b005b3480156103c157600080fd5b506103dc60048036038101906103d79190613195565b610c31565b6040516103e99190613a37565b60405180910390f35b3480156103fe57600080fd5b506104196004803603810190610414919061302a565b610cd6565b005b610423610dad565b005b34801561043157600080fd5b5061044c6004803603810190610447919061308f565b610e69565b005b34801561045a57600080fd5b506104756004803603810190610470919061302a565b610e89565b6040516104829190613798565b60405180910390f35b34801561049757600080fd5b506104b260048036038101906104ad919061328d565b610f83565b005b3480156104c057600080fd5b506104db60048036038101906104d6919061302a565b611009565b005b3480156104e957600080fd5b5061050460048036038101906104ff919061328d565b6110e0565b6040516105119190613a37565b60405180910390f35b34801561052657600080fd5b50610541600480360381019061053c919061324c565b611177565b005b34801561054f57600080fd5b5061055861120d565b60405161056591906137ba565b60405180910390f35b34801561057a57600080fd5b506105956004803603810190610590919061328d565b611220565b6040516105a29190613731565b60405180910390f35b3480156105b757600080fd5b506105c06112d2565b6040516105cd91906137d5565b60405180910390f35b3480156105e257600080fd5b506105fd60048036038101906105f8919061302a565b611360565b60405161060a9190613a37565b60405180910390f35b34801561061f57600080fd5b50610628611418565b005b34801561063657600080fd5b50610651600480360381019061064c919061328d565b6114a0565b005b34801561065f57600080fd5b50610668611526565b6040516106759190613731565b60405180910390f35b34801561068a57600080fd5b50610693611550565b6040516106a091906137d5565b60405180910390f35b6106c360048036038101906106be919061328d565b6115e2565b005b3480156106d157600080fd5b506106ec60048036038101906106e79190613159565b611727565b005b3480156106fa57600080fd5b50610715600480360381019061071091906130de565b61173d565b005b34801561072357600080fd5b5061072c61179f565b60405161073991906137d5565b60405180910390f35b34801561074e57600080fd5b506107696004803603810190610764919061328d565b61182d565b60405161077691906137d5565b60405180910390f35b34801561078b57600080fd5b506107946118d7565b6040516107a19190613a37565b60405180910390f35b3480156107b657600080fd5b506107d160048036038101906107cc919061302a565b6118dd565b6040516107de91906137ba565b60405180910390f35b3480156107f357600080fd5b5061080e6004803603810190610809919061324c565b6118fd565b005b34801561081c57600080fd5b5061083760048036038101906108329190613053565b611993565b60405161084491906137ba565b60405180910390f35b34801561085957600080fd5b50610874600480360381019061086f919061302a565b611a27565b005b60007f780e9d63000000000000000000000000000000000000000000000000000000007bffffffffffffffffffffffffffffffffffffffffffffffffffffffff1916827bffffffffffffffffffffffffffffffffffffffffffffffffffffffff191614806108e957506108e882611b1f565b5b9050919050565b6108f8611c01565b73ffffffffffffffffffffffffffffffffffffffff16610916611526565b73ffffffffffffffffffffffffffffffffffffffff161461096c576040517f08c379a000000000000000000000000000000000000000000000000000000000815260040161096390613997565b60405180910390fd5b80601060006101000a81548160ff02191690831515021790555050565b60606000805461099890613d35565b80601f01602080910402602001604051908101604052809291908181526020018280546109c490613d35565b8015610a115780601f106109e657610100808354040283529160200191610a11565b820191906000526020600020905b8154815290600101906020018083116109f457829003601f168201915b5050505050905090565b6000610a2682611c09565b610a65576040517f08c379a0000000000000000000000000000000000000000000000000000000008152600401610a5c90613977565b60405180910390fd5b6004600083815260200190815260200160002060009054906101000a900473ffffffffffffffffffffffffffffffffffffffff169050919050565b6000610aab82611220565b90508073ffffffffffffffffffffffffffffffffffffffff168373ffffffffffffffffffffffffffffffffffffffff161415610b1c576040517f08c379a0000000000000000000000000000000000000000000000000000000008152600401610b13906139d7565b60405180910390fd5b8073ffffffffffffffffffffffffffffffffffffffff16610b3b611c01565b73ffffffffffffffffffffffffffffffffffffffff161480610b6a5750610b6981610b64611c01565b611993565b5b610ba9576040517f08c379a0000000000000000000000000000000000000000000000000000000008152600401610ba0906138f7565b60405180910390fd5b610bb38383611c75565b505050565b600d5481565b6000600880549050905090565b600f5481565b610be2610bdc611c01565b82611d2e565b610c21576040517f08c379a0000000000000000000000000000000000000000000000000000000008152600401610c18906139f7565b60405180910390fd5b610c2c838383611e0c565b505050565b6000610c3c83611360565b8210610c7d576040517f08c379a0000000000000000000000000000000000000000000000000000000008152600401610c74906137f7565b60405180910390fd5b600660008473ffffffffffffffffffffffffffffffffffffffff1673ffffffffffffffffffffffffffffffffffffffff168152602001908152602001600020600083815260200190815260200160002054905092915050565b610cde611c01565b73ffffffffffffffffffffffffffffffffffffffff16610cfc611526565b73ffffffffffffffffffffffffffffffffffffffff1614610d52576040517f08c379a0000000000000000000000000000000000000000000000000000000008152600401610d4990613997565b60405180910390fd5b6000601160008373ffffffffffffffffffffffffffffffffffffffff1673ffffffffffffffffffffffffffffffffffffffff16815260200190815260200160002060006101000a81548160ff02191690831515021790555050565b610db5611c01565b73ffffffffffffffffffffffffffffffffffffffff16610dd3611526565b73ffffffffffffffffffffffffffffffffffffffff1614610e29576040517f08c379a0000000000000000000000000000000000000000000000000000000008152600401610e2090613997565b60405180910390fd5b3373ffffffffffffffffffffffffffffffffffffffff166108fc479081150290604051600060405180830381858888f19350505050610e6757600080fd5b565b610e848383836040518060200160405280600081525061173d565b505050565b60606000610e9683611360565b905060008167ffffffffffffffff811115610eda577f4e487b7100000000000000000000000000000000000000000000000000000000600052604160045260246000fd5b604051908082528060200260200182016040528015610f085781602001602082028036833780820191505090505b50905060005b82811015610f7857610f208582610c31565b828281518110610f59577f4e487b7100000000000000000000000000000000000000000000000000000000600052603260045260246000fd5b6020026020010181815250508080610f7090613d98565b915050610f0e565b508092505050919050565b610f8b611c01565b73ffffffffffffffffffffffffffffffffffffffff16610fa9611526565b73ffffffffffffffffffffffffffffffffffffffff1614610fff576040517f08c379a0000000000000000000000000000000000000000000000000000000008152600401610ff690613997565b60405180910390fd5b80600d8190555050565b611011611c01565b73ffffffffffffffffffffffffffffffffffffffff1661102f611526565b73ffffffffffffffffffffffffffffffffffffffff1614611085576040517f08c379a000000000000000000000000000000000000000000000000000000000815260040161107c90613997565b60405180910390fd5b6001601160008373ffffffffffffffffffffffffffffffffffffffff1673ffffffffffffffffffffffffffffffffffffffff16815260200190815260200160002060006101000a81548160ff02191690831515021790555050565b60006110ea610bbe565b821061112b576040517f08c379a000000000000000000000000000000000000000000000000000000000815260040161112290613a17565b60405180910390fd5b60088281548110611165577f4e487b7100000000000000000000000000000000000000000000000000000000600052603260045260246000fd5b90600052602060002001549050919050565b61117f611c01565b73ffffffffffffffffffffffffffffffffffffffff1661119d611526565b73ffffffffffffffffffffffffffffffffffffffff16146111f3576040517f08c379a00000000000000000000000000000000000000000000000000000000081526004016111ea90613997565b60405180910390fd5b80600b9080519060200190611209929190612e4e565b5050565b601060009054906101000a900460ff1681565b6000806002600084815260200190815260200160002060009054906101000a900473ffffffffffffffffffffffffffffffffffffffff169050600073ffffffffffffffffffffffffffffffffffffffff168173ffffffffffffffffffffffffffffffffffffffff1614156112c9576040517f08c379a00000000000000000000000000000000000000000000000000000000081526004016112c090613937565b60405180910390fd5b80915050919050565b600b80546112df90613d35565b80601f016020809104026020016040519081016040528092919081815260200182805461130b90613d35565b80156113585780601f1061132d57610100808354040283529160200191611358565b820191906000526020600020905b81548152906001019060200180831161133b57829003601f168201915b505050505081565b60008073ffffffffffffffffffffffffffffffffffffffff168273ffffffffffffffffffffffffffffffffffffffff1614156113d1576040517f08c379a00000000000000000000000000000000000000000000000000000000081526004016113c890613917565b60405180910390fd5b600360008373ffffffffffffffffffffffffffffffffffffffff1673ffffffffffffffffffffffffffffffffffffffff168152602001908152602001600020549050919050565b611420611c01565b73ffffffffffffffffffffffffffffffffffffffff1661143e611526565b73ffffffffffffffffffffffffffffffffffffffff1614611494576040517f08c379a000000000000000000000000000000000000000000000000000000000815260040161148b90613997565b60405180910390fd5b61149e6000612073565b565b6114a8611c01565b73ffffffffffffffffffffffffffffffffffffffff166114c6611526565b73ffffffffffffffffffffffffffffffffffffffff161461151c576040517f08c379a000000000000000000000000000000000000000000000000000000000815260040161151390613997565b60405180910390fd5b80600f8190555050565b6000600a60009054906101000a900473ffffffffffffffffffffffffffffffffffffffff16905090565b60606001805461155f90613d35565b80601f016020809104026020016040519081016040528092919081815260200182805461158b90613d35565b80156115d85780601f106115ad576101008083540402835291602001916115d8565b820191906000526020600020905b8154815290600101906020018083116115bb57829003601f168201915b5050505050905090565b60006115ec610bbe565b9050601060009054906101000a900460ff161561160857600080fd5b6000821161161557600080fd5b600f5482111561162457600080fd5b600e5482826116339190613b6a565b111561163e57600080fd5b611646611526565b73ffffffffffffffffffffffffffffffffffffffff163373ffffffffffffffffffffffffffffffffffffffff16146116ec5760011515601160003373ffffffffffffffffffffffffffffffffffffffff1673ffffffffffffffffffffffffffffffffffffffff16815260200190815260200160002060009054906101000a900460ff161515146116eb5781600d546116de9190613bf1565b3410156116ea57600080fd5b5b5b6000600190505b8281116117225761170f33828461170a9190613b6a565b612139565b808061171a90613d98565b9150506116f3565b505050565b611739611732611c01565b8383612157565b5050565b61174e611748611c01565b83611d2e565b61178d576040517f08c379a0000000000000000000000000000000000000000000000000000000008152600401611784906139f7565b60405180910390fd5b611799848484846122c4565b50505050565b600c80546117ac90613d35565b80601f01602080910402602001604051908101604052809291908181526020018280546117d890613d35565b80156118255780601f106117fa57610100808354040283529160200191611825565b820191906000526020600020905b81548152906001019060200180831161180857829003601f168201915b505050505081565b606061183882611c09565b611877576040517f08c379a000000000000000000000000000000000000000000000000000000000815260040161186e906139b7565b60405180910390fd5b6000611881612320565b905060008151116118a157604051806020016040528060008152506118cf565b806118ab846123b2565b600c6040516020016118bf93929190613700565b6040516020818303038152906040525b915050919050565b600e5481565b60116020528060005260406000206000915054906101000a900460ff1681565b611905611c01565b73ffffffffffffffffffffffffffffffffffffffff16611923611526565b73ffffffffffffffffffffffffffffffffffffffff1614611979576040517f08c379a000000000000000000000000000000000000000000000000000000000815260040161197090613997565b60405180910390fd5b80600c908051906020019061198f929190612e4e565b5050565b6000600560008473ffffffffffffffffffffffffffffffffffffffff1673ffffffffffffffffffffffffffffffffffffffff16815260200190815260200160002060008373ffffffffffffffffffffffffffffffffffffffff1673ffffffffffffffffffffffffffffffffffffffff16815260200190815260200160002060009054906101000a900460ff16905092915050565b611a2f611c01565b73ffffffffffffffffffffffffffffffffffffffff16611a4d611526565b73ffffffffffffffffffffffffffffffffffffffff1614611aa3576040517f08c379a0000000000000000000000000000000000000000000000000000000008152600401611a9a90613997565b60405180910390fd5b600073ffffffffffffffffffffffffffffffffffffffff168173ffffffffffffffffffffffffffffffffffffffff161415611b13576040517f08c379a0000000000000000000000000000000000000000000000000000000008152600401611b0a90613837565b60405180910390fd5b611b1c81612073565b50565b60007f80ac58cd000000000000000000000000000000000000000000000000000000007bffffffffffffffffffffffffffffffffffffffffffffffffffffffff1916827bffffffffffffffffffffffffffffffffffffffffffffffffffffffff19161480611bea57507f5b5e139f000000000000000000000000000000000000000000000000000000007bffffffffffffffffffffffffffffffffffffffffffffffffffffffff1916827bffffffffffffffffffffffffffffffffffffffffffffffffffffffff1916145b80611bfa5750611bf98261255f565b5b9050919050565b600033905090565b60008073ffffffffffffffffffffffffffffffffffffffff166002600084815260200190815260200160002060009054906101000a900473ffffffffffffffffffffffffffffffffffffffff1673ffffffffffffffffffffffffffffffffffffffff1614159050919050565b816004600083815260200190815260200160002060006101000a81548173ffffffffffffffffffffffffffffffffffffffff021916908373ffffffffffffffffffffffffffffffffffffffff160217905550808273ffffffffffffffffffffffffffffffffffffffff16611ce883611220565b73ffffffffffffffffffffffffffffffffffffffff167f8c5be1e5ebec7d5bd14f71427d1e84f3dd0314c0f7b2291e5b200ac8c7c3b92560405160405180910390a45050565b6000611d3982611c09565b611d78576040517f08c379a0000000000000000000000000000000000000000000000000000000008152600401611d6f906138d7565b60405180910390fd5b6000611d8383611220565b90508073ffffffffffffffffffffffffffffffffffffffff168473ffffffffffffffffffffffffffffffffffffffff161480611df257508373ffffffffffffffffffffffffffffffffffffffff16611dda84610a1b565b73ffffffffffffffffffffffffffffffffffffffff16145b80611e035750611e028185611993565b5b91505092915050565b8273ffffffffffffffffffffffffffffffffffffffff16611e2c82611220565b73ffffffffffffffffffffffffffffffffffffffff1614611e82576040517f08c379a0000000000000000000000000000000000000000000000000000000008152600401611e7990613857565b60405180910390fd5b600073ffffffffffffffffffffffffffffffffffffffff168273ffffffffffffffffffffffffffffffffffffffff161415611ef2576040517f08c379a0000000000000000000000000000000000000000000000000000000008152600401611ee990613897565b60405180910390fd5b611efd8383836125c9565b611f08600082611c75565b6001600360008573ffffffffffffffffffffffffffffffffffffffff1673ffffffffffffffffffffffffffffffffffffffff1681526020019081526020016000206000828254611f589190613c4b565b925050819055506001600360008473ffffffffffffffffffffffffffffffffffffffff1673ffffffffffffffffffffffffffffffffffffffff1681526020019081526020016000206000828254611faf9190613b6a565b92505081905550816002600083815260200190815260200160002060006101000a81548173ffffffffffffffffffffffffffffffffffffffff021916908373ffffffffffffffffffffffffffffffffffffffff160217905550808273ffffffffffffffffffffffffffffffffffffffff168473ffffffffffffffffffffffffffffffffffffffff167fddf252ad1be2c89b69c2b068fc378daa952ba7f163c4a11628f55a4df523b3ef60405160405180910390a461206e8383836126dd565b505050565b6000600a60009054906101000a900473ffffffffffffffffffffffffffffffffffffffff16905081600a60006101000a81548173ffffffffffffffffffffffffffffffffffffffff021916908373ffffffffffffffffffffffffffffffffffffffff1602179055508173ffffffffffffffffffffffffffffffffffffffff168173ffffffffffffffffffffffffffffffffffffffff167f8be0079c531659141344cd1fd0a4f28419497f9722a3daafe3b4186f6b6457e060405160405180910390a35050565b6121538282604051806020016040528060008152506126e2565b5050565b8173ffffffffffffffffffffffffffffffffffffffff168373ffffffffffffffffffffffffffffffffffffffff1614156121c6576040517f08c379a00000000000000000000000000000000000000000000000000000000081526004016121bd906138b7565b60405180910390fd5b80600560008573ffffffffffffffffffffffffffffffffffffffff1673ffffffffffffffffffffffffffffffffffffffff16815260200190815260200160002060008473ffffffffffffffffffffffffffffffffffffffff1673ffffffffffffffffffffffffffffffffffffffff16815260200190815260200160002060006101000a81548160ff0219169083151502179055508173ffffffffffffffffffffffffffffffffffffffff168373ffffffffffffffffffffffffffffffffffffffff167f17307eab39ab6107e8899845ad3d59bd9653f200f220920489ca2b5937696c31836040516122b791906137ba565b60405180910390a3505050565b6122cf848484611e0c565b6122db8484848461273d565b61231a576040517f08c379a000000000000000000000000000000000000000000000000000000000815260040161231190613817565b60405180910390fd5b50505050565b6060600b805461232f90613d35565b80601f016020809104026020016040519081016040528092919081815260200182805461235b90613d35565b80156123a85780601f1061237d576101008083540402835291602001916123a8565b820191906000526020600020905b81548152906001019060200180831161238b57829003601f168201915b5050505050905090565b606060008214156123fa576040518060400160405280600181526020017f3000000000000000000000000000000000000000000000000000000000000000815250905061255a565b600082905060005b6000821461242c57808061241590613d98565b915050600a826124259190613bc0565b9150612402565b60008167ffffffffffffffff81111561246e577f4e487b7100000000000000000000000000000000000000000000000000000000600052604160045260246000fd5b6040519080825280601f01601f1916602001820160405280156124a05781602001600182028036833780820191505090505b5090505b60008514612553576001826124b99190613c4b565b9150600a856124c89190613de1565b60306124d49190613b6a565b60f81b818381518110612510577f4e487b7100000000000000000000000000000000000000000000000000000000600052603260045260246000fd5b60200101907effffffffffffffffffffffffffffffffffffffffffffffffffffffffffffff1916908160001a905350600a8561254c9190613bc0565b94506124a4565b8093505050505b919050565b60007f01ffc9a7000000000000000000000000000000000000000000000000000000007bffffffffffffffffffffffffffffffffffffffffffffffffffffffff1916827bffffffffffffffffffffffffffffffffffffffffffffffffffffffff1916149050919050565b6125d48383836128d4565b600073ffffffffffffffffffffffffffffffffffffffff168373ffffffffffffffffffffffffffffffffffffffff16141561261757612612816128d9565b612656565b8173ffffffffffffffffffffffffffffffffffffffff168373ffffffffffffffffffffffffffffffffffffffff1614612655576126548382612922565b5b5b600073ffffffffffffffffffffffffffffffffffffffff168273ffffffffffffffffffffffffffffffffffffffff1614156126995761269481612a8f565b6126d8565b8273ffffffffffffffffffffffffffffffffffffffff168273ffffffffffffffffffffffffffffffffffffffff16146126d7576126d68282612bd2565b5b5b505050565b505050565b6126ec8383612c51565b6126f9600084848461273d565b612738576040517f08c379a000000000000000000000000000000000000000000000000000000000815260040161272f90613817565b60405180910390fd5b505050565b600061275e8473ffffffffffffffffffffffffffffffffffffffff16612e2b565b156128c7578373ffffffffffffffffffffffffffffffffffffffff1663150b7a02612787611c01565b8786866040518563ffffffff1660e01b81526004016127a9949392919061374c565b602060405180830381600087803b1580156127c357600080fd5b505af19250505080156127f457506040513d601f19601f820116820180604052508101906127f19190613223565b60015b612877573d8060008114612824576040519150601f19603f3d011682016040523d82523d6000602084013e612829565b606091505b5060008151141561286f576040517f08c379a000000000000000000000000000000000000000000000000000000000815260040161286690613817565b60405180910390fd5b805181602001fd5b63150b7a0260e01b7bffffffffffffffffffffffffffffffffffffffffffffffffffffffff1916817bffffffffffffffffffffffffffffffffffffffffffffffffffffffff1916149150506128cc565b600190505b949350505050565b505050565b6008805490506009600083815260200190815260200160002081905550600881908060018154018082558091505060019003906000526020600020016000909190919091505550565b6000600161292f84611360565b6129399190613c4b565b9050600060076000848152602001908152602001600020549050818114612a1e576000600660008673ffffffffffffffffffffffffffffffffffffffff1673ffffffffffffffffffffffffffffffffffffffff168152602001908152602001600020600084815260200190815260200160002054905080600660008773ffffffffffffffffffffffffffffffffffffffff1673ffffffffffffffffffffffffffffffffffffffff168152602001908152602001600020600084815260200190815260200160002081905550816007600083815260200190815260200160002081905550505b6007600084815260200190815260200160002060009055600660008573ffffffffffffffffffffffffffffffffffffffff1673ffffffffffffffffffffffffffffffffffffffff16815260200190815260200160002060008381526020019081526020016000206000905550505050565b60006001600880549050612aa39190613c4b565b9050600060096000848152602001908152602001600020549050600060088381548110612af9577f4e487b7100000000000000000000000000000000000000000000000000000000600052603260045260246000fd5b906000526020600020015490508060088381548110612b41577f4e487b7100000000000000000000000000000000000000000000000000000000600052603260045260246000fd5b906000526020600020018190555081600960008381526020019081526020016000208190555060096000858152602001908152602001600020600090556008805480612bb6577f4e487b7100000000000000000000000000000000000000000000000000000000600052603160045260246000fd5b6001900381819060005260206000200160009055905550505050565b6000612bdd83611360565b905081600660008573ffffffffffffffffffffffffffffffffffffffff1673ffffffffffffffffffffffffffffffffffffffff168152602001908152602001600020600083815260200190815260200160002081905550806007600084815260200190815260200160002081905550505050565b600073ffffffffffffffffffffffffffffffffffffffff168273ffffffffffffffffffffffffffffffffffffffff161415612cc1576040517f08c379a0000000000000000000000000000000000000000000000000000000008152600401612cb890613957565b60405180910390fd5b612cca81611c09565b15612d0a576040517f08c379a0000000000000000000000000000000000000000000000000000000008152600401612d0190613877565b60405180910390fd5b612d16600083836125c9565b6001600360008473ffffffffffffffffffffffffffffffffffffffff1673ffffffffffffffffffffffffffffffffffffffff1681526020019081526020016000206000828254612d669190613b6a565b92505081905550816002600083815260200190815260200160002060006101000a81548173ffffffffffffffffffffffffffffffffffffffff021916908373ffffffffffffffffffffffffffffffffffffffff160217905550808273ffffffffffffffffffffffffffffffffffffffff16600073ffffffffffffffffffffffffffffffffffffffff167fddf252ad1be2c89b69c2b068fc378daa952ba7f163c4a11628f55a4df523b3ef60405160405180910390a4612e27600083836126dd565b5050565b6000808273ffffffffffffffffffffffffffffffffffffffff163b119050919050565b828054612e5a90613d35565b90600052602060002090601f016020900481019282612e7c5760008555612ec3565b82601f10612e9557805160ff1916838001178555612ec3565b82800160010185558215612ec3579182015b82811115612ec2578251825591602001919060010190612ea7565b5b509050612ed09190612ed4565b5090565b5b80821115612eed576000816000905550600101612ed5565b5090565b6000612f04612eff84613a77565b613a52565b905082815260208101848484011115612f1c57600080fd5b612f27848285613cf3565b509392505050565b6000612f42612f3d84613aa8565b613a52565b905082815260208101848484011115612f5a57600080fd5b612f65848285613cf3565b509392505050565b600081359050612f7c816143d5565b92915050565b600081359050612f91816143ec565b92915050565b600081359050612fa681614403565b92915050565b600081519050612fbb81614403565b92915050565b600082601f830112612fd257600080fd5b8135612fe2848260208601612ef1565b91505092915050565b600082601f830112612ffc57600080fd5b813561300c848260208601612f2f565b91505092915050565b6000813590506130248161441a565b92915050565b60006020828403121561303c57600080fd5b600061304a84828501612f6d565b91505092915050565b6000806040838503121561306657600080fd5b600061307485828601612f6d565b925050602061308585828601612f6d565b9150509250929050565b6000806000606084860312156130a457600080fd5b60006130b286828701612f6d565b93505060206130c386828701612f6d565b92505060406130d486828701613015565b9150509250925092565b600080600080608085870312156130f457600080fd5b600061310287828801612f6d565b945050602061311387828801612f6d565b935050604061312487828801613015565b925050606085013567ffffffffffffffff81111561314157600080fd5b61314d87828801612fc1565b91505092959194509250565b6000806040838503121561316c57600080fd5b600061317a85828601612f6d565b925050602061318b85828601612f82565b9150509250929050565b600080604083850312156131a857600080fd5b60006131b685828601612f6d565b92505060206131c785828601613015565b9150509250929050565b6000602082840312156131e357600080fd5b60006131f184828501612f82565b91505092915050565b60006020828403121561320c57600080fd5b600061321a84828501612f97565b91505092915050565b60006020828403121561323557600080fd5b600061324384828501612fac565b91505092915050565b60006020828403121561325e57600080fd5b600082013567ffffffffffffffff81111561327857600080fd5b61328484828501612feb565b91505092915050565b60006020828403121561329f57600080fd5b60006132ad84828501613015565b91505092915050565b60006132c283836136e2565b60208301905092915050565b6132d781613c7f565b82525050565b60006132e882613afe565b6132f28185613b2c565b93506132fd83613ad9565b8060005b8381101561332e57815161331588826132b6565b975061332083613b1f565b925050600181019050613301565b5085935050505092915050565b61334481613c91565b82525050565b600061335582613b09565b61335f8185613b3d565b935061336f818560208601613d02565b61337881613ece565b840191505092915050565b600061338e82613b14565b6133988185613b4e565b93506133a8818560208601613d02565b6133b181613ece565b840191505092915050565b60006133c782613b14565b6133d18185613b5f565b93506133e1818560208601613d02565b80840191505092915050565b600081546133fa81613d35565b6134048186613b5f565b9450600182166000811461341f576001811461343057613463565b60ff19831686528186019350613463565b61343985613ae9565b60005b8381101561345b5781548189015260018201915060208101905061343c565b838801955050505b50505092915050565b6000613479602b83613b4e565b915061348482613edf565b604082019050919050565b600061349c603283613b4e565b91506134a782613f2e565b604082019050919050565b60006134bf602683613b4e565b91506134ca82613f7d565b604082019050919050565b60006134e2602583613b4e565b91506134ed82613fcc565b604082019050919050565b6000613505601c83613b4e565b91506135108261401b565b602082019050919050565b6000613528602483613b4e565b915061353382614044565b604082019050919050565b600061354b601983613b4e565b915061355682614093565b602082019050919050565b600061356e602c83613b4e565b9150613579826140bc565b604082019050919050565b6000613591603883613b4e565b915061359c8261410b565b604082019050919050565b60006135b4602a83613b4e565b91506135bf8261415a565b604082019050919050565b60006135d7602983613b4e565b91506135e2826141a9565b604082019050919050565b60006135fa602083613b4e565b9150613605826141f8565b602082019050919050565b600061361d602c83613b4e565b915061362882614221565b604082019050919050565b6000613640602083613b4e565b915061364b82614270565b602082019050919050565b6000613663602f83613b4e565b915061366e82614299565b604082019050919050565b6000613686602183613b4e565b9150613691826142e8565b604082019050919050565b60006136a9603183613b4e565b91506136b482614337565b604082019050919050565b60006136cc602c83613b4e565b91506136d782614386565b604082019050919050565b6136eb81613ce9565b82525050565b6136fa81613ce9565b82525050565b600061370c82866133bc565b915061371882856133bc565b915061372482846133ed565b9150819050949350505050565b600060208201905061374660008301846132ce565b92915050565b600060808201905061376160008301876132ce565b61376e60208301866132ce565b61377b60408301856136f1565b818103606083015261378d818461334a565b905095945050505050565b600060208201905081810360008301526137b281846132dd565b905092915050565b60006020820190506137cf600083018461333b565b92915050565b600060208201905081810360008301526137ef8184613383565b905092915050565b600060208201905081810360008301526138108161346c565b9050919050565b600060208201905081810360008301526138308161348f565b9050919050565b60006020820190508181036000830152613850816134b2565b9050919050565b60006020820190508181036000830152613870816134d5565b9050919050565b60006020820190508181036000830152613890816134f8565b9050919050565b600060208201905081810360008301526138b08161351b565b9050919050565b600060208201905081810360008301526138d08161353e565b9050919050565b600060208201905081810360008301526138f081613561565b9050919050565b6000602082019050818103600083015261391081613584565b9050919050565b60006020820190508181036000830152613930816135a7565b9050919050565b60006020820190508181036000830152613950816135ca565b9050919050565b60006020820190508181036000830152613970816135ed565b9050919050565b6000602082019050818103600083015261399081613610565b9050919050565b600060208201905081810360008301526139b081613633565b9050919050565b600060208201905081810360008301526139d081613656565b9050919050565b600060208201905081810360008301526139f081613679565b9050919050565b60006020820190508181036000830152613a108161369c565b9050919050565b60006020820190508181036000830152613a30816136bf565b9050919050565b6000602082019050613a4c60008301846136f1565b92915050565b6000613a5c613a6d565b9050613a688282613d67565b919050565b6000604051905090565b600067ffffffffffffffff821115613a9257613a91613e9f565b5b613a9b82613ece565b9050602081019050919050565b600067ffffffffffffffff821115613ac357613ac2613e9f565b5b613acc82613ece565b9050602081019050919050565b6000819050602082019050919050565b60008190508160005260206000209050919050565b600081519050919050565b600081519050919050565b600081519050919050565b6000602082019050919050565b600082825260208201905092915050565b600082825260208201905092915050565b600082825260208201905092915050565b600081905092915050565b6000613b7582613ce9565b9150613b8083613ce9565b9250827fffffffffffffffffffffffffffffffffffffffffffffffffffffffffffffffff03821115613bb557613bb4613e12565b5b828201905092915050565b6000613bcb82613ce9565b9150613bd683613ce9565b925082613be657613be5613e41565b5b828204905092915050565b6000613bfc82613ce9565b9150613c0783613ce9565b9250817fffffffffffffffffffffffffffffffffffffffffffffffffffffffffffffffff0483118215151615613c4057613c3f613e12565b5b828202905092915050565b6000613c5682613ce9565b9150613c6183613ce9565b925082821015613c7457613c73613e12565b5b828203905092915050565b6000613c8a82613cc9565b9050919050565b60008115159050919050565b60007fffffffff0000000000000000000000000000000000000000000000000000000082169050919050565b600073ffffffffffffffffffffffffffffffffffffffff82169050919050565b6000819050919050565b82818337600083830152505050565b60005b83811015613d20578082015181840152602081019050613d05565b83811115613d2f576000848401525b50505050565b60006002820490506001821680613d4d57607f821691505b60208210811415613d6157613d60613e70565b5b50919050565b613d7082613ece565b810181811067ffffffffffffffff82111715613d8f57613d8e613e9f565b5b80604052505050565b6000613da382613ce9565b91507fffffffffffffffffffffffffffffffffffffffffffffffffffffffffffffffff821415613dd657613dd5613e12565b5b600182019050919050565b6000613dec82613ce9565b9150613df783613ce9565b925082613e0757613e06613e41565b5b828206905092915050565b7f4e487b7100000000000000000000000000000000000000000000000000000000600052601160045260246000fd5b7f4e487b7100000000000000000000000000000000000000000000000000000000600052601260045260246000fd5b7f4e487b7100000000000000000000000000000000000000000000000000000000600052602260045260246000fd5b7f4e487b7100000000000000000000000000000000000000000000000000000000600052604160045260246000fd5b6000601f19601f8301169050919050565b7f455243373231456e756d657261626c653a206f776e657220696e646578206f7560008201527f74206f6620626f756e6473000000000000000000000000000000000000000000602082015250565b7f4552433732313a207472616e7366657220746f206e6f6e20455243373231526560008201527f63656976657220696d706c656d656e7465720000000000000000000000000000602082015250565b7f4f776e61626c653a206e6577206f776e657220697320746865207a65726f206160008201527f6464726573730000000000000000000000000000000000000000000000000000602082015250565b7f4552433732313a207472616e736665722066726f6d20696e636f72726563742060008201527f6f776e6572000000000000000000000000000000000000000000000000000000602082015250565b7f4552433732313a20746f6b656e20616c7265616479206d696e74656400000000600082015250565b7f4552433732313a207472616e7366657220746f20746865207a65726f2061646460008201527f7265737300000000000000000000000000000000000000000000000000000000602082015250565b7f4552433732313a20617070726f766520746f2063616c6c657200000000000000600082015250565b7f4552433732313a206f70657261746f7220717565727920666f72206e6f6e657860008201527f697374656e7420746f6b656e0000000000000000000000000000000000000000602082015250565b7f4552433732313a20617070726f76652063616c6c6572206973206e6f74206f7760008201527f6e6572206e6f7220617070726f76656420666f7220616c6c0000000000000000602082015250565b7f4552433732313a2062616c616e636520717565727920666f7220746865207a6560008201527f726f206164647265737300000000000000000000000000000000000000000000602082015250565b7f4552433732313a206f776e657220717565727920666f72206e6f6e657869737460008201527f656e7420746f6b656e0000000000000000000000000000000000000000000000602082015250565b7f4552433732313a206d696e7420746f20746865207a65726f2061646472657373600082015250565b7f4552433732313a20617070726f76656420717565727920666f72206e6f6e657860008201527f697374656e7420746f6b656e0000000000000000000000000000000000000000602082015250565b7f4f776e61626c653a2063616c6c6572206973206e6f7420746865206f776e6572600082015250565b7f4552433732314d657461646174613a2055524920717565727920666f72206e6f60008201527f6e6578697374656e7420746f6b656e0000000000000000000000000000000000602082015250565b7f4552433732313a20617070726f76616c20746f2063757272656e74206f776e6560008201527f7200000000000000000000000000000000000000000000000000000000000000602082015250565b7f4552433732313a207472616e736665722063616c6c6572206973206e6f74206f60008201527f776e6572206e6f7220617070726f766564000000000000000000000000000000602082015250565b7f455243373231456e756d657261626c653a20676c6f62616c20696e646578206f60008201527f7574206f6620626f756e64730000000000000000000000000000000000000000602082015250565b6143de81613c7f565b81146143e957600080fd5b50565b6143f581613c91565b811461440057600080fd5b50565b61440c81613c9d565b811461441757600080fd5b50565b61442381613ce9565b811461442e57600080fd5b5056fea26469706673582212204be2ede7093d1fa171586e60f5815d47ddc5ad57e97f0854dccbb27df0d1a51c64736f6c63430008040033",
  "linkReferences": {},
  "deployedLinkReferences": {}
}