{
  "_format": "hh-sol-artifact-1",
  "contractName": "DrinkingTreesBank",
  "sourceName": "contracts/DrinkingTreesBank.sol",
  "abi": [
    {
      "inputs": [
        {
          "internalType": "address",
          "name": "_miriamAddress",
          "type": "address"
        },
        {
          "internalType": "address",
          "name": "_danAddress",
          "type": "address"
        },
        {
          "internalType": "address",
          "name": "_zachCookAddress",
          "type": "address"
        },
        {
          "internalType": "address",
          "name": "_raymondAddress",
          "type": "address"
        },
        {
          "internalType": "address",
          "name": "_zachComAddress",
          "type": "address"
        },
        {
          "internalType": "address",
          "name": "_charityAddress",
          "type": "address"
        }
      ],
      "stateMutability": "nonpayable",
      "type": "constructor"
    },
    {
      "anonymous": false,
      "inputs": [
        {
          "indexed": false,
          "internalType": "address",
          "name": "",
          "type": "address"
        },
        {
          "indexed": false,
          "internalType": "uint256",
          "name": "",
          "type": "uint256"
        }
      ],
      "name": "Received",
      "type": "event"
    },
    {
      "inputs": [
        {
          "internalType": "string",
          "name": "_username",
          "type": "string"
        },
        {
          "internalType": "address",
          "name": "_newAddress",
          "type": "address"
        }
      ],
      "name": "changeUserAddress",
      "outputs": [],
      "stateMutability": "nonpayable",
      "type": "function"
    },
    {
      "inputs": [],
      "name": "getAdminUser",
      "outputs": [
        {
          "internalType": "bool",
          "name": "",
          "type": "bool"
        }
      ],
      "stateMutability": "view",
      "type": "function"
    },
    {
      "inputs": [],
      "name": "getAllShareHolders",
      "outputs": [
        {
          "components": [
            {
              "internalType": "uint256",
              "name": "id",
              "type": "uint256"
            },
            {
              "internalType": "string",
              "name": "username",
              "type": "string"
            },
            {
              "internalType": "address",
              "name": "wallet",
              "type": "address"
            },
            {
              "internalType": "uint128",
              "name": "equityPercent",
              "type": "uint128"
            }
          ],
          "internalType": "struct DrinkingTreesBank.ShareHolder[]",
          "name": "",
          "type": "tuple[]"
        }
      ],
      "stateMutability": "view",
      "type": "function"
    },
    {
      "inputs": [],
      "name": "shareHolderCount",
      "outputs": [
        {
          "internalType": "uint256",
          "name": "",
          "type": "uint256"
        }
      ],
      "stateMutability": "view",
      "type": "function"
    },
    {
      "inputs": [
        {
          "internalType": "string",
          "name": "",
          "type": "string"
        }
      ],
      "name": "shareHolders",
      "outputs": [
        {
          "internalType": "uint256",
          "name": "id",
          "type": "uint256"
        },
        {
          "internalType": "string",
          "name": "username",
          "type": "string"
        },
        {
          "internalType": "address",
          "name": "wallet",
          "type": "address"
        },
        {
          "internalType": "uint128",
          "name": "equityPercent",
          "type": "uint128"
        }
      ],
      "stateMutability": "view",
      "type": "function"
    },
    {
      "inputs": [],
      "name": "withdraw",
      "outputs": [],
      "stateMutability": "payable",
      "type": "function"
    },
    {
      "stateMutability": "payable",
      "type": "receive"
    }
  ],
  "bytecode": "0x608060405260006001553480156200001657600080fd5b5060405162001a3638038062001a3683398181016040528101906200003c919062000485565b336000806101000a81548173ffffffffffffffffffffffffffffffffffffffff021916908373ffffffffffffffffffffffffffffffffffffffff160217905550620000c66040518060400160405280600681526020017f6d697269616d0000000000000000000000000000000000000000000000000000815250876108346200024460201b60201c565b620001106040518060400160405280600381526020017f64616e0000000000000000000000000000000000000000000000000000000000815250866108346200024460201b60201c565b6200015a6040518060400160405280600881526020017f7a616368636f6f6b000000000000000000000000000000000000000000000000815250856108346200024460201b60201c565b620001a46040518060400160405280600781526020017f7261796d6f6e6400000000000000000000000000000000000000000000000000815250846108346200024460201b60201c565b620001ee6040518060400160405280600781526020017f7a616368636f6d00000000000000000000000000000000000000000000000000815250836102586200024460201b60201c565b620002386040518060400160405280600781526020017f6368617269747900000000000000000000000000000000000000000000000000815250826103e86200024460201b60201c565b505050505050620006f1565b604051806080016040528060015481526020018481526020018373ffffffffffffffffffffffffffffffffffffffff168152602001826fffffffffffffffffffffffffffffffff16815250600484604051620002a1919062000552565b9081526020016040518091039020600082015181600001556020820151816001019080519060200190620002d7929190620003be565b5060408201518160020160006101000a81548173ffffffffffffffffffffffffffffffffffffffff021916908373ffffffffffffffffffffffffffffffffffffffff16021790555060608201518160030160006101000a8154816fffffffffffffffffffffffffffffffff02191690836fffffffffffffffffffffffffffffffff1602179055509050506002839080600181540180825580915050600190039060005260206000200160009091909190915090805190602001906200039e929190620003be565b5060016000815480929190620003b4906200062b565b9190505550505050565b828054620003cc90620005f5565b90600052602060002090601f016020900481019282620003f057600085556200043c565b82601f106200040b57805160ff19168380011785556200043c565b828001600101855582156200043c579182015b828111156200043b5782518255916020019190600101906200041e565b5b5090506200044b91906200044f565b5090565b5b808211156200046a57600081600090555060010162000450565b5090565b6000815190506200047f81620006d7565b92915050565b60008060008060008060c087890312156200049f57600080fd5b6000620004af89828a016200046e565b9650506020620004c289828a016200046e565b9550506040620004d589828a016200046e565b9450506060620004e889828a016200046e565b9350506080620004fb89828a016200046e565b92505060a06200050e89828a016200046e565b9150509295509295509295565b600062000528826200056b565b62000534818562000576565b935062000546818560208601620005bf565b80840191505092915050565b60006200056082846200051b565b915081905092915050565b600081519050919050565b600081905092915050565b60006200058e8262000595565b9050919050565b600073ffffffffffffffffffffffffffffffffffffffff82169050919050565b6000819050919050565b60005b83811015620005df578082015181840152602081019050620005c2565b83811115620005ef576000848401525b50505050565b600060028204905060018216806200060e57607f821691505b60208210811415620006255762000624620006a8565b5b50919050565b60006200063882620005b5565b91507fffffffffffffffffffffffffffffffffffffffffffffffffffffffffffffffff8214156200066e576200066d62000679565b5b600182019050919050565b7f4e487b7100000000000000000000000000000000000000000000000000000000600052601160045260246000fd5b7f4e487b7100000000000000000000000000000000000000000000000000000000600052602260045260246000fd5b620006e28162000581565b8114620006ee57600080fd5b50565b61133580620007016000396000f3fe6080604052600436106100595760003560e01c8063374379631461009e5780633ccfd60b146100c7578063539170b2146100d15780638bd9c294146100fc57806397f49fe91461013c578063d513cc441461016757610099565b36610099577f88a5966d370b9919b20f3e2c13ff65706f196a4e32cc2c12bf57088f88525874333460405161008f929190610e4d565b60405180910390a1005b600080fd5b3480156100aa57600080fd5b506100c560048036038101906100c09190610bc7565b610192565b005b6100cf61028e565b005b3480156100dd57600080fd5b506100e6610484565b6040516100f39190610e76565b60405180910390f35b34801561010857600080fd5b50610123600480360381019061011e9190610b86565b6107be565b6040516101339493929190610eee565b60405180910390f35b34801561014857600080fd5b506101516108c8565b60405161015e9190610ed3565b60405180910390f35b34801561017357600080fd5b5061017c6108ce565b6040516101899190610e98565b60405180910390f35b60006004836040516101a49190610e36565b908152602001604051809103902090503373ffffffffffffffffffffffffffffffffffffffff168160020160009054906101000a900473ffffffffffffffffffffffffffffffffffffffff1673ffffffffffffffffffffffffffffffffffffffff1614610246576040517f08c379a000000000000000000000000000000000000000000000000000000000815260040161023d90610eb3565b60405180910390fd5b818160020160006101000a81548173ffffffffffffffffffffffffffffffffffffffff021916908373ffffffffffffffffffffffffffffffffffffffff160217905550505050565b600047905060005b6002805490508160ff16101561048057600060028260ff16815481106102e5577f4e487b7100000000000000000000000000000000000000000000000000000000600052603260045260246000fd5b9060005260206000200180546102fa9061113f565b80601f01602080910402602001604051908101604052809291908181526020018280546103269061113f565b80156103735780601f1061034857610100808354040283529160200191610373565b820191906000526020600020905b81548152906001019060200180831161035657829003601f168201915b50505050509050600060048260405161038c9190610e36565b908152602001604051809103902060020160009054906101000a900473ffffffffffffffffffffffffffffffffffffffff16905060006004836040516103d29190610e36565b908152602001604051809103902060030160009054906101000a90046fffffffffffffffffffffffffffffffff1690508173ffffffffffffffffffffffffffffffffffffffff166108fc612710836fffffffffffffffffffffffffffffffff168861043d9190611032565b6104479190611001565b9081150290604051600060405180830381858888f1935050505061046a57600080fd5b5050508080610478906111a2565b915050610296565b5050565b6060600060028054905067ffffffffffffffff8111156104cd577f4e487b7100000000000000000000000000000000000000000000000000000000600052604160045260246000fd5b60405190808252806020026020018201604052801561050657816020015b6104f3610ab9565b8152602001906001900390816104eb5790505b50905060005b6002805490508160ff1610156107b657600060028260ff168154811061055b577f4e487b7100000000000000000000000000000000000000000000000000000000600052603260045260246000fd5b9060005260206000200180546105709061113f565b80601f016020809104026020016040519081016040528092919081815260200182805461059c9061113f565b80156105e95780601f106105be576101008083540402835291602001916105e9565b820191906000526020600020905b8154815290600101906020018083116105cc57829003601f168201915b5050505050905060006004826040516106029190610e36565b9081526020016040518091039020905080604051806080016040529081600082015481526020016001820180546106389061113f565b80601f01602080910402602001604051908101604052809291908181526020018280546106649061113f565b80156106b15780601f10610686576101008083540402835291602001916106b1565b820191906000526020600020905b81548152906001019060200180831161069457829003601f168201915b505050505081526020016002820160009054906101000a900473ffffffffffffffffffffffffffffffffffffffff1673ffffffffffffffffffffffffffffffffffffffff1673ffffffffffffffffffffffffffffffffffffffff1681526020016003820160009054906101000a90046fffffffffffffffffffffffffffffffff166fffffffffffffffffffffffffffffffff166fffffffffffffffffffffffffffffffff1681525050848460ff1681518110610796577f4e487b7100000000000000000000000000000000000000000000000000000000600052603260045260246000fd5b6020026020010181905250505080806107ae906111a2565b91505061050c565b508091505090565b6004818051602081018201805184825260208301602085012081835280955050505050506000915090508060000154908060010180546107fd9061113f565b80601f01602080910402602001604051908101604052809291908181526020018280546108299061113f565b80156108765780601f1061084b57610100808354040283529160200191610876565b820191906000526020600020905b81548152906001019060200180831161085957829003601f168201915b5050505050908060020160009054906101000a900473ffffffffffffffffffffffffffffffffffffffff16908060030160009054906101000a90046fffffffffffffffffffffffffffffffff16905084565b60015481565b60008060009054906101000a900473ffffffffffffffffffffffffffffffffffffffff1673ffffffffffffffffffffffffffffffffffffffff163373ffffffffffffffffffffffffffffffffffffffff16141561092e5760019050610ab6565b60005b6002805490508160ff161015610ab057600060028260ff1681548110610980577f4e487b7100000000000000000000000000000000000000000000000000000000600052603260045260246000fd5b9060005260206000200180546109959061113f565b80601f01602080910402602001604051908101604052809291908181526020018280546109c19061113f565b8015610a0e5780601f106109e357610100808354040283529160200191610a0e565b820191906000526020600020905b8154815290600101906020018083116109f157829003601f168201915b505050505090506000600482604051610a279190610e36565b908152602001604051809103902090508060020160009054906101000a900473ffffffffffffffffffffffffffffffffffffffff1673ffffffffffffffffffffffffffffffffffffffff163373ffffffffffffffffffffffffffffffffffffffff161415610a9b5760019350505050610ab6565b50508080610aa8906111a2565b915050610931565b50600090505b90565b60405180608001604052806000815260200160608152602001600073ffffffffffffffffffffffffffffffffffffffff16815260200160006fffffffffffffffffffffffffffffffff1681525090565b6000610b1c610b1784610f5f565b610f3a565b905082815260208101848484011115610b3457600080fd5b610b3f8482856110fd565b509392505050565b600081359050610b56816112e8565b92915050565b600082601f830112610b6d57600080fd5b8135610b7d848260208601610b09565b91505092915050565b600060208284031215610b9857600080fd5b600082013567ffffffffffffffff811115610bb257600080fd5b610bbe84828501610b5c565b91505092915050565b60008060408385031215610bda57600080fd5b600083013567ffffffffffffffff811115610bf457600080fd5b610c0085828601610b5c565b9250506020610c1185828601610b47565b9150509250929050565b6000610c278383610d97565b905092915050565b610c388161108c565b82525050565b610c478161108c565b82525050565b6000610c5882610fa0565b610c628185610fc3565b935083602082028501610c7485610f90565b8060005b85811015610cb05784840389528151610c918582610c1b565b9450610c9c83610fb6565b925060208a01995050600181019050610c78565b50829750879550505050505092915050565b610ccb8161109e565b82525050565b6000610cdc82610fab565b610ce68185610fd4565b9350610cf681856020860161110c565b610cff81611288565b840191505092915050565b6000610d1582610fab565b610d1f8185610fe5565b9350610d2f81856020860161110c565b610d3881611288565b840191505092915050565b6000610d4e82610fab565b610d588185610ff6565b9350610d6881856020860161110c565b80840191505092915050565b6000610d81602d83610fe5565b9150610d8c82611299565b604082019050919050565b6000608083016000830151610daf6000860182610e18565b5060208301518482036020860152610dc78282610cd1565b9150506040830151610ddc6040860182610c2f565b506060830151610def6060860182610dfa565b508091505092915050565b610e03816110aa565b82525050565b610e12816110aa565b82525050565b610e21816110e6565b82525050565b610e30816110e6565b82525050565b6000610e428284610d43565b915081905092915050565b6000604082019050610e626000830185610c3e565b610e6f6020830184610e27565b9392505050565b60006020820190508181036000830152610e908184610c4d565b905092915050565b6000602082019050610ead6000830184610cc2565b92915050565b60006020820190508181036000830152610ecc81610d74565b9050919050565b6000602082019050610ee86000830184610e27565b92915050565b6000608082019050610f036000830187610e27565b8181036020830152610f158186610d0a565b9050610f246040830185610c3e565b610f316060830184610e09565b95945050505050565b6000610f44610f55565b9050610f508282611171565b919050565b6000604051905090565b600067ffffffffffffffff821115610f7a57610f79611259565b5b610f8382611288565b9050602081019050919050565b6000819050602082019050919050565b600081519050919050565b600081519050919050565b6000602082019050919050565b600082825260208201905092915050565b600082825260208201905092915050565b600082825260208201905092915050565b600081905092915050565b600061100c826110e6565b9150611017836110e6565b925082611027576110266111fb565b5b828204905092915050565b600061103d826110e6565b9150611048836110e6565b9250817fffffffffffffffffffffffffffffffffffffffffffffffffffffffffffffffff0483118215151615611081576110806111cc565b5b828202905092915050565b6000611097826110c6565b9050919050565b60008115159050919050565b60006fffffffffffffffffffffffffffffffff82169050919050565b600073ffffffffffffffffffffffffffffffffffffffff82169050919050565b6000819050919050565b600060ff82169050919050565b82818337600083830152505050565b60005b8381101561112a57808201518184015260208101905061110f565b83811115611139576000848401525b50505050565b6000600282049050600182168061115757607f821691505b6020821081141561116b5761116a61122a565b5b50919050565b61117a82611288565b810181811067ffffffffffffffff8211171561119957611198611259565b5b80604052505050565b60006111ad826110f0565b915060ff8214156111c1576111c06111cc565b5b600182019050919050565b7f4e487b7100000000000000000000000000000000000000000000000000000000600052601160045260246000fd5b7f4e487b7100000000000000000000000000000000000000000000000000000000600052601260045260246000fd5b7f4e487b7100000000000000000000000000000000000000000000000000000000600052602260045260246000fd5b7f4e487b7100000000000000000000000000000000000000000000000000000000600052604160045260246000fd5b6000601f19601f8301169050919050565b7f596f752062652075736572206f662074686973206163636f756e7420746f207560008201527f7064617465206164647265737300000000000000000000000000000000000000602082015250565b6112f18161108c565b81146112fc57600080fd5b5056fea26469706673582212203a63745d1fe2eceb920793ef519eaa601078355b5d73a212e776aca63ccd8b2264736f6c63430008040033",
  "linkReferences": {},
  "deployedLinkReferences": {}
}