{
  "_format": "hh-sol-artifact-1",
  "contractName": "DrinkingTreesBank",
  "sourceName": "contracts/DrinkingTreesBank.sol",
  "abi": [
    {
      "inputs": [
        {
          "internalType": "address",
          "name": "_miriamAddress",
          "type": "address"
        },
        {
          "internalType": "address",
          "name": "_danAddress",
          "type": "address"
        },
        {
          "internalType": "address",
          "name": "_zachCookAddress",
          "type": "address"
        },
        {
          "internalType": "address",
          "name": "_raymondAddress",
          "type": "address"
        },
        {
          "internalType": "address",
          "name": "_zachComAddress",
          "type": "address"
        },
        {
          "internalType": "address",
          "name": "_charityAddress",
          "type": "address"
        }
      ],
      "stateMutability": "nonpayable",
      "type": "constructor"
    },
    {
      "anonymous": false,
      "inputs": [
        {
          "indexed": false,
          "internalType": "address",
          "name": "",
          "type": "address"
        },
        {
          "indexed": false,
          "internalType": "uint256",
          "name": "",
          "type": "uint256"
        }
      ],
      "name": "Received",
      "type": "event"
    },
    {
      "inputs": [],
      "name": "getAllShareHolders",
      "outputs": [
        {
          "components": [
            {
              "internalType": "uint256",
              "name": "id",
              "type": "uint256"
            },
            {
              "internalType": "string",
              "name": "username",
              "type": "string"
            },
            {
              "internalType": "address",
              "name": "wallet",
              "type": "address"
            },
            {
              "internalType": "uint128",
              "name": "equityPercent",
              "type": "uint128"
            }
          ],
          "internalType": "struct DrinkingTreesBank.ShareHolder[]",
          "name": "",
          "type": "tuple[]"
        }
      ],
      "stateMutability": "view",
      "type": "function"
    },
    {
      "inputs": [],
      "name": "withdraw",
      "outputs": [],
      "stateMutability": "payable",
      "type": "function"
    },
    {
      "stateMutability": "payable",
      "type": "receive"
    }
  ],
  "bytecode": "0x608060405260006001553480156200001657600080fd5b5060405162001d8038038062001d8083398181016040528101906200003c919062000c91565b336000806101000a81548173ffffffffffffffffffffffffffffffffffffffff021916908373ffffffffffffffffffffffffffffffffffffffff16021790555060016000815480929190620000919062000f1a565b9190505550604051806080016040528060015481526020016040518060400160405280600681526020017f6d697269616d000000000000000000000000000000000000000000000000000081525081526020018773ffffffffffffffffffffffffffffffffffffffff1681526020016108346fffffffffffffffffffffffffffffffff168152506003604051620001289062000e84565b90815260200160405180910390206000820151816000015560208201518160010190805190602001906200015e92919062000bca565b5060408201518160020160006101000a81548173ffffffffffffffffffffffffffffffffffffffff021916908373ffffffffffffffffffffffffffffffffffffffff16021790555060608201518160030160006101000a8154816fffffffffffffffffffffffffffffffff02191690836fffffffffffffffffffffffffffffffff160217905550905050600280600181540180825580915050600190039060005260206000200160006040518060400160405280600681526020017f6d697269616d0000000000000000000000000000000000000000000000000000815250909190915090805190602001906200025792919062000bca565b50600160008154809291906200026d9062000f1a565b9190505550604051806080016040528060015481526020016040518060400160405280600381526020017f64616e000000000000000000000000000000000000000000000000000000000081525081526020018673ffffffffffffffffffffffffffffffffffffffff1681526020016108346fffffffffffffffffffffffffffffffff168152506003604051620003049062000e11565b90815260200160405180910390206000820151816000015560208201518160010190805190602001906200033a92919062000bca565b5060408201518160020160006101000a81548173ffffffffffffffffffffffffffffffffffffffff021916908373ffffffffffffffffffffffffffffffffffffffff16021790555060608201518160030160006101000a8154816fffffffffffffffffffffffffffffffff02191690836fffffffffffffffffffffffffffffffff160217905550905050600280600181540180825580915050600190039060005260206000200160006040518060400160405280600381526020017f64616e0000000000000000000000000000000000000000000000000000000000815250909190915090805190602001906200043392919062000bca565b5060016000815480929190620004499062000f1a565b9190505550604051806080016040528060015481526020016040518060400160405280600881526020017f7a616368636f6f6b00000000000000000000000000000000000000000000000081525081526020018573ffffffffffffffffffffffffffffffffffffffff1681526020016108346fffffffffffffffffffffffffffffffff168152506003604051620004e09062000e56565b90815260200160405180910390206000820151816000015560208201518160010190805190602001906200051692919062000bca565b5060408201518160020160006101000a81548173ffffffffffffffffffffffffffffffffffffffff021916908373ffffffffffffffffffffffffffffffffffffffff16021790555060608201518160030160006101000a8154816fffffffffffffffffffffffffffffffff02191690836fffffffffffffffffffffffffffffffff160217905550905050600280600181540180825580915050600190039060005260206000200160006040518060400160405280600881526020017f7a616368636f6f6b000000000000000000000000000000000000000000000000815250909190915090805190602001906200060f92919062000bca565b5060016000815480929190620006259062000f1a565b9190505550604051806080016040528060015481526020016040518060400160405280600781526020017f7261796d6f6e640000000000000000000000000000000000000000000000000081525081526020018473ffffffffffffffffffffffffffffffffffffffff1681526020016108346fffffffffffffffffffffffffffffffff168152506003604051620006bc9062000e6d565b9081526020016040518091039020600082015181600001556020820151816001019080519060200190620006f292919062000bca565b5060408201518160020160006101000a81548173ffffffffffffffffffffffffffffffffffffffff021916908373ffffffffffffffffffffffffffffffffffffffff16021790555060608201518160030160006101000a8154816fffffffffffffffffffffffffffffffff02191690836fffffffffffffffffffffffffffffffff160217905550905050600280600181540180825580915050600190039060005260206000200160006040518060400160405280600781526020017f7261796d6f6e640000000000000000000000000000000000000000000000000081525090919091509080519060200190620007eb92919062000bca565b5060016000815480929190620008019062000f1a565b9190505550604051806080016040528060015481526020016040518060400160405280600781526020017f7a616368636f6d0000000000000000000000000000000000000000000000000081525081526020018373ffffffffffffffffffffffffffffffffffffffff1681526020016102586fffffffffffffffffffffffffffffffff168152506003604051620008989062000e3f565b9081526020016040518091039020600082015181600001556020820151816001019080519060200190620008ce92919062000bca565b5060408201518160020160006101000a81548173ffffffffffffffffffffffffffffffffffffffff021916908373ffffffffffffffffffffffffffffffffffffffff16021790555060608201518160030160006101000a8154816fffffffffffffffffffffffffffffffff02191690836fffffffffffffffffffffffffffffffff160217905550905050600280600181540180825580915050600190039060005260206000200160006040518060400160405280600781526020017f7a616368636f6d0000000000000000000000000000000000000000000000000081525090919091509080519060200190620009c792919062000bca565b5060016000815480929190620009dd9062000f1a565b9190505550604051806080016040528060015481526020016040518060400160405280600781526020017f636861726974790000000000000000000000000000000000000000000000000081525081526020018273ffffffffffffffffffffffffffffffffffffffff1681526020016103e86fffffffffffffffffffffffffffffffff16815250600360405162000a749062000e28565b908152602001604051809103902060008201518160000155602082015181600101908051906020019062000aaa92919062000bca565b5060408201518160020160006101000a81548173ffffffffffffffffffffffffffffffffffffffff021916908373ffffffffffffffffffffffffffffffffffffffff16021790555060608201518160030160006101000a8154816fffffffffffffffffffffffffffffffff02191690836fffffffffffffffffffffffffffffffff160217905550905050600280600181540180825580915050600190039060005260206000200160006040518060400160405280600781526020017f63686172697479000000000000000000000000000000000000000000000000008152509091909150908051906020019062000ba392919062000bca565b506001600081548092919062000bb99062000f1a565b9190505550505050505050620010d6565b82805462000bd89062000ee4565b90600052602060002090601f01602090048101928262000bfc576000855562000c48565b82601f1062000c1757805160ff191683800117855562000c48565b8280016001018555821562000c48579182015b8281111562000c4757825182559160200191906001019062000c2a565b5b50905062000c57919062000c5b565b5090565b5b8082111562000c7657600081600090555060010162000c5c565b5090565b60008151905062000c8b81620010bc565b92915050565b60008060008060008060c0878903121562000cab57600080fd5b600062000cbb89828a0162000c7a565b965050602062000cce89828a0162000c7a565b955050604062000ce189828a0162000c7a565b945050606062000cf489828a0162000c7a565b935050608062000d0789828a0162000c7a565b92505060a062000d1a89828a0162000c7a565b9150509295509295509295565b600062000d3660038362000e9b565b915062000d438262000fc6565b600382019050919050565b600062000d5d60078362000e9b565b915062000d6a8262000fef565b600782019050919050565b600062000d8460078362000e9b565b915062000d918262001018565b600782019050919050565b600062000dab60088362000e9b565b915062000db88262001041565b600882019050919050565b600062000dd260078362000e9b565b915062000ddf826200106a565b600782019050919050565b600062000df960068362000e9b565b915062000e068262001093565b600682019050919050565b600062000e1e8262000d27565b9150819050919050565b600062000e358262000d4e565b9150819050919050565b600062000e4c8262000d75565b9150819050919050565b600062000e638262000d9c565b9150819050919050565b600062000e7a8262000dc3565b9150819050919050565b600062000e918262000dea565b9150819050919050565b600081905092915050565b600062000eb38262000eba565b9050919050565b600073ffffffffffffffffffffffffffffffffffffffff82169050919050565b6000819050919050565b6000600282049050600182168062000efd57607f821691505b6020821081141562000f145762000f1362000f97565b5b50919050565b600062000f278262000eda565b91507fffffffffffffffffffffffffffffffffffffffffffffffffffffffffffffffff82141562000f5d5762000f5c62000f68565b5b600182019050919050565b7f4e487b7100000000000000000000000000000000000000000000000000000000600052601160045260246000fd5b7f4e487b7100000000000000000000000000000000000000000000000000000000600052602260045260246000fd5b7f64616e0000000000000000000000000000000000000000000000000000000000600082015250565b7f6368617269747900000000000000000000000000000000000000000000000000600082015250565b7f7a616368636f6d00000000000000000000000000000000000000000000000000600082015250565b7f7a616368636f6f6b000000000000000000000000000000000000000000000000600082015250565b7f7261796d6f6e6400000000000000000000000000000000000000000000000000600082015250565b7f6d697269616d0000000000000000000000000000000000000000000000000000600082015250565b620010c78162000ea6565b8114620010d357600080fd5b50565b610c9a80620010e66000396000f3fe60806040526004361061002d5760003560e01c80633ccfd60b14610072578063539170b21461007c5761006d565b3661006d577f88a5966d370b9919b20f3e2c13ff65706f196a4e32cc2c12bf57088f88525874333460405161006392919061095b565b60405180910390a1005b600080fd5b61007a6100a7565b005b34801561008857600080fd5b5061009161031b565b60405161009e9190610984565b60405180910390f35b60004790506100eb6040518060400160405280601981526020017f63757272656e742062616c616e6365206f662062616e6b3a200000000000000081525047610655565b60005b6002805490508160ff1610156102d857600060028260ff168154811061013d577f4e487b7100000000000000000000000000000000000000000000000000000000600052603260045260246000fd5b90600052602060002001805461015290610b6a565b80601f016020809104026020016040519081016040528092919081815260200182805461017e90610b6a565b80156101cb5780601f106101a0576101008083540402835291602001916101cb565b820191906000526020600020905b8154815290600101906020018083116101ae57829003601f168201915b5050505050905060006003826040516101e49190610944565b908152602001604051809103902060020160009054906101000a900473ffffffffffffffffffffffffffffffffffffffff169050600060038360405161022a9190610944565b908152602001604051809103902060030160009054906101000a90046fffffffffffffffffffffffffffffffff1690508173ffffffffffffffffffffffffffffffffffffffff166108fc612710836fffffffffffffffffffffffffffffffff16886102959190610a78565b61029f9190610a47565b9081150290604051600060405180830381858888f193505050506102c257600080fd5b50505080806102d090610b9c565b9150506100ee565b506103186040518060400160405280601581526020017f6e65772062616c616e6365206f662062616e6b3a20000000000000000000000081525047610655565b50565b6060600060028054905067ffffffffffffffff811115610364577f4e487b7100000000000000000000000000000000000000000000000000000000600052604160045260246000fd5b60405190808252806020026020018201604052801561039d57816020015b61038a61071a565b8152602001906001900390816103825790505b50905060005b6002805490508160ff16101561064d57600060028260ff16815481106103f2577f4e487b7100000000000000000000000000000000000000000000000000000000600052603260045260246000fd5b90600052602060002001805461040790610b6a565b80601f016020809104026020016040519081016040528092919081815260200182805461043390610b6a565b80156104805780601f1061045557610100808354040283529160200191610480565b820191906000526020600020905b81548152906001019060200180831161046357829003601f168201915b5050505050905060006003826040516104999190610944565b9081526020016040518091039020905080604051806080016040529081600082015481526020016001820180546104cf90610b6a565b80601f01602080910402602001604051908101604052809291908181526020018280546104fb90610b6a565b80156105485780601f1061051d57610100808354040283529160200191610548565b820191906000526020600020905b81548152906001019060200180831161052b57829003601f168201915b505050505081526020016002820160009054906101000a900473ffffffffffffffffffffffffffffffffffffffff1673ffffffffffffffffffffffffffffffffffffffff1673ffffffffffffffffffffffffffffffffffffffff1681526020016003820160009054906101000a90046fffffffffffffffffffffffffffffffff166fffffffffffffffffffffffffffffffff166fffffffffffffffffffffffffffffffff1681525050848460ff168151811061062d577f4e487b7100000000000000000000000000000000000000000000000000000000600052603260045260246000fd5b60200260200101819052505050808061064590610b9c565b9150506103a3565b508091505090565b6106ed828260405160240161066b9291906109a6565b6040516020818303038152906040527f9710a9d0000000000000000000000000000000000000000000000000000000007bffffffffffffffffffffffffffffffffffffffffffffffffffffffff19166020820180517bffffffffffffffffffffffffffffffffffffffffffffffffffffffff83818316178352505050506106f1565b5050565b60008151905060006a636f6e736f6c652e6c6f679050602083016000808483855afa5050505050565b60405180608001604052806000815260200160608152602001600073ffffffffffffffffffffffffffffffffffffffff16815260200160006fffffffffffffffffffffffffffffffff1681525090565b600061077683836108b4565b905092915050565b61078781610ad2565b82525050565b61079681610ad2565b82525050565b60006107a7826109e6565b6107b18185610a09565b9350836020820285016107c3856109d6565b8060005b858110156107ff57848403895281516107e0858261076a565b94506107eb836109fc565b925060208a019950506001810190506107c7565b50829750879550505050505092915050565b600061081c826109f1565b6108268185610a1a565b9350610836818560208601610b37565b61083f81610c53565b840191505092915050565b6000610855826109f1565b61085f8185610a2b565b935061086f818560208601610b37565b61087881610c53565b840191505092915050565b600061088e826109f1565b6108988185610a3c565b93506108a8818560208601610b37565b80840191505092915050565b60006080830160008301516108cc6000860182610926565b50602083015184820360208601526108e48282610811565b91505060408301516108f9604086018261077e565b50606083015161090c6060860182610917565b508091505092915050565b61092081610ae4565b82525050565b61092f81610b20565b82525050565b61093e81610b20565b82525050565b60006109508284610883565b915081905092915050565b6000604082019050610970600083018561078d565b61097d6020830184610935565b9392505050565b6000602082019050818103600083015261099e818461079c565b905092915050565b600060408201905081810360008301526109c0818561084a565b90506109cf6020830184610935565b9392505050565b6000819050602082019050919050565b600081519050919050565b600081519050919050565b6000602082019050919050565b600082825260208201905092915050565b600082825260208201905092915050565b600082825260208201905092915050565b600081905092915050565b6000610a5282610b20565b9150610a5d83610b20565b925082610a6d57610a6c610bf5565b5b828204905092915050565b6000610a8382610b20565b9150610a8e83610b20565b9250817fffffffffffffffffffffffffffffffffffffffffffffffffffffffffffffffff0483118215151615610ac757610ac6610bc6565b5b828202905092915050565b6000610add82610b00565b9050919050565b60006fffffffffffffffffffffffffffffffff82169050919050565b600073ffffffffffffffffffffffffffffffffffffffff82169050919050565b6000819050919050565b600060ff82169050919050565b60005b83811015610b55578082015181840152602081019050610b3a565b83811115610b64576000848401525b50505050565b60006002820490506001821680610b8257607f821691505b60208210811415610b9657610b95610c24565b5b50919050565b6000610ba782610b2a565b915060ff821415610bbb57610bba610bc6565b5b600182019050919050565b7f4e487b7100000000000000000000000000000000000000000000000000000000600052601160045260246000fd5b7f4e487b7100000000000000000000000000000000000000000000000000000000600052601260045260246000fd5b7f4e487b7100000000000000000000000000000000000000000000000000000000600052602260045260246000fd5b6000601f19601f830116905091905056fea26469706673582212203b7d9a5604ff3e4800c7f2f7c672d7a673c996bf3cf65da03066f3b71eebc92564736f6c63430008040033",
  "linkReferences": {},
  "deployedLinkReferences": {}
}