{
  "_format": "hh-sol-artifact-1",
  "contractName": "DrinkingTreesBank",
  "sourceName": "contracts/DrinkingTreesBank.sol",
  "abi": [
    {
      "inputs": [
        {
          "internalType": "address",
          "name": "_miriamAddress",
          "type": "address"
        },
        {
          "internalType": "address",
          "name": "_danAddress",
          "type": "address"
        },
        {
          "internalType": "address",
          "name": "_zachCookAddress",
          "type": "address"
        },
        {
          "internalType": "address",
          "name": "_raymondAddress",
          "type": "address"
        },
        {
          "internalType": "address",
          "name": "_zachComAddress",
          "type": "address"
        },
        {
          "internalType": "address",
          "name": "_charityAddress",
          "type": "address"
        }
      ],
      "stateMutability": "nonpayable",
      "type": "constructor"
    },
    {
      "anonymous": false,
      "inputs": [
        {
          "indexed": false,
          "internalType": "address",
          "name": "",
          "type": "address"
        },
        {
          "indexed": false,
          "internalType": "uint256",
          "name": "",
          "type": "uint256"
        }
      ],
      "name": "Received",
      "type": "event"
    },
    {
      "inputs": [
        {
          "internalType": "string",
          "name": "_username",
          "type": "string"
        },
        {
          "internalType": "address",
          "name": "_newAddress",
          "type": "address"
        }
      ],
      "name": "changeUserAddress",
      "outputs": [],
      "stateMutability": "nonpayable",
      "type": "function"
    },
    {
      "inputs": [],
      "name": "equityPercentAllocated",
      "outputs": [
        {
          "internalType": "uint256",
          "name": "",
          "type": "uint256"
        }
      ],
      "stateMutability": "view",
      "type": "function"
    },
    {
      "inputs": [],
      "name": "getAdminUser",
      "outputs": [
        {
          "internalType": "bool",
          "name": "",
          "type": "bool"
        }
      ],
      "stateMutability": "view",
      "type": "function"
    },
    {
      "inputs": [],
      "name": "getAllShareHolders",
      "outputs": [
        {
          "components": [
            {
              "internalType": "uint256",
              "name": "id",
              "type": "uint256"
            },
            {
              "internalType": "string",
              "name": "username",
              "type": "string"
            },
            {
              "internalType": "address",
              "name": "wallet",
              "type": "address"
            },
            {
              "internalType": "uint128",
              "name": "equityPercent",
              "type": "uint128"
            }
          ],
          "internalType": "struct DrinkingTreesBank.ShareHolder[]",
          "name": "",
          "type": "tuple[]"
        }
      ],
      "stateMutability": "view",
      "type": "function"
    },
    {
      "inputs": [],
      "name": "shareHolderCount",
      "outputs": [
        {
          "internalType": "uint256",
          "name": "",
          "type": "uint256"
        }
      ],
      "stateMutability": "view",
      "type": "function"
    },
    {
      "inputs": [
        {
          "internalType": "string",
          "name": "",
          "type": "string"
        }
      ],
      "name": "shareHolders",
      "outputs": [
        {
          "internalType": "uint256",
          "name": "id",
          "type": "uint256"
        },
        {
          "internalType": "string",
          "name": "username",
          "type": "string"
        },
        {
          "internalType": "address",
          "name": "wallet",
          "type": "address"
        },
        {
          "internalType": "uint128",
          "name": "equityPercent",
          "type": "uint128"
        }
      ],
      "stateMutability": "view",
      "type": "function"
    },
    {
      "inputs": [],
      "name": "withdraw",
      "outputs": [],
      "stateMutability": "payable",
      "type": "function"
    },
    {
      "stateMutability": "payable",
      "type": "receive"
    }
  ],
  "bytecode": "0x6080604052600060015561271060035560006004553480156200002157600080fd5b5060405162001c2938038062001c29833981810160405281019062000047919062000526565b336000806101000a81548173ffffffffffffffffffffffffffffffffffffffff021916908373ffffffffffffffffffffffffffffffffffffffff160217905550620000d16040518060400160405280600681526020017f6d697269616d0000000000000000000000000000000000000000000000000000815250876108346200024f60201b60201c565b6200011b6040518060400160405280600381526020017f64616e0000000000000000000000000000000000000000000000000000000000815250866108346200024f60201b60201c565b620001656040518060400160405280600881526020017f7a616368636f6f6b000000000000000000000000000000000000000000000000815250856108346200024f60201b60201c565b620001af6040518060400160405280600781526020017f7261796d6f6e6400000000000000000000000000000000000000000000000000815250846108346200024f60201b60201c565b620001f96040518060400160405280600781526020017f7a616368636f6d00000000000000000000000000000000000000000000000000815250836102586200024f60201b60201c565b620002436040518060400160405280600781526020017f6368617269747900000000000000000000000000000000000000000000000000815250826103e86200024f60201b60201c565b50505050505062000898565b600354816fffffffffffffffffffffffffffffffff166004546200027491906200067c565b1115620002b8576040517f08c379a0000000000000000000000000000000000000000000000000000000008152600401620002af9062000633565b60405180910390fd5b604051806080016040528060015481526020018481526020018373ffffffffffffffffffffffffffffffffffffffff168152602001826fffffffffffffffffffffffffffffffff168152506006846040516200031591906200061a565b90815260200160405180910390206000820151816000015560208201518160010190805190602001906200034b9291906200045f565b5060408201518160020160006101000a81548173ffffffffffffffffffffffffffffffffffffffff021916908373ffffffffffffffffffffffffffffffffffffffff16021790555060608201518160030160006101000a8154816fffffffffffffffffffffffffffffffff02191690836fffffffffffffffffffffffffffffffff160217905550905050600283908060018154018082558091505060019003906000526020600020016000909190919091509080519060200190620004129291906200045f565b5060016000815480929190620004289062000783565b9190505550806fffffffffffffffffffffffffffffffff16600460008282546200045391906200067c565b92505081905550505050565b8280546200046d906200074d565b90600052602060002090601f016020900481019282620004915760008555620004dd565b82601f10620004ac57805160ff1916838001178555620004dd565b82800160010185558215620004dd579182015b82811115620004dc578251825591602001919060010190620004bf565b5b509050620004ec9190620004f0565b5090565b5b808211156200050b576000816000905550600101620004f1565b5090565b60008151905062000520816200087e565b92915050565b60008060008060008060c087890312156200054057600080fd5b60006200055089828a016200050f565b96505060206200056389828a016200050f565b95505060406200057689828a016200050f565b94505060606200058989828a016200050f565b93505060806200059c89828a016200050f565b92505060a0620005af89828a016200050f565b9150509295509295509295565b6000620005c98262000655565b620005d5818562000671565b9350620005e781856020860162000717565b80840191505092915050565b60006200060260358362000660565b91506200060f826200082f565b604082019050919050565b6000620006288284620005bc565b915081905092915050565b600060208201905081810360008301526200064e81620005f3565b9050919050565b600081519050919050565b600082825260208201905092915050565b600081905092915050565b600062000689826200070d565b915062000696836200070d565b9250827fffffffffffffffffffffffffffffffffffffffffffffffffffffffffffffffff03821115620006ce57620006cd620007d1565b5b828201905092915050565b6000620006e682620006ed565b9050919050565b600073ffffffffffffffffffffffffffffffffffffffff82169050919050565b6000819050919050565b60005b83811015620007375780820151818401526020810190506200071a565b8381111562000747576000848401525b50505050565b600060028204905060018216806200076657607f821691505b602082108114156200077d576200077c62000800565b5b50919050565b600062000790826200070d565b91507fffffffffffffffffffffffffffffffffffffffffffffffffffffffffffffffff821415620007c657620007c5620007d1565b5b600182019050919050565b7f4e487b7100000000000000000000000000000000000000000000000000000000600052601160045260246000fd5b7f4e487b7100000000000000000000000000000000000000000000000000000000600052602260045260246000fd5b7f476976656e206571756974792070657263656e74616765206d757374206e6f7460008201527f206265206c6172676572207468616e2031303030300000000000000000000000602082015250565b6200088981620006d9565b81146200089557600080fd5b50565b61138180620008a86000396000f3fe6080604052600436106100745760003560e01c806363e931041161004e57806363e93104146101175780638bd9c2941461014257806397f49fe914610182578063d513cc44146101ad576100b4565b806337437963146100b95780633ccfd60b146100e2578063539170b2146100ec576100b4565b366100b4577f88a5966d370b9919b20f3e2c13ff65706f196a4e32cc2c12bf57088f8852587433346040516100aa929190610e99565b60405180910390a1005b600080fd5b3480156100c557600080fd5b506100e060048036038101906100db9190610c13565b6101d8565b005b6100ea6102d4565b005b3480156100f857600080fd5b506101016104ca565b60405161010e9190610ec2565b60405180910390f35b34801561012357600080fd5b5061012c610804565b6040516101399190610f1f565b60405180910390f35b34801561014e57600080fd5b5061016960048036038101906101649190610bd2565b61080a565b6040516101799493929190610f3a565b60405180910390f35b34801561018e57600080fd5b50610197610914565b6040516101a49190610f1f565b60405180910390f35b3480156101b957600080fd5b506101c261091a565b6040516101cf9190610ee4565b60405180910390f35b60006006836040516101ea9190610e82565b908152602001604051809103902090503373ffffffffffffffffffffffffffffffffffffffff168160020160009054906101000a900473ffffffffffffffffffffffffffffffffffffffff1673ffffffffffffffffffffffffffffffffffffffff161461028c576040517f08c379a000000000000000000000000000000000000000000000000000000000815260040161028390610eff565b60405180910390fd5b818160020160006101000a81548173ffffffffffffffffffffffffffffffffffffffff021916908373ffffffffffffffffffffffffffffffffffffffff160217905550505050565b600047905060005b6002805490508160ff1610156104c657600060028260ff168154811061032b577f4e487b7100000000000000000000000000000000000000000000000000000000600052603260045260246000fd5b9060005260206000200180546103409061118b565b80601f016020809104026020016040519081016040528092919081815260200182805461036c9061118b565b80156103b95780601f1061038e576101008083540402835291602001916103b9565b820191906000526020600020905b81548152906001019060200180831161039c57829003601f168201915b5050505050905060006006826040516103d29190610e82565b908152602001604051809103902060020160009054906101000a900473ffffffffffffffffffffffffffffffffffffffff16905060006006836040516104189190610e82565b908152602001604051809103902060030160009054906101000a90046fffffffffffffffffffffffffffffffff1690508173ffffffffffffffffffffffffffffffffffffffff166108fc612710836fffffffffffffffffffffffffffffffff1688610483919061107e565b61048d919061104d565b9081150290604051600060405180830381858888f193505050506104b057600080fd5b50505080806104be906111ee565b9150506102dc565b5050565b6060600060028054905067ffffffffffffffff811115610513577f4e487b7100000000000000000000000000000000000000000000000000000000600052604160045260246000fd5b60405190808252806020026020018201604052801561054c57816020015b610539610b05565b8152602001906001900390816105315790505b50905060005b6002805490508160ff1610156107fc57600060028260ff16815481106105a1577f4e487b7100000000000000000000000000000000000000000000000000000000600052603260045260246000fd5b9060005260206000200180546105b69061118b565b80601f01602080910402602001604051908101604052809291908181526020018280546105e29061118b565b801561062f5780601f106106045761010080835404028352916020019161062f565b820191906000526020600020905b81548152906001019060200180831161061257829003601f168201915b5050505050905060006006826040516106489190610e82565b90815260200160405180910390209050806040518060800160405290816000820154815260200160018201805461067e9061118b565b80601f01602080910402602001604051908101604052809291908181526020018280546106aa9061118b565b80156106f75780601f106106cc576101008083540402835291602001916106f7565b820191906000526020600020905b8154815290600101906020018083116106da57829003601f168201915b505050505081526020016002820160009054906101000a900473ffffffffffffffffffffffffffffffffffffffff1673ffffffffffffffffffffffffffffffffffffffff1673ffffffffffffffffffffffffffffffffffffffff1681526020016003820160009054906101000a90046fffffffffffffffffffffffffffffffff166fffffffffffffffffffffffffffffffff166fffffffffffffffffffffffffffffffff1681525050848460ff16815181106107dc577f4e487b7100000000000000000000000000000000000000000000000000000000600052603260045260246000fd5b6020026020010181905250505080806107f4906111ee565b915050610552565b508091505090565b60045481565b6006818051602081018201805184825260208301602085012081835280955050505050506000915090508060000154908060010180546108499061118b565b80601f01602080910402602001604051908101604052809291908181526020018280546108759061118b565b80156108c25780601f10610897576101008083540402835291602001916108c2565b820191906000526020600020905b8154815290600101906020018083116108a557829003601f168201915b5050505050908060020160009054906101000a900473ffffffffffffffffffffffffffffffffffffffff16908060030160009054906101000a90046fffffffffffffffffffffffffffffffff16905084565b60015481565b60008060009054906101000a900473ffffffffffffffffffffffffffffffffffffffff1673ffffffffffffffffffffffffffffffffffffffff163373ffffffffffffffffffffffffffffffffffffffff16141561097a5760019050610b02565b60005b6002805490508160ff161015610afc57600060028260ff16815481106109cc577f4e487b7100000000000000000000000000000000000000000000000000000000600052603260045260246000fd5b9060005260206000200180546109e19061118b565b80601f0160208091040260200160405190810160405280929190818152602001828054610a0d9061118b565b8015610a5a5780601f10610a2f57610100808354040283529160200191610a5a565b820191906000526020600020905b815481529060010190602001808311610a3d57829003601f168201915b505050505090506000600682604051610a739190610e82565b908152602001604051809103902090508060020160009054906101000a900473ffffffffffffffffffffffffffffffffffffffff1673ffffffffffffffffffffffffffffffffffffffff163373ffffffffffffffffffffffffffffffffffffffff161415610ae75760019350505050610b02565b50508080610af4906111ee565b91505061097d565b50600090505b90565b60405180608001604052806000815260200160608152602001600073ffffffffffffffffffffffffffffffffffffffff16815260200160006fffffffffffffffffffffffffffffffff1681525090565b6000610b68610b6384610fab565b610f86565b905082815260208101848484011115610b8057600080fd5b610b8b848285611149565b509392505050565b600081359050610ba281611334565b92915050565b600082601f830112610bb957600080fd5b8135610bc9848260208601610b55565b91505092915050565b600060208284031215610be457600080fd5b600082013567ffffffffffffffff811115610bfe57600080fd5b610c0a84828501610ba8565b91505092915050565b60008060408385031215610c2657600080fd5b600083013567ffffffffffffffff811115610c4057600080fd5b610c4c85828601610ba8565b9250506020610c5d85828601610b93565b9150509250929050565b6000610c738383610de3565b905092915050565b610c84816110d8565b82525050565b610c93816110d8565b82525050565b6000610ca482610fec565b610cae818561100f565b935083602082028501610cc085610fdc565b8060005b85811015610cfc5784840389528151610cdd8582610c67565b9450610ce883611002565b925060208a01995050600181019050610cc4565b50829750879550505050505092915050565b610d17816110ea565b82525050565b6000610d2882610ff7565b610d328185611020565b9350610d42818560208601611158565b610d4b816112d4565b840191505092915050565b6000610d6182610ff7565b610d6b8185611031565b9350610d7b818560208601611158565b610d84816112d4565b840191505092915050565b6000610d9a82610ff7565b610da48185611042565b9350610db4818560208601611158565b80840191505092915050565b6000610dcd602d83611031565b9150610dd8826112e5565b604082019050919050565b6000608083016000830151610dfb6000860182610e64565b5060208301518482036020860152610e138282610d1d565b9150506040830151610e286040860182610c7b565b506060830151610e3b6060860182610e46565b508091505092915050565b610e4f816110f6565b82525050565b610e5e816110f6565b82525050565b610e6d81611132565b82525050565b610e7c81611132565b82525050565b6000610e8e8284610d8f565b915081905092915050565b6000604082019050610eae6000830185610c8a565b610ebb6020830184610e73565b9392505050565b60006020820190508181036000830152610edc8184610c99565b905092915050565b6000602082019050610ef96000830184610d0e565b92915050565b60006020820190508181036000830152610f1881610dc0565b9050919050565b6000602082019050610f346000830184610e73565b92915050565b6000608082019050610f4f6000830187610e73565b8181036020830152610f618186610d56565b9050610f706040830185610c8a565b610f7d6060830184610e55565b95945050505050565b6000610f90610fa1565b9050610f9c82826111bd565b919050565b6000604051905090565b600067ffffffffffffffff821115610fc657610fc56112a5565b5b610fcf826112d4565b9050602081019050919050565b6000819050602082019050919050565b600081519050919050565b600081519050919050565b6000602082019050919050565b600082825260208201905092915050565b600082825260208201905092915050565b600082825260208201905092915050565b600081905092915050565b600061105882611132565b915061106383611132565b92508261107357611072611247565b5b828204905092915050565b600061108982611132565b915061109483611132565b9250817fffffffffffffffffffffffffffffffffffffffffffffffffffffffffffffffff04831182151516156110cd576110cc611218565b5b828202905092915050565b60006110e382611112565b9050919050565b60008115159050919050565b60006fffffffffffffffffffffffffffffffff82169050919050565b600073ffffffffffffffffffffffffffffffffffffffff82169050919050565b6000819050919050565b600060ff82169050919050565b82818337600083830152505050565b60005b8381101561117657808201518184015260208101905061115b565b83811115611185576000848401525b50505050565b600060028204905060018216806111a357607f821691505b602082108114156111b7576111b6611276565b5b50919050565b6111c6826112d4565b810181811067ffffffffffffffff821117156111e5576111e46112a5565b5b80604052505050565b60006111f98261113c565b915060ff82141561120d5761120c611218565b5b600182019050919050565b7f4e487b7100000000000000000000000000000000000000000000000000000000600052601160045260246000fd5b7f4e487b7100000000000000000000000000000000000000000000000000000000600052601260045260246000fd5b7f4e487b7100000000000000000000000000000000000000000000000000000000600052602260045260246000fd5b7f4e487b7100000000000000000000000000000000000000000000000000000000600052604160045260246000fd5b6000601f19601f8301169050919050565b7f596f752062652075736572206f662074686973206163636f756e7420746f207560008201527f7064617465206164647265737300000000000000000000000000000000000000602082015250565b61133d816110d8565b811461134857600080fd5b5056fea2646970667358221220564fa3573a3408c05013232e09df4111fe83e158a64b10abe5737fbe3d255fec64736f6c63430008040033",
  "linkReferences": {},
  "deployedLinkReferences": {}
}