{
  "_format": "hh-sol-artifact-1",
  "contractName": "DrinkingTreesBank",
  "sourceName": "contracts/DrinkingTreesBank.sol",
  "abi": [
    {
      "inputs": [
        {
          "internalType": "address",
          "name": "_miriamAddress",
          "type": "address"
        },
        {
          "internalType": "address",
          "name": "_danAddress",
          "type": "address"
        },
        {
          "internalType": "address",
          "name": "_zachCookAddress",
          "type": "address"
        },
        {
          "internalType": "address",
          "name": "_raymondAddress",
          "type": "address"
        },
        {
          "internalType": "address",
          "name": "_zachComAddress",
          "type": "address"
        },
        {
          "internalType": "address",
          "name": "_charityAddress",
          "type": "address"
        }
      ],
      "stateMutability": "nonpayable",
      "type": "constructor"
    },
    {
      "anonymous": false,
      "inputs": [
        {
          "indexed": false,
          "internalType": "address",
          "name": "",
          "type": "address"
        },
        {
          "indexed": false,
          "internalType": "uint256",
          "name": "",
          "type": "uint256"
        }
      ],
      "name": "Received",
      "type": "event"
    },
    {
      "inputs": [],
      "name": "charityAddress",
      "outputs": [
        {
          "internalType": "address payable",
          "name": "",
          "type": "address"
        }
      ],
      "stateMutability": "view",
      "type": "function"
    },
    {
      "inputs": [],
      "name": "danAddress",
      "outputs": [
        {
          "internalType": "address payable",
          "name": "",
          "type": "address"
        }
      ],
      "stateMutability": "view",
      "type": "function"
    },
    {
      "inputs": [],
      "name": "miriamAddress",
      "outputs": [
        {
          "internalType": "address payable",
          "name": "",
          "type": "address"
        }
      ],
      "stateMutability": "view",
      "type": "function"
    },
    {
      "inputs": [],
      "name": "raymondAddress",
      "outputs": [
        {
          "internalType": "address payable",
          "name": "",
          "type": "address"
        }
      ],
      "stateMutability": "view",
      "type": "function"
    },
    {
      "inputs": [],
      "name": "withdraw",
      "outputs": [],
      "stateMutability": "payable",
      "type": "function"
    },
    {
      "inputs": [],
      "name": "zachComAddress",
      "outputs": [
        {
          "internalType": "address payable",
          "name": "",
          "type": "address"
        }
      ],
      "stateMutability": "view",
      "type": "function"
    },
    {
      "inputs": [],
      "name": "zachCookAddress",
      "outputs": [
        {
          "internalType": "address payable",
          "name": "",
          "type": "address"
        }
      ],
      "stateMutability": "view",
      "type": "function"
    },
    {
      "stateMutability": "payable",
      "type": "receive"
    }
  ],
  "bytecode": "0x6080604052610834600760006101000a8154816fffffffffffffffffffffffffffffffff02191690836fffffffffffffffffffffffffffffffff160217905550610834600760106101000a8154816fffffffffffffffffffffffffffffffff02191690836fffffffffffffffffffffffffffffffff160217905550610834600860006101000a8154816fffffffffffffffffffffffffffffffff02191690836fffffffffffffffffffffffffffffffff160217905550610834600860106101000a8154816fffffffffffffffffffffffffffffffff02191690836fffffffffffffffffffffffffffffffff1602179055506103e8600960006101000a8154816fffffffffffffffffffffffffffffffff02191690836fffffffffffffffffffffffffffffffff160217905550610258600960106101000a8154816fffffffffffffffffffffffffffffffff02191690836fffffffffffffffffffffffffffffffff1602179055503480156200017357600080fd5b5060405162000f2538038062000f25833981810160405281019062000199919062000382565b336000806101000a81548173ffffffffffffffffffffffffffffffffffffffff021916908373ffffffffffffffffffffffffffffffffffffffff16021790555085600160006101000a81548173ffffffffffffffffffffffffffffffffffffffff021916908373ffffffffffffffffffffffffffffffffffffffff16021790555084600260006101000a81548173ffffffffffffffffffffffffffffffffffffffff021916908373ffffffffffffffffffffffffffffffffffffffff16021790555083600360006101000a81548173ffffffffffffffffffffffffffffffffffffffff021916908373ffffffffffffffffffffffffffffffffffffffff16021790555082600460006101000a81548173ffffffffffffffffffffffffffffffffffffffff021916908373ffffffffffffffffffffffffffffffffffffffff16021790555081600560006101000a81548173ffffffffffffffffffffffffffffffffffffffff021916908373ffffffffffffffffffffffffffffffffffffffff16021790555080600660006101000a81548173ffffffffffffffffffffffffffffffffffffffff021916908373ffffffffffffffffffffffffffffffffffffffff16021790555050505050505062000466565b6000815190506200037c816200044c565b92915050565b60008060008060008060c087890312156200039c57600080fd5b6000620003ac89828a016200036b565b9650506020620003bf89828a016200036b565b9550506040620003d289828a016200036b565b9450506060620003e589828a016200036b565b9350506080620003f889828a016200036b565b92505060a06200040b89828a016200036b565b9150509295509295509295565b600062000425826200042c565b9050919050565b600073ffffffffffffffffffffffffffffffffffffffff82169050919050565b620004578162000418565b81146200046357600080fd5b50565b610aaf80620004766000396000f3fe6080604052600436106100745760003560e01c8063521739f21161004e578063521739f214610119578063afcf2fc414610144578063ce11357a1461016f578063e9403aca1461019a576100b4565b80631c62e6ee146100b95780631c6ada92146100e45780633ccfd60b1461010f576100b4565b366100b4577f88a5966d370b9919b20f3e2c13ff65706f196a4e32cc2c12bf57088f8852587433346040516100aa929190610889565b60405180910390a1005b600080fd5b3480156100c557600080fd5b506100ce6101c5565b6040516100db919061086e565b60405180910390f35b3480156100f057600080fd5b506100f96101eb565b604051610106919061086e565b60405180910390f35b610117610211565b005b34801561012557600080fd5b5061012e6106ab565b60405161013b919061086e565b60405180910390f35b34801561015057600080fd5b506101596106d1565b604051610166919061086e565b60405180910390f35b34801561017b57600080fd5b506101846106f7565b604051610191919061086e565b60405180910390f35b3480156101a657600080fd5b506101af61071d565b6040516101bc919061086e565b60405180910390f35b600460009054906101000a900473ffffffffffffffffffffffffffffffffffffffff1681565b600160009054906101000a900473ffffffffffffffffffffffffffffffffffffffff1681565b6000600160009054906101000a900473ffffffffffffffffffffffffffffffffffffffff1690506000600260009054906101000a900473ffffffffffffffffffffffffffffffffffffffff1690506000600360009054906101000a900473ffffffffffffffffffffffffffffffffffffffff1690506000600460009054906101000a900473ffffffffffffffffffffffffffffffffffffffff1690506000600560009054906101000a900473ffffffffffffffffffffffffffffffffffffffff1690506000600660009054906101000a900473ffffffffffffffffffffffffffffffffffffffff169050600047905061033f6040518060400160405280601981526020017f63757272656e742062616c616e6365206f662062616e6b3a200000000000000081525047610743565b8673ffffffffffffffffffffffffffffffffffffffff166108fc612710600760009054906101000a90046fffffffffffffffffffffffffffffffff166fffffffffffffffffffffffffffffffff1684610398919061092f565b6103a291906108fe565b9081150290604051600060405180830381858888f193505050506103c557600080fd5b8573ffffffffffffffffffffffffffffffffffffffff166108fc612710600760109054906101000a90046fffffffffffffffffffffffffffffffff166fffffffffffffffffffffffffffffffff168461041e919061092f565b61042891906108fe565b9081150290604051600060405180830381858888f1935050505061044b57600080fd5b8473ffffffffffffffffffffffffffffffffffffffff166108fc612710600860009054906101000a90046fffffffffffffffffffffffffffffffff166fffffffffffffffffffffffffffffffff16846104a4919061092f565b6104ae91906108fe565b9081150290604051600060405180830381858888f193505050506104d157600080fd5b8373ffffffffffffffffffffffffffffffffffffffff166108fc612710600860109054906101000a90046fffffffffffffffffffffffffffffffff166fffffffffffffffffffffffffffffffff168461052a919061092f565b61053491906108fe565b9081150290604051600060405180830381858888f1935050505061055757600080fd5b8273ffffffffffffffffffffffffffffffffffffffff166108fc612710600960109054906101000a90046fffffffffffffffffffffffffffffffff166fffffffffffffffffffffffffffffffff16846105b0919061092f565b6105ba91906108fe565b9081150290604051600060405180830381858888f193505050506105dd57600080fd5b8173ffffffffffffffffffffffffffffffffffffffff166108fc612710600960009054906101000a90046fffffffffffffffffffffffffffffffff166fffffffffffffffffffffffffffffffff1684610636919061092f565b61064091906108fe565b9081150290604051600060405180830381858888f1935050505061066357600080fd5b6106a26040518060400160405280601581526020017f6e65772062616c616e6365206f662062616e6b3a20000000000000000000000081525047610743565b50505050505050565b600360009054906101000a900473ffffffffffffffffffffffffffffffffffffffff1681565b600660009054906101000a900473ffffffffffffffffffffffffffffffffffffffff1681565b600260009054906101000a900473ffffffffffffffffffffffffffffffffffffffff1681565b600560009054906101000a900473ffffffffffffffffffffffffffffffffffffffff1681565b6107db82826040516024016107599291906108b2565b6040516020818303038152906040527f9710a9d0000000000000000000000000000000000000000000000000000000007bffffffffffffffffffffffffffffffffffffffffffffffffffffffff19166020820180517bffffffffffffffffffffffffffffffffffffffffffffffffffffffff83818316178352505050506107df565b5050565b60008151905060006a636f6e736f6c652e6c6f679050602083016000808483855afa5050505050565b6108118161099b565b82525050565b61082081610989565b82525050565b6000610831826108e2565b61083b81856108ed565b935061084b8185602086016109d7565b61085481610a68565b840191505092915050565b610868816109cd565b82525050565b60006020820190506108836000830184610808565b92915050565b600060408201905061089e6000830185610817565b6108ab602083018461085f565b9392505050565b600060408201905081810360008301526108cc8185610826565b90506108db602083018461085f565b9392505050565b600081519050919050565b600082825260208201905092915050565b6000610909826109cd565b9150610914836109cd565b92508261092457610923610a39565b5b828204905092915050565b600061093a826109cd565b9150610945836109cd565b9250817fffffffffffffffffffffffffffffffffffffffffffffffffffffffffffffffff048311821515161561097e5761097d610a0a565b5b828202905092915050565b6000610994826109ad565b9050919050565b60006109a6826109ad565b9050919050565b600073ffffffffffffffffffffffffffffffffffffffff82169050919050565b6000819050919050565b60005b838110156109f55780820151818401526020810190506109da565b83811115610a04576000848401525b50505050565b7f4e487b7100000000000000000000000000000000000000000000000000000000600052601160045260246000fd5b7f4e487b7100000000000000000000000000000000000000000000000000000000600052601260045260246000fd5b6000601f19601f830116905091905056fea26469706673582212204d4fc91f9058aa791f38f966ac0d208983a1112c21c0a7e81cb494f7faa32a7764736f6c63430008040033",
  "linkReferences": {},
  "deployedLinkReferences": {}
}