{
  "_format": "hh-sol-artifact-1",
  "contractName": "DrinkingTreesBank",
  "sourceName": "contracts/DrinkingTreesBank.sol",
  "abi": [
    {
      "inputs": [
        {
          "internalType": "address",
          "name": "_withdrawAddress",
          "type": "address"
        }
      ],
      "stateMutability": "nonpayable",
      "type": "constructor"
    },
    {
      "anonymous": false,
      "inputs": [
        {
          "indexed": false,
          "internalType": "address",
          "name": "",
          "type": "address"
        },
        {
          "indexed": false,
          "internalType": "uint256",
          "name": "",
          "type": "uint256"
        }
      ],
      "name": "Received",
      "type": "event"
    },
    {
      "inputs": [],
      "name": "charityAddress",
      "outputs": [
        {
          "internalType": "address payable",
          "name": "",
          "type": "address"
        }
      ],
      "stateMutability": "view",
      "type": "function"
    },
    {
      "inputs": [
        {
          "internalType": "address",
          "name": "_withdrawAddress",
          "type": "address"
        }
      ],
      "name": "setWithdrawAddress",
      "outputs": [],
      "stateMutability": "nonpayable",
      "type": "function"
    },
    {
      "inputs": [],
      "name": "withdraw",
      "outputs": [],
      "stateMutability": "payable",
      "type": "function"
    },
    {
      "inputs": [],
      "name": "withdrawAddress",
      "outputs": [
        {
          "internalType": "address payable",
          "name": "",
          "type": "address"
        }
      ],
      "stateMutability": "view",
      "type": "function"
    },
    {
      "stateMutability": "payable",
      "type": "receive"
    }
  ],
  "bytecode": "0x608060405234801561001057600080fd5b506040516104f83803806104f8833981810160405281019061003291906100ce565b33600260006101000a81548173ffffffffffffffffffffffffffffffffffffffff021916908373ffffffffffffffffffffffffffffffffffffffff160217905550806000806101000a81548173ffffffffffffffffffffffffffffffffffffffff021916908373ffffffffffffffffffffffffffffffffffffffff16021790555050610140565b6000815190506100c881610129565b92915050565b6000602082840312156100e057600080fd5b60006100ee848285016100b9565b91505092915050565b600061010282610109565b9050919050565b600073ffffffffffffffffffffffffffffffffffffffff82169050919050565b610132816100f7565b811461013d57600080fd5b50565b6103a98061014f6000396000f3fe6080604052600436106100435760003560e01c80631581b600146100885780633ab1a494146100b35780633ccfd60b146100dc578063afcf2fc4146100e657610083565b36610083577f88a5966d370b9919b20f3e2c13ff65706f196a4e32cc2c12bf57088f8852587433346040516100799291906102e5565b60405180910390a1005b600080fd5b34801561009457600080fd5b5061009d610111565b6040516100aa91906102ca565b60405180910390f35b3480156100bf57600080fd5b506100da60048036038101906100d59190610274565b610135565b005b6100e46101d2565b005b3480156100f257600080fd5b506100fb610239565b60405161010891906102ca565b60405180910390f35b60008054906101000a900473ffffffffffffffffffffffffffffffffffffffff1681565b600260009054906101000a900473ffffffffffffffffffffffffffffffffffffffff1673ffffffffffffffffffffffffffffffffffffffff163373ffffffffffffffffffffffffffffffffffffffff161461018f57600080fd5b806000806101000a81548173ffffffffffffffffffffffffffffffffffffffff021916908373ffffffffffffffffffffffffffffffffffffffff16021790555050565b60008060009054906101000a900473ffffffffffffffffffffffffffffffffffffffff1690508073ffffffffffffffffffffffffffffffffffffffff166108fc479081150290604051600060405180830381858888f1935050505061023657600080fd5b50565b600160009054906101000a900473ffffffffffffffffffffffffffffffffffffffff1681565b60008135905061026e8161035c565b92915050565b60006020828403121561028657600080fd5b60006102948482850161025f565b91505092915050565b6102a681610320565b82525050565b6102b58161030e565b82525050565b6102c481610352565b82525050565b60006020820190506102df600083018461029d565b92915050565b60006040820190506102fa60008301856102ac565b61030760208301846102bb565b9392505050565b600061031982610332565b9050919050565b600061032b82610332565b9050919050565b600073ffffffffffffffffffffffffffffffffffffffff82169050919050565b6000819050919050565b6103658161030e565b811461037057600080fd5b5056fea26469706673582212202ced85a7e1061381d6c90aa1fc7cceb6e0dee6ab44a953f13de770d17df0096f64736f6c63430008040033",
  "linkReferences": {},
  "deployedLinkReferences": {}
}