{
  "_format": "hh-sol-artifact-1",
  "contractName": "DrinkingTreesBank",
  "sourceName": "contracts/DrinkingTreesBank.sol",
  "abi": [
    {
      "inputs": [
        {
          "internalType": "address",
          "name": "_withdrawAddress",
          "type": "address"
        }
      ],
      "stateMutability": "nonpayable",
      "type": "constructor"
    },
    {
      "anonymous": false,
      "inputs": [
        {
          "indexed": false,
          "internalType": "address",
          "name": "",
          "type": "address"
        },
        {
          "indexed": false,
          "internalType": "uint256",
          "name": "",
          "type": "uint256"
        }
      ],
      "name": "Received",
      "type": "event"
    },
    {
      "inputs": [
        {
          "internalType": "address",
          "name": "_withdrawAddress",
          "type": "address"
        }
      ],
      "name": "setWithdrawAddress",
      "outputs": [],
      "stateMutability": "nonpayable",
      "type": "function"
    },
    {
      "inputs": [],
      "name": "withdraw",
      "outputs": [],
      "stateMutability": "payable",
      "type": "function"
    },
    {
      "stateMutability": "payable",
      "type": "receive"
    }
  ],
  "bytecode": "0x608060405234801561001057600080fd5b506040516106fe3803806106fe833981810160405281019061003291906100ce565b33600160006101000a81548173ffffffffffffffffffffffffffffffffffffffff021916908373ffffffffffffffffffffffffffffffffffffffff160217905550806000806101000a81548173ffffffffffffffffffffffffffffffffffffffff021916908373ffffffffffffffffffffffffffffffffffffffff16021790555050610140565b6000815190506100c881610129565b92915050565b6000602082840312156100e057600080fd5b60006100ee848285016100b9565b91505092915050565b600061010282610109565b9050919050565b600073ffffffffffffffffffffffffffffffffffffffff82169050919050565b610132816100f7565b811461013d57600080fd5b50565b6105af8061014f6000396000f3fe60806040526004361061002d5760003560e01c80633ab1a494146100725780633ccfd60b1461009b5761006d565b3661006d577f88a5966d370b9919b20f3e2c13ff65706f196a4e32cc2c12bf57088f88525874333460405161006392919061043d565b60405180910390a1005b600080fd5b34801561007e57600080fd5b50610099600480360381019061009491906103bd565b6100a5565b005b6100a3610142565b005b600160009054906101000a900473ffffffffffffffffffffffffffffffffffffffff1673ffffffffffffffffffffffffffffffffffffffff163373ffffffffffffffffffffffffffffffffffffffff16146100ff57600080fd5b806000806101000a81548173ffffffffffffffffffffffffffffffffffffffff021916908373ffffffffffffffffffffffffffffffffffffffff16021790555050565b6101816040518060400160405280600d81526020017f5769746864726177696e673a200000000000000000000000000000000000000081525047610247565b6101e06040518060400160405280601281526020017f776974686472617720616464726573733a20000000000000000000000000000081525060008054906101000a900473ffffffffffffffffffffffffffffffffffffffff166102e3565b60008060009054906101000a900473ffffffffffffffffffffffffffffffffffffffff1690508073ffffffffffffffffffffffffffffffffffffffff166108fc479081150290604051600060405180830381858888f1935050505061024457600080fd5b50565b6102df828260405160240161025d929190610496565b6040516020818303038152906040527f9710a9d0000000000000000000000000000000000000000000000000000000007bffffffffffffffffffffffffffffffffffffffffffffffffffffffff19166020820180517bffffffffffffffffffffffffffffffffffffffffffffffffffffffff838183161783525050505061037f565b5050565b61037b82826040516024016102f9929190610466565b6040516020818303038152906040527f319af333000000000000000000000000000000000000000000000000000000007bffffffffffffffffffffffffffffffffffffffffffffffffffffffff19166020820180517bffffffffffffffffffffffffffffffffffffffffffffffffffffffff838183161783525050505061037f565b5050565b60008151905060006a636f6e736f6c652e6c6f679050602083016000808483855afa5050505050565b6000813590506103b781610562565b92915050565b6000602082840312156103cf57600080fd5b60006103dd848285016103a8565b91505092915050565b6103ef816104e2565b82525050565b6000610400826104c6565b61040a81856104d1565b935061041a81856020860161051e565b61042381610551565b840191505092915050565b61043781610514565b82525050565b600060408201905061045260008301856103e6565b61045f602083018461042e565b9392505050565b6000604082019050818103600083015261048081856103f5565b905061048f60208301846103e6565b9392505050565b600060408201905081810360008301526104b081856103f5565b90506104bf602083018461042e565b9392505050565b600081519050919050565b600082825260208201905092915050565b60006104ed826104f4565b9050919050565b600073ffffffffffffffffffffffffffffffffffffffff82169050919050565b6000819050919050565b60005b8381101561053c578082015181840152602081019050610521565b8381111561054b576000848401525b50505050565b6000601f19601f8301169050919050565b61056b816104e2565b811461057657600080fd5b5056fea2646970667358221220a0053ea4e912bfdf78e779b41ce2c561e436a0ee06a405b32cbf08c307f82cee64736f6c63430008040033",
  "linkReferences": {},
  "deployedLinkReferences": {}
}