{
  "_format": "hh-sol-artifact-1",
  "contractName": "DrinkingTrees",
  "sourceName": "contracts/DrinkingTreesCollection1.sol",
  "abi": [
    {
      "inputs": [
        {
          "internalType": "string",
          "name": "_name",
          "type": "string"
        },
        {
          "internalType": "string",
          "name": "_symbol",
          "type": "string"
        },
        {
          "internalType": "string",
          "name": "_initBaseURI",
          "type": "string"
        },
        {
          "internalType": "address",
          "name": "_marketAddress",
          "type": "address"
        }
      ],
      "stateMutability": "nonpayable",
      "type": "constructor"
    },
    {
      "anonymous": false,
      "inputs": [
        {
          "indexed": true,
          "internalType": "address",
          "name": "owner",
          "type": "address"
        },
        {
          "indexed": true,
          "internalType": "address",
          "name": "approved",
          "type": "address"
        },
        {
          "indexed": true,
          "internalType": "uint256",
          "name": "tokenId",
          "type": "uint256"
        }
      ],
      "name": "Approval",
      "type": "event"
    },
    {
      "anonymous": false,
      "inputs": [
        {
          "indexed": true,
          "internalType": "address",
          "name": "owner",
          "type": "address"
        },
        {
          "indexed": true,
          "internalType": "address",
          "name": "operator",
          "type": "address"
        },
        {
          "indexed": false,
          "internalType": "bool",
          "name": "approved",
          "type": "bool"
        }
      ],
      "name": "ApprovalForAll",
      "type": "event"
    },
    {
      "anonymous": false,
      "inputs": [
        {
          "indexed": true,
          "internalType": "address",
          "name": "previousOwner",
          "type": "address"
        },
        {
          "indexed": true,
          "internalType": "address",
          "name": "newOwner",
          "type": "address"
        }
      ],
      "name": "OwnershipTransferred",
      "type": "event"
    },
    {
      "anonymous": false,
      "inputs": [
        {
          "indexed": true,
          "internalType": "address",
          "name": "from",
          "type": "address"
        },
        {
          "indexed": true,
          "internalType": "address",
          "name": "to",
          "type": "address"
        },
        {
          "indexed": true,
          "internalType": "uint256",
          "name": "tokenId",
          "type": "uint256"
        }
      ],
      "name": "Transfer",
      "type": "event"
    },
    {
      "inputs": [
        {
          "internalType": "address",
          "name": "to",
          "type": "address"
        },
        {
          "internalType": "uint256",
          "name": "tokenId",
          "type": "uint256"
        }
      ],
      "name": "approve",
      "outputs": [],
      "stateMutability": "nonpayable",
      "type": "function"
    },
    {
      "inputs": [
        {
          "internalType": "address",
          "name": "owner",
          "type": "address"
        }
      ],
      "name": "balanceOf",
      "outputs": [
        {
          "internalType": "uint256",
          "name": "",
          "type": "uint256"
        }
      ],
      "stateMutability": "view",
      "type": "function"
    },
    {
      "inputs": [],
      "name": "baseExtension",
      "outputs": [
        {
          "internalType": "string",
          "name": "",
          "type": "string"
        }
      ],
      "stateMutability": "view",
      "type": "function"
    },
    {
      "inputs": [],
      "name": "baseURI",
      "outputs": [
        {
          "internalType": "string",
          "name": "",
          "type": "string"
        }
      ],
      "stateMutability": "view",
      "type": "function"
    },
    {
      "inputs": [],
      "name": "cost",
      "outputs": [
        {
          "internalType": "uint256",
          "name": "",
          "type": "uint256"
        }
      ],
      "stateMutability": "view",
      "type": "function"
    },
    {
      "inputs": [
        {
          "internalType": "uint256",
          "name": "tokenId",
          "type": "uint256"
        }
      ],
      "name": "getApproved",
      "outputs": [
        {
          "internalType": "address",
          "name": "",
          "type": "address"
        }
      ],
      "stateMutability": "view",
      "type": "function"
    },
    {
      "inputs": [
        {
          "internalType": "address",
          "name": "owner",
          "type": "address"
        },
        {
          "internalType": "address",
          "name": "operator",
          "type": "address"
        }
      ],
      "name": "isApprovedForAll",
      "outputs": [
        {
          "internalType": "bool",
          "name": "",
          "type": "bool"
        }
      ],
      "stateMutability": "view",
      "type": "function"
    },
    {
      "inputs": [],
      "name": "maxMintAmount",
      "outputs": [
        {
          "internalType": "uint256",
          "name": "",
          "type": "uint256"
        }
      ],
      "stateMutability": "view",
      "type": "function"
    },
    {
      "inputs": [],
      "name": "maxSupply",
      "outputs": [
        {
          "internalType": "uint256",
          "name": "",
          "type": "uint256"
        }
      ],
      "stateMutability": "view",
      "type": "function"
    },
    {
      "inputs": [
        {
          "internalType": "uint256",
          "name": "_mintAmount",
          "type": "uint256"
        }
      ],
      "name": "mint",
      "outputs": [],
      "stateMutability": "payable",
      "type": "function"
    },
    {
      "inputs": [],
      "name": "name",
      "outputs": [
        {
          "internalType": "string",
          "name": "",
          "type": "string"
        }
      ],
      "stateMutability": "view",
      "type": "function"
    },
    {
      "inputs": [],
      "name": "owner",
      "outputs": [
        {
          "internalType": "address",
          "name": "",
          "type": "address"
        }
      ],
      "stateMutability": "view",
      "type": "function"
    },
    {
      "inputs": [
        {
          "internalType": "uint256",
          "name": "tokenId",
          "type": "uint256"
        }
      ],
      "name": "ownerOf",
      "outputs": [
        {
          "internalType": "address",
          "name": "",
          "type": "address"
        }
      ],
      "stateMutability": "view",
      "type": "function"
    },
    {
      "inputs": [
        {
          "internalType": "bool",
          "name": "_state",
          "type": "bool"
        }
      ],
      "name": "pause",
      "outputs": [],
      "stateMutability": "nonpayable",
      "type": "function"
    },
    {
      "inputs": [],
      "name": "paused",
      "outputs": [
        {
          "internalType": "bool",
          "name": "",
          "type": "bool"
        }
      ],
      "stateMutability": "view",
      "type": "function"
    },
    {
      "inputs": [
        {
          "internalType": "address",
          "name": "_user",
          "type": "address"
        }
      ],
      "name": "removeWhitelistUser",
      "outputs": [],
      "stateMutability": "nonpayable",
      "type": "function"
    },
    {
      "inputs": [],
      "name": "renounceOwnership",
      "outputs": [],
      "stateMutability": "nonpayable",
      "type": "function"
    },
    {
      "inputs": [
        {
          "internalType": "address",
          "name": "from",
          "type": "address"
        },
        {
          "internalType": "address",
          "name": "to",
          "type": "address"
        },
        {
          "internalType": "uint256",
          "name": "tokenId",
          "type": "uint256"
        }
      ],
      "name": "safeTransferFrom",
      "outputs": [],
      "stateMutability": "nonpayable",
      "type": "function"
    },
    {
      "inputs": [
        {
          "internalType": "address",
          "name": "from",
          "type": "address"
        },
        {
          "internalType": "address",
          "name": "to",
          "type": "address"
        },
        {
          "internalType": "uint256",
          "name": "tokenId",
          "type": "uint256"
        },
        {
          "internalType": "bytes",
          "name": "_data",
          "type": "bytes"
        }
      ],
      "name": "safeTransferFrom",
      "outputs": [],
      "stateMutability": "nonpayable",
      "type": "function"
    },
    {
      "inputs": [
        {
          "internalType": "address",
          "name": "operator",
          "type": "address"
        },
        {
          "internalType": "bool",
          "name": "approved",
          "type": "bool"
        }
      ],
      "name": "setApprovalForAll",
      "outputs": [],
      "stateMutability": "nonpayable",
      "type": "function"
    },
    {
      "inputs": [
        {
          "internalType": "string",
          "name": "_newBaseExtension",
          "type": "string"
        }
      ],
      "name": "setBaseExtension",
      "outputs": [],
      "stateMutability": "nonpayable",
      "type": "function"
    },
    {
      "inputs": [
        {
          "internalType": "string",
          "name": "_newBaseURI",
          "type": "string"
        }
      ],
      "name": "setBaseURI",
      "outputs": [],
      "stateMutability": "nonpayable",
      "type": "function"
    },
    {
      "inputs": [
        {
          "internalType": "uint256",
          "name": "_newCost",
          "type": "uint256"
        }
      ],
      "name": "setCost",
      "outputs": [],
      "stateMutability": "nonpayable",
      "type": "function"
    },
    {
      "inputs": [
        {
          "internalType": "uint256",
          "name": "_newmaxMintAmount",
          "type": "uint256"
        }
      ],
      "name": "setmaxMintAmount",
      "outputs": [],
      "stateMutability": "nonpayable",
      "type": "function"
    },
    {
      "inputs": [
        {
          "internalType": "bytes4",
          "name": "interfaceId",
          "type": "bytes4"
        }
      ],
      "name": "supportsInterface",
      "outputs": [
        {
          "internalType": "bool",
          "name": "",
          "type": "bool"
        }
      ],
      "stateMutability": "view",
      "type": "function"
    },
    {
      "inputs": [],
      "name": "symbol",
      "outputs": [
        {
          "internalType": "string",
          "name": "",
          "type": "string"
        }
      ],
      "stateMutability": "view",
      "type": "function"
    },
    {
      "inputs": [
        {
          "internalType": "uint256",
          "name": "index",
          "type": "uint256"
        }
      ],
      "name": "tokenByIndex",
      "outputs": [
        {
          "internalType": "uint256",
          "name": "",
          "type": "uint256"
        }
      ],
      "stateMutability": "view",
      "type": "function"
    },
    {
      "inputs": [
        {
          "internalType": "address",
          "name": "owner",
          "type": "address"
        },
        {
          "internalType": "uint256",
          "name": "index",
          "type": "uint256"
        }
      ],
      "name": "tokenOfOwnerByIndex",
      "outputs": [
        {
          "internalType": "uint256",
          "name": "",
          "type": "uint256"
        }
      ],
      "stateMutability": "view",
      "type": "function"
    },
    {
      "inputs": [
        {
          "internalType": "uint256",
          "name": "tokenId",
          "type": "uint256"
        }
      ],
      "name": "tokenURI",
      "outputs": [
        {
          "internalType": "string",
          "name": "",
          "type": "string"
        }
      ],
      "stateMutability": "view",
      "type": "function"
    },
    {
      "inputs": [],
      "name": "totalSupply",
      "outputs": [
        {
          "internalType": "uint256",
          "name": "",
          "type": "uint256"
        }
      ],
      "stateMutability": "view",
      "type": "function"
    },
    {
      "inputs": [
        {
          "internalType": "address",
          "name": "from",
          "type": "address"
        },
        {
          "internalType": "address",
          "name": "to",
          "type": "address"
        },
        {
          "internalType": "uint256",
          "name": "tokenId",
          "type": "uint256"
        }
      ],
      "name": "transferFrom",
      "outputs": [],
      "stateMutability": "nonpayable",
      "type": "function"
    },
    {
      "inputs": [
        {
          "internalType": "address",
          "name": "newOwner",
          "type": "address"
        }
      ],
      "name": "transferOwnership",
      "outputs": [],
      "stateMutability": "nonpayable",
      "type": "function"
    },
    {
      "inputs": [
        {
          "internalType": "address",
          "name": "_owner",
          "type": "address"
        }
      ],
      "name": "walletOfOwner",
      "outputs": [
        {
          "internalType": "uint256[]",
          "name": "",
          "type": "uint256[]"
        }
      ],
      "stateMutability": "view",
      "type": "function"
    },
    {
      "inputs": [
        {
          "internalType": "address",
          "name": "_user",
          "type": "address"
        }
      ],
      "name": "whitelistUser",
      "outputs": [],
      "stateMutability": "nonpayable",
      "type": "function"
    },
    {
      "inputs": [
        {
          "internalType": "address",
          "name": "",
          "type": "address"
        }
      ],
      "name": "whitelisted",
      "outputs": [
        {
          "internalType": "bool",
          "name": "",
          "type": "bool"
        }
      ],
      "stateMutability": "view",
      "type": "function"
    },
    {
      "inputs": [],
      "name": "withdraw",
      "outputs": [],
      "stateMutability": "payable",
      "type": "function"
    }
  ],
  "bytecode": "0x60806040526040518060400160405280600581526020017f2e6a736f6e000000000000000000000000000000000000000000000000000000815250600c9080519060200190620000519291906200030d565b5068056bc75e2d63100000600d556103e8600e556014600f556000601060006101000a81548160ff0219169083151502179055503480156200009257600080fd5b5060405162004be238038062004be28339818101604052810190620000b8919062000446565b83838160009080519060200190620000d29291906200030d565b508060019080519060200190620000eb9291906200030d565b5050506200010e620001026200016a60201b60201c565b6200017260201b60201c565b6200011f826200023860201b60201c565b80601060016101000a81548173ffffffffffffffffffffffffffffffffffffffff021916908373ffffffffffffffffffffffffffffffffffffffff160217905550505050506200073e565b600033905090565b6000600a60009054906101000a900473ffffffffffffffffffffffffffffffffffffffff16905081600a60006101000a81548173ffffffffffffffffffffffffffffffffffffffff021916908373ffffffffffffffffffffffffffffffffffffffff1602179055508173ffffffffffffffffffffffffffffffffffffffff168173ffffffffffffffffffffffffffffffffffffffff167f8be0079c531659141344cd1fd0a4f28419497f9722a3daafe3b4186f6b6457e060405160405180910390a35050565b620002486200016a60201b60201c565b73ffffffffffffffffffffffffffffffffffffffff166200026e620002e360201b60201c565b73ffffffffffffffffffffffffffffffffffffffff1614620002c7576040517f08c379a0000000000000000000000000000000000000000000000000000000008152600401620002be9062000524565b60405180910390fd5b80600b9080519060200190620002df9291906200030d565b5050565b6000600a60009054906101000a900473ffffffffffffffffffffffffffffffffffffffff16905090565b8280546200031b9062000620565b90600052602060002090601f0160209004810192826200033f57600085556200038b565b82601f106200035a57805160ff19168380011785556200038b565b828001600101855582156200038b579182015b828111156200038a5782518255916020019190600101906200036d565b5b5090506200039a91906200039e565b5090565b5b80821115620003b95760008160009055506001016200039f565b5090565b6000620003d4620003ce846200056f565b62000546565b905082815260208101848484011115620003ed57600080fd5b620003fa848285620005ea565b509392505050565b600081519050620004138162000724565b92915050565b600082601f8301126200042b57600080fd5b81516200043d848260208601620003bd565b91505092915050565b600080600080608085870312156200045d57600080fd5b600085015167ffffffffffffffff8111156200047857600080fd5b620004868782880162000419565b945050602085015167ffffffffffffffff811115620004a457600080fd5b620004b28782880162000419565b935050604085015167ffffffffffffffff811115620004d057600080fd5b620004de8782880162000419565b9250506060620004f18782880162000402565b91505092959194509250565b60006200050c602083620005a5565b91506200051982620006fb565b602082019050919050565b600060208201905081810360008301526200053f81620004fd565b9050919050565b60006200055262000565565b905062000560828262000656565b919050565b6000604051905090565b600067ffffffffffffffff8211156200058d576200058c620006bb565b5b6200059882620006ea565b9050602081019050919050565b600082825260208201905092915050565b6000620005c382620005ca565b9050919050565b600073ffffffffffffffffffffffffffffffffffffffff82169050919050565b60005b838110156200060a578082015181840152602081019050620005ed565b838111156200061a576000848401525b50505050565b600060028204905060018216806200063957607f821691505b6020821081141562000650576200064f6200068c565b5b50919050565b6200066182620006ea565b810181811067ffffffffffffffff82111715620006835762000682620006bb565b5b80604052505050565b7f4e487b7100000000000000000000000000000000000000000000000000000000600052602260045260246000fd5b7f4e487b7100000000000000000000000000000000000000000000000000000000600052604160045260246000fd5b6000601f19601f8301169050919050565b7f4f776e61626c653a2063616c6c6572206973206e6f7420746865206f776e6572600082015250565b6200072f81620005b6565b81146200073b57600080fd5b50565b614494806200074e6000396000f3fe60806040526004361061020f5760003560e01c80635c975abb11610118578063a22cb465116100a0578063d5abeb011161006f578063d5abeb011461077f578063d936547e146107aa578063da3ef23f146107e7578063e985e9c514610810578063f2fde38b1461084d5761020f565b8063a22cb465146106c5578063b88d4fde146106ee578063c668286214610717578063c87b56dd146107425761020f565b8063715018a6116100e7578063715018a6146106135780637f00c7a61461062a5780638da5cb5b1461065357806395d89b411461067e578063a0712d68146106a95761020f565b80635c975abb146105435780636352211e1461056e5780636c0360eb146105ab57806370a08231146105d65761020f565b80632f745c591161019b578063438b63001161016a578063438b63001461044e57806344a0d68a1461048b5780634a4c560d146104b45780634f6ccce7146104dd57806355f804b31461051a5761020f565b80632f745c59146103b557806330cc7ae0146103f25780633ccfd60b1461041b57806342842e0e146104255761020f565b8063095ea7b3116101e2578063095ea7b3146102e257806313faede61461030b57806318160ddd14610336578063239c70ae1461036157806323b872dd1461038c5761020f565b806301ffc9a71461021457806302329a291461025157806306fdde031461027a578063081812fc146102a5575b600080fd5b34801561022057600080fd5b5061023b60048036038101906102369190613227565b610876565b60405161024891906137e7565b60405180910390f35b34801561025d57600080fd5b50610278600480360381019061027391906131fe565b6108f0565b005b34801561028657600080fd5b5061028f610989565b60405161029c9190613802565b60405180910390f35b3480156102b157600080fd5b506102cc60048036038101906102c791906132ba565b610a1b565b6040516102d9919061375e565b60405180910390f35b3480156102ee57600080fd5b50610309600480360381019061030491906131c2565b610aa0565b005b34801561031757600080fd5b50610320610bb8565b60405161032d9190613a64565b60405180910390f35b34801561034257600080fd5b5061034b610bbe565b6040516103589190613a64565b60405180910390f35b34801561036d57600080fd5b50610376610bcb565b6040516103839190613a64565b60405180910390f35b34801561039857600080fd5b506103b360048036038101906103ae91906130bc565b610bd1565b005b3480156103c157600080fd5b506103dc60048036038101906103d791906131c2565b610c31565b6040516103e99190613a64565b60405180910390f35b3480156103fe57600080fd5b5061041960048036038101906104149190613057565b610cd6565b005b610423610dad565b005b34801561043157600080fd5b5061044c600480360381019061044791906130bc565b610e69565b005b34801561045a57600080fd5b5061047560048036038101906104709190613057565b610e89565b60405161048291906137c5565b60405180910390f35b34801561049757600080fd5b506104b260048036038101906104ad91906132ba565b610f83565b005b3480156104c057600080fd5b506104db60048036038101906104d69190613057565b611009565b005b3480156104e957600080fd5b5061050460048036038101906104ff91906132ba565b6110e0565b6040516105119190613a64565b60405180910390f35b34801561052657600080fd5b50610541600480360381019061053c9190613279565b611177565b005b34801561054f57600080fd5b5061055861120d565b60405161056591906137e7565b60405180910390f35b34801561057a57600080fd5b50610595600480360381019061059091906132ba565b611220565b6040516105a2919061375e565b60405180910390f35b3480156105b757600080fd5b506105c06112d2565b6040516105cd9190613802565b60405180910390f35b3480156105e257600080fd5b506105fd60048036038101906105f89190613057565b611360565b60405161060a9190613a64565b60405180910390f35b34801561061f57600080fd5b50610628611418565b005b34801561063657600080fd5b50610651600480360381019061064c91906132ba565b6114a0565b005b34801561065f57600080fd5b50610668611526565b604051610675919061375e565b60405180910390f35b34801561068a57600080fd5b50610693611550565b6040516106a09190613802565b60405180910390f35b6106c360048036038101906106be91906132ba565b6115e2565b005b3480156106d157600080fd5b506106ec60048036038101906106e79190613186565b611754565b005b3480156106fa57600080fd5b506107156004803603810190610710919061310b565b61176a565b005b34801561072357600080fd5b5061072c6117cc565b6040516107399190613802565b60405180910390f35b34801561074e57600080fd5b50610769600480360381019061076491906132ba565b61185a565b6040516107769190613802565b60405180910390f35b34801561078b57600080fd5b50610794611904565b6040516107a19190613a64565b60405180910390f35b3480156107b657600080fd5b506107d160048036038101906107cc9190613057565b61190a565b6040516107de91906137e7565b60405180910390f35b3480156107f357600080fd5b5061080e60048036038101906108099190613279565b61192a565b005b34801561081c57600080fd5b5061083760048036038101906108329190613080565b6119c0565b60405161084491906137e7565b60405180910390f35b34801561085957600080fd5b50610874600480360381019061086f9190613057565b611a54565b005b60007f780e9d63000000000000000000000000000000000000000000000000000000007bffffffffffffffffffffffffffffffffffffffffffffffffffffffff1916827bffffffffffffffffffffffffffffffffffffffffffffffffffffffff191614806108e957506108e882611b4c565b5b9050919050565b6108f8611c2e565b73ffffffffffffffffffffffffffffffffffffffff16610916611526565b73ffffffffffffffffffffffffffffffffffffffff161461096c576040517f08c379a0000000000000000000000000000000000000000000000000000000008152600401610963906139c4565b60405180910390fd5b80601060006101000a81548160ff02191690831515021790555050565b60606000805461099890613d62565b80601f01602080910402602001604051908101604052809291908181526020018280546109c490613d62565b8015610a115780601f106109e657610100808354040283529160200191610a11565b820191906000526020600020905b8154815290600101906020018083116109f457829003601f168201915b5050505050905090565b6000610a2682611c36565b610a65576040517f08c379a0000000000000000000000000000000000000000000000000000000008152600401610a5c906139a4565b60405180910390fd5b6004600083815260200190815260200160002060009054906101000a900473ffffffffffffffffffffffffffffffffffffffff169050919050565b6000610aab82611220565b90508073ffffffffffffffffffffffffffffffffffffffff168373ffffffffffffffffffffffffffffffffffffffff161415610b1c576040517f08c379a0000000000000000000000000000000000000000000000000000000008152600401610b1390613a04565b60405180910390fd5b8073ffffffffffffffffffffffffffffffffffffffff16610b3b611c2e565b73ffffffffffffffffffffffffffffffffffffffff161480610b6a5750610b6981610b64611c2e565b6119c0565b5b610ba9576040517f08c379a0000000000000000000000000000000000000000000000000000000008152600401610ba090613924565b60405180910390fd5b610bb38383611ca2565b505050565b600d5481565b6000600880549050905090565b600f5481565b610be2610bdc611c2e565b82611d5b565b610c21576040517f08c379a0000000000000000000000000000000000000000000000000000000008152600401610c1890613a24565b60405180910390fd5b610c2c838383611e39565b505050565b6000610c3c83611360565b8210610c7d576040517f08c379a0000000000000000000000000000000000000000000000000000000008152600401610c7490613824565b60405180910390fd5b600660008473ffffffffffffffffffffffffffffffffffffffff1673ffffffffffffffffffffffffffffffffffffffff168152602001908152602001600020600083815260200190815260200160002054905092915050565b610cde611c2e565b73ffffffffffffffffffffffffffffffffffffffff16610cfc611526565b73ffffffffffffffffffffffffffffffffffffffff1614610d52576040517f08c379a0000000000000000000000000000000000000000000000000000000008152600401610d49906139c4565b60405180910390fd5b6000601160008373ffffffffffffffffffffffffffffffffffffffff1673ffffffffffffffffffffffffffffffffffffffff16815260200190815260200160002060006101000a81548160ff02191690831515021790555050565b610db5611c2e565b73ffffffffffffffffffffffffffffffffffffffff16610dd3611526565b73ffffffffffffffffffffffffffffffffffffffff1614610e29576040517f08c379a0000000000000000000000000000000000000000000000000000000008152600401610e20906139c4565b60405180910390fd5b3373ffffffffffffffffffffffffffffffffffffffff166108fc479081150290604051600060405180830381858888f19350505050610e6757600080fd5b565b610e848383836040518060200160405280600081525061176a565b505050565b60606000610e9683611360565b905060008167ffffffffffffffff811115610eda577f4e487b7100000000000000000000000000000000000000000000000000000000600052604160045260246000fd5b604051908082528060200260200182016040528015610f085781602001602082028036833780820191505090505b50905060005b82811015610f7857610f208582610c31565b828281518110610f59577f4e487b7100000000000000000000000000000000000000000000000000000000600052603260045260246000fd5b6020026020010181815250508080610f7090613dc5565b915050610f0e565b508092505050919050565b610f8b611c2e565b73ffffffffffffffffffffffffffffffffffffffff16610fa9611526565b73ffffffffffffffffffffffffffffffffffffffff1614610fff576040517f08c379a0000000000000000000000000000000000000000000000000000000008152600401610ff6906139c4565b60405180910390fd5b80600d8190555050565b611011611c2e565b73ffffffffffffffffffffffffffffffffffffffff1661102f611526565b73ffffffffffffffffffffffffffffffffffffffff1614611085576040517f08c379a000000000000000000000000000000000000000000000000000000000815260040161107c906139c4565b60405180910390fd5b6001601160008373ffffffffffffffffffffffffffffffffffffffff1673ffffffffffffffffffffffffffffffffffffffff16815260200190815260200160002060006101000a81548160ff02191690831515021790555050565b60006110ea610bbe565b821061112b576040517f08c379a000000000000000000000000000000000000000000000000000000000815260040161112290613a44565b60405180910390fd5b60088281548110611165577f4e487b7100000000000000000000000000000000000000000000000000000000600052603260045260246000fd5b90600052602060002001549050919050565b61117f611c2e565b73ffffffffffffffffffffffffffffffffffffffff1661119d611526565b73ffffffffffffffffffffffffffffffffffffffff16146111f3576040517f08c379a00000000000000000000000000000000000000000000000000000000081526004016111ea906139c4565b60405180910390fd5b80600b9080519060200190611209929190612e7b565b5050565b601060009054906101000a900460ff1681565b6000806002600084815260200190815260200160002060009054906101000a900473ffffffffffffffffffffffffffffffffffffffff169050600073ffffffffffffffffffffffffffffffffffffffff168173ffffffffffffffffffffffffffffffffffffffff1614156112c9576040517f08c379a00000000000000000000000000000000000000000000000000000000081526004016112c090613964565b60405180910390fd5b80915050919050565b600b80546112df90613d62565b80601f016020809104026020016040519081016040528092919081815260200182805461130b90613d62565b80156113585780601f1061132d57610100808354040283529160200191611358565b820191906000526020600020905b81548152906001019060200180831161133b57829003601f168201915b505050505081565b60008073ffffffffffffffffffffffffffffffffffffffff168273ffffffffffffffffffffffffffffffffffffffff1614156113d1576040517f08c379a00000000000000000000000000000000000000000000000000000000081526004016113c890613944565b60405180910390fd5b600360008373ffffffffffffffffffffffffffffffffffffffff1673ffffffffffffffffffffffffffffffffffffffff168152602001908152602001600020549050919050565b611420611c2e565b73ffffffffffffffffffffffffffffffffffffffff1661143e611526565b73ffffffffffffffffffffffffffffffffffffffff1614611494576040517f08c379a000000000000000000000000000000000000000000000000000000000815260040161148b906139c4565b60405180910390fd5b61149e60006120a0565b565b6114a8611c2e565b73ffffffffffffffffffffffffffffffffffffffff166114c6611526565b73ffffffffffffffffffffffffffffffffffffffff161461151c576040517f08c379a0000000000000000000000000000000000000000000000000000000008152600401611513906139c4565b60405180910390fd5b80600f8190555050565b6000600a60009054906101000a900473ffffffffffffffffffffffffffffffffffffffff16905090565b60606001805461155f90613d62565b80601f016020809104026020016040519081016040528092919081815260200182805461158b90613d62565b80156115d85780601f106115ad576101008083540402835291602001916115d8565b820191906000526020600020905b8154815290600101906020018083116115bb57829003601f168201915b5050505050905090565b60006115ec610bbe565b9050601060009054906101000a900460ff161561160857600080fd5b6000821161161557600080fd5b600f5482111561162457600080fd5b600e5482826116339190613b97565b111561163e57600080fd5b611646611526565b73ffffffffffffffffffffffffffffffffffffffff163373ffffffffffffffffffffffffffffffffffffffff16146116ec5760011515601160003373ffffffffffffffffffffffffffffffffffffffff1673ffffffffffffffffffffffffffffffffffffffff16815260200190815260200160002060009054906101000a900460ff161515146116eb5781600d546116de9190613c1e565b3410156116ea57600080fd5b5b5b6000600190505b82811161174f5761170f33828461170a9190613b97565b612166565b61173c601060019054906101000a900473ffffffffffffffffffffffffffffffffffffffff166001611754565b808061174790613dc5565b9150506116f3565b505050565b61176661175f611c2e565b8383612184565b5050565b61177b611775611c2e565b83611d5b565b6117ba576040517f08c379a00000000000000000000000000000000000000000000000000000000081526004016117b190613a24565b60405180910390fd5b6117c6848484846122f1565b50505050565b600c80546117d990613d62565b80601f016020809104026020016040519081016040528092919081815260200182805461180590613d62565b80156118525780601f1061182757610100808354040283529160200191611852565b820191906000526020600020905b81548152906001019060200180831161183557829003601f168201915b505050505081565b606061186582611c36565b6118a4576040517f08c379a000000000000000000000000000000000000000000000000000000000815260040161189b906139e4565b60405180910390fd5b60006118ae61234d565b905060008151116118ce57604051806020016040528060008152506118fc565b806118d8846123df565b600c6040516020016118ec9392919061372d565b6040516020818303038152906040525b915050919050565b600e5481565b60116020528060005260406000206000915054906101000a900460ff1681565b611932611c2e565b73ffffffffffffffffffffffffffffffffffffffff16611950611526565b73ffffffffffffffffffffffffffffffffffffffff16146119a6576040517f08c379a000000000000000000000000000000000000000000000000000000000815260040161199d906139c4565b60405180910390fd5b80600c90805190602001906119bc929190612e7b565b5050565b6000600560008473ffffffffffffffffffffffffffffffffffffffff1673ffffffffffffffffffffffffffffffffffffffff16815260200190815260200160002060008373ffffffffffffffffffffffffffffffffffffffff1673ffffffffffffffffffffffffffffffffffffffff16815260200190815260200160002060009054906101000a900460ff16905092915050565b611a5c611c2e565b73ffffffffffffffffffffffffffffffffffffffff16611a7a611526565b73ffffffffffffffffffffffffffffffffffffffff1614611ad0576040517f08c379a0000000000000000000000000000000000000000000000000000000008152600401611ac7906139c4565b60405180910390fd5b600073ffffffffffffffffffffffffffffffffffffffff168173ffffffffffffffffffffffffffffffffffffffff161415611b40576040517f08c379a0000000000000000000000000000000000000000000000000000000008152600401611b3790613864565b60405180910390fd5b611b49816120a0565b50565b60007f80ac58cd000000000000000000000000000000000000000000000000000000007bffffffffffffffffffffffffffffffffffffffffffffffffffffffff1916827bffffffffffffffffffffffffffffffffffffffffffffffffffffffff19161480611c1757507f5b5e139f000000000000000000000000000000000000000000000000000000007bffffffffffffffffffffffffffffffffffffffffffffffffffffffff1916827bffffffffffffffffffffffffffffffffffffffffffffffffffffffff1916145b80611c275750611c268261258c565b5b9050919050565b600033905090565b60008073ffffffffffffffffffffffffffffffffffffffff166002600084815260200190815260200160002060009054906101000a900473ffffffffffffffffffffffffffffffffffffffff1673ffffffffffffffffffffffffffffffffffffffff1614159050919050565b816004600083815260200190815260200160002060006101000a81548173ffffffffffffffffffffffffffffffffffffffff021916908373ffffffffffffffffffffffffffffffffffffffff160217905550808273ffffffffffffffffffffffffffffffffffffffff16611d1583611220565b73ffffffffffffffffffffffffffffffffffffffff167f8c5be1e5ebec7d5bd14f71427d1e84f3dd0314c0f7b2291e5b200ac8c7c3b92560405160405180910390a45050565b6000611d6682611c36565b611da5576040517f08c379a0000000000000000000000000000000000000000000000000000000008152600401611d9c90613904565b60405180910390fd5b6000611db083611220565b90508073ffffffffffffffffffffffffffffffffffffffff168473ffffffffffffffffffffffffffffffffffffffff161480611e1f57508373ffffffffffffffffffffffffffffffffffffffff16611e0784610a1b565b73ffffffffffffffffffffffffffffffffffffffff16145b80611e305750611e2f81856119c0565b5b91505092915050565b8273ffffffffffffffffffffffffffffffffffffffff16611e5982611220565b73ffffffffffffffffffffffffffffffffffffffff1614611eaf576040517f08c379a0000000000000000000000000000000000000000000000000000000008152600401611ea690613884565b60405180910390fd5b600073ffffffffffffffffffffffffffffffffffffffff168273ffffffffffffffffffffffffffffffffffffffff161415611f1f576040517f08c379a0000000000000000000000000000000000000000000000000000000008152600401611f16906138c4565b60405180910390fd5b611f2a8383836125f6565b611f35600082611ca2565b6001600360008573ffffffffffffffffffffffffffffffffffffffff1673ffffffffffffffffffffffffffffffffffffffff1681526020019081526020016000206000828254611f859190613c78565b925050819055506001600360008473ffffffffffffffffffffffffffffffffffffffff1673ffffffffffffffffffffffffffffffffffffffff1681526020019081526020016000206000828254611fdc9190613b97565b92505081905550816002600083815260200190815260200160002060006101000a81548173ffffffffffffffffffffffffffffffffffffffff021916908373ffffffffffffffffffffffffffffffffffffffff160217905550808273ffffffffffffffffffffffffffffffffffffffff168473ffffffffffffffffffffffffffffffffffffffff167fddf252ad1be2c89b69c2b068fc378daa952ba7f163c4a11628f55a4df523b3ef60405160405180910390a461209b83838361270a565b505050565b6000600a60009054906101000a900473ffffffffffffffffffffffffffffffffffffffff16905081600a60006101000a81548173ffffffffffffffffffffffffffffffffffffffff021916908373ffffffffffffffffffffffffffffffffffffffff1602179055508173ffffffffffffffffffffffffffffffffffffffff168173ffffffffffffffffffffffffffffffffffffffff167f8be0079c531659141344cd1fd0a4f28419497f9722a3daafe3b4186f6b6457e060405160405180910390a35050565b61218082826040518060200160405280600081525061270f565b5050565b8173ffffffffffffffffffffffffffffffffffffffff168373ffffffffffffffffffffffffffffffffffffffff1614156121f3576040517f08c379a00000000000000000000000000000000000000000000000000000000081526004016121ea906138e4565b60405180910390fd5b80600560008573ffffffffffffffffffffffffffffffffffffffff1673ffffffffffffffffffffffffffffffffffffffff16815260200190815260200160002060008473ffffffffffffffffffffffffffffffffffffffff1673ffffffffffffffffffffffffffffffffffffffff16815260200190815260200160002060006101000a81548160ff0219169083151502179055508173ffffffffffffffffffffffffffffffffffffffff168373ffffffffffffffffffffffffffffffffffffffff167f17307eab39ab6107e8899845ad3d59bd9653f200f220920489ca2b5937696c31836040516122e491906137e7565b60405180910390a3505050565b6122fc848484611e39565b6123088484848461276a565b612347576040517f08c379a000000000000000000000000000000000000000000000000000000000815260040161233e90613844565b60405180910390fd5b50505050565b6060600b805461235c90613d62565b80601f016020809104026020016040519081016040528092919081815260200182805461238890613d62565b80156123d55780601f106123aa576101008083540402835291602001916123d5565b820191906000526020600020905b8154815290600101906020018083116123b857829003601f168201915b5050505050905090565b60606000821415612427576040518060400160405280600181526020017f30000000000000000000000000000000000000000000000000000000000000008152509050612587565b600082905060005b6000821461245957808061244290613dc5565b915050600a826124529190613bed565b915061242f565b60008167ffffffffffffffff81111561249b577f4e487b7100000000000000000000000000000000000000000000000000000000600052604160045260246000fd5b6040519080825280601f01601f1916602001820160405280156124cd5781602001600182028036833780820191505090505b5090505b60008514612580576001826124e69190613c78565b9150600a856124f59190613e0e565b60306125019190613b97565b60f81b81838151811061253d577f4e487b7100000000000000000000000000000000000000000000000000000000600052603260045260246000fd5b60200101907effffffffffffffffffffffffffffffffffffffffffffffffffffffffffffff1916908160001a905350600a856125799190613bed565b94506124d1565b8093505050505b919050565b60007f01ffc9a7000000000000000000000000000000000000000000000000000000007bffffffffffffffffffffffffffffffffffffffffffffffffffffffff1916827bffffffffffffffffffffffffffffffffffffffffffffffffffffffff1916149050919050565b612601838383612901565b600073ffffffffffffffffffffffffffffffffffffffff168373ffffffffffffffffffffffffffffffffffffffff1614156126445761263f81612906565b612683565b8173ffffffffffffffffffffffffffffffffffffffff168373ffffffffffffffffffffffffffffffffffffffff161461268257612681838261294f565b5b5b600073ffffffffffffffffffffffffffffffffffffffff168273ffffffffffffffffffffffffffffffffffffffff1614156126c6576126c181612abc565b612705565b8273ffffffffffffffffffffffffffffffffffffffff168273ffffffffffffffffffffffffffffffffffffffff1614612704576127038282612bff565b5b5b505050565b505050565b6127198383612c7e565b612726600084848461276a565b612765576040517f08c379a000000000000000000000000000000000000000000000000000000000815260040161275c90613844565b60405180910390fd5b505050565b600061278b8473ffffffffffffffffffffffffffffffffffffffff16612e58565b156128f4578373ffffffffffffffffffffffffffffffffffffffff1663150b7a026127b4611c2e565b8786866040518563ffffffff1660e01b81526004016127d69493929190613779565b602060405180830381600087803b1580156127f057600080fd5b505af192505050801561282157506040513d601f19601f8201168201806040525081019061281e9190613250565b60015b6128a4573d8060008114612851576040519150601f19603f3d011682016040523d82523d6000602084013e612856565b606091505b5060008151141561289c576040517f08c379a000000000000000000000000000000000000000000000000000000000815260040161289390613844565b60405180910390fd5b805181602001fd5b63150b7a0260e01b7bffffffffffffffffffffffffffffffffffffffffffffffffffffffff1916817bffffffffffffffffffffffffffffffffffffffffffffffffffffffff1916149150506128f9565b600190505b949350505050565b505050565b6008805490506009600083815260200190815260200160002081905550600881908060018154018082558091505060019003906000526020600020016000909190919091505550565b6000600161295c84611360565b6129669190613c78565b9050600060076000848152602001908152602001600020549050818114612a4b576000600660008673ffffffffffffffffffffffffffffffffffffffff1673ffffffffffffffffffffffffffffffffffffffff168152602001908152602001600020600084815260200190815260200160002054905080600660008773ffffffffffffffffffffffffffffffffffffffff1673ffffffffffffffffffffffffffffffffffffffff168152602001908152602001600020600084815260200190815260200160002081905550816007600083815260200190815260200160002081905550505b6007600084815260200190815260200160002060009055600660008573ffffffffffffffffffffffffffffffffffffffff1673ffffffffffffffffffffffffffffffffffffffff16815260200190815260200160002060008381526020019081526020016000206000905550505050565b60006001600880549050612ad09190613c78565b9050600060096000848152602001908152602001600020549050600060088381548110612b26577f4e487b7100000000000000000000000000000000000000000000000000000000600052603260045260246000fd5b906000526020600020015490508060088381548110612b6e577f4e487b7100000000000000000000000000000000000000000000000000000000600052603260045260246000fd5b906000526020600020018190555081600960008381526020019081526020016000208190555060096000858152602001908152602001600020600090556008805480612be3577f4e487b7100000000000000000000000000000000000000000000000000000000600052603160045260246000fd5b6001900381819060005260206000200160009055905550505050565b6000612c0a83611360565b905081600660008573ffffffffffffffffffffffffffffffffffffffff1673ffffffffffffffffffffffffffffffffffffffff168152602001908152602001600020600083815260200190815260200160002081905550806007600084815260200190815260200160002081905550505050565b600073ffffffffffffffffffffffffffffffffffffffff168273ffffffffffffffffffffffffffffffffffffffff161415612cee576040517f08c379a0000000000000000000000000000000000000000000000000000000008152600401612ce590613984565b60405180910390fd5b612cf781611c36565b15612d37576040517f08c379a0000000000000000000000000000000000000000000000000000000008152600401612d2e906138a4565b60405180910390fd5b612d43600083836125f6565b6001600360008473ffffffffffffffffffffffffffffffffffffffff1673ffffffffffffffffffffffffffffffffffffffff1681526020019081526020016000206000828254612d939190613b97565b92505081905550816002600083815260200190815260200160002060006101000a81548173ffffffffffffffffffffffffffffffffffffffff021916908373ffffffffffffffffffffffffffffffffffffffff160217905550808273ffffffffffffffffffffffffffffffffffffffff16600073ffffffffffffffffffffffffffffffffffffffff167fddf252ad1be2c89b69c2b068fc378daa952ba7f163c4a11628f55a4df523b3ef60405160405180910390a4612e546000838361270a565b5050565b6000808273ffffffffffffffffffffffffffffffffffffffff163b119050919050565b828054612e8790613d62565b90600052602060002090601f016020900481019282612ea95760008555612ef0565b82601f10612ec257805160ff1916838001178555612ef0565b82800160010185558215612ef0579182015b82811115612eef578251825591602001919060010190612ed4565b5b509050612efd9190612f01565b5090565b5b80821115612f1a576000816000905550600101612f02565b5090565b6000612f31612f2c84613aa4565b613a7f565b905082815260208101848484011115612f4957600080fd5b612f54848285613d20565b509392505050565b6000612f6f612f6a84613ad5565b613a7f565b905082815260208101848484011115612f8757600080fd5b612f92848285613d20565b509392505050565b600081359050612fa981614402565b92915050565b600081359050612fbe81614419565b92915050565b600081359050612fd381614430565b92915050565b600081519050612fe881614430565b92915050565b600082601f830112612fff57600080fd5b813561300f848260208601612f1e565b91505092915050565b600082601f83011261302957600080fd5b8135613039848260208601612f5c565b91505092915050565b60008135905061305181614447565b92915050565b60006020828403121561306957600080fd5b600061307784828501612f9a565b91505092915050565b6000806040838503121561309357600080fd5b60006130a185828601612f9a565b92505060206130b285828601612f9a565b9150509250929050565b6000806000606084860312156130d157600080fd5b60006130df86828701612f9a565b93505060206130f086828701612f9a565b925050604061310186828701613042565b9150509250925092565b6000806000806080858703121561312157600080fd5b600061312f87828801612f9a565b945050602061314087828801612f9a565b935050604061315187828801613042565b925050606085013567ffffffffffffffff81111561316e57600080fd5b61317a87828801612fee565b91505092959194509250565b6000806040838503121561319957600080fd5b60006131a785828601612f9a565b92505060206131b885828601612faf565b9150509250929050565b600080604083850312156131d557600080fd5b60006131e385828601612f9a565b92505060206131f485828601613042565b9150509250929050565b60006020828403121561321057600080fd5b600061321e84828501612faf565b91505092915050565b60006020828403121561323957600080fd5b600061324784828501612fc4565b91505092915050565b60006020828403121561326257600080fd5b600061327084828501612fd9565b91505092915050565b60006020828403121561328b57600080fd5b600082013567ffffffffffffffff8111156132a557600080fd5b6132b184828501613018565b91505092915050565b6000602082840312156132cc57600080fd5b60006132da84828501613042565b91505092915050565b60006132ef838361370f565b60208301905092915050565b61330481613cac565b82525050565b600061331582613b2b565b61331f8185613b59565b935061332a83613b06565b8060005b8381101561335b57815161334288826132e3565b975061334d83613b4c565b92505060018101905061332e565b5085935050505092915050565b61337181613cbe565b82525050565b600061338282613b36565b61338c8185613b6a565b935061339c818560208601613d2f565b6133a581613efb565b840191505092915050565b60006133bb82613b41565b6133c58185613b7b565b93506133d5818560208601613d2f565b6133de81613efb565b840191505092915050565b60006133f482613b41565b6133fe8185613b8c565b935061340e818560208601613d2f565b80840191505092915050565b6000815461342781613d62565b6134318186613b8c565b9450600182166000811461344c576001811461345d57613490565b60ff19831686528186019350613490565b61346685613b16565b60005b8381101561348857815481890152600182019150602081019050613469565b838801955050505b50505092915050565b60006134a6602b83613b7b565b91506134b182613f0c565b604082019050919050565b60006134c9603283613b7b565b91506134d482613f5b565b604082019050919050565b60006134ec602683613b7b565b91506134f782613faa565b604082019050919050565b600061350f602583613b7b565b915061351a82613ff9565b604082019050919050565b6000613532601c83613b7b565b915061353d82614048565b602082019050919050565b6000613555602483613b7b565b915061356082614071565b604082019050919050565b6000613578601983613b7b565b9150613583826140c0565b602082019050919050565b600061359b602c83613b7b565b91506135a6826140e9565b604082019050919050565b60006135be603883613b7b565b91506135c982614138565b604082019050919050565b60006135e1602a83613b7b565b91506135ec82614187565b604082019050919050565b6000613604602983613b7b565b915061360f826141d6565b604082019050919050565b6000613627602083613b7b565b915061363282614225565b602082019050919050565b600061364a602c83613b7b565b91506136558261424e565b604082019050919050565b600061366d602083613b7b565b91506136788261429d565b602082019050919050565b6000613690602f83613b7b565b915061369b826142c6565b604082019050919050565b60006136b3602183613b7b565b91506136be82614315565b604082019050919050565b60006136d6603183613b7b565b91506136e182614364565b604082019050919050565b60006136f9602c83613b7b565b9150613704826143b3565b604082019050919050565b61371881613d16565b82525050565b61372781613d16565b82525050565b600061373982866133e9565b915061374582856133e9565b9150613751828461341a565b9150819050949350505050565b600060208201905061377360008301846132fb565b92915050565b600060808201905061378e60008301876132fb565b61379b60208301866132fb565b6137a8604083018561371e565b81810360608301526137ba8184613377565b905095945050505050565b600060208201905081810360008301526137df818461330a565b905092915050565b60006020820190506137fc6000830184613368565b92915050565b6000602082019050818103600083015261381c81846133b0565b905092915050565b6000602082019050818103600083015261383d81613499565b9050919050565b6000602082019050818103600083015261385d816134bc565b9050919050565b6000602082019050818103600083015261387d816134df565b9050919050565b6000602082019050818103600083015261389d81613502565b9050919050565b600060208201905081810360008301526138bd81613525565b9050919050565b600060208201905081810360008301526138dd81613548565b9050919050565b600060208201905081810360008301526138fd8161356b565b9050919050565b6000602082019050818103600083015261391d8161358e565b9050919050565b6000602082019050818103600083015261393d816135b1565b9050919050565b6000602082019050818103600083015261395d816135d4565b9050919050565b6000602082019050818103600083015261397d816135f7565b9050919050565b6000602082019050818103600083015261399d8161361a565b9050919050565b600060208201905081810360008301526139bd8161363d565b9050919050565b600060208201905081810360008301526139dd81613660565b9050919050565b600060208201905081810360008301526139fd81613683565b9050919050565b60006020820190508181036000830152613a1d816136a6565b9050919050565b60006020820190508181036000830152613a3d816136c9565b9050919050565b60006020820190508181036000830152613a5d816136ec565b9050919050565b6000602082019050613a79600083018461371e565b92915050565b6000613a89613a9a565b9050613a958282613d94565b919050565b6000604051905090565b600067ffffffffffffffff821115613abf57613abe613ecc565b5b613ac882613efb565b9050602081019050919050565b600067ffffffffffffffff821115613af057613aef613ecc565b5b613af982613efb565b9050602081019050919050565b6000819050602082019050919050565b60008190508160005260206000209050919050565b600081519050919050565b600081519050919050565b600081519050919050565b6000602082019050919050565b600082825260208201905092915050565b600082825260208201905092915050565b600082825260208201905092915050565b600081905092915050565b6000613ba282613d16565b9150613bad83613d16565b9250827fffffffffffffffffffffffffffffffffffffffffffffffffffffffffffffffff03821115613be257613be1613e3f565b5b828201905092915050565b6000613bf882613d16565b9150613c0383613d16565b925082613c1357613c12613e6e565b5b828204905092915050565b6000613c2982613d16565b9150613c3483613d16565b9250817fffffffffffffffffffffffffffffffffffffffffffffffffffffffffffffffff0483118215151615613c6d57613c6c613e3f565b5b828202905092915050565b6000613c8382613d16565b9150613c8e83613d16565b925082821015613ca157613ca0613e3f565b5b828203905092915050565b6000613cb782613cf6565b9050919050565b60008115159050919050565b60007fffffffff0000000000000000000000000000000000000000000000000000000082169050919050565b600073ffffffffffffffffffffffffffffffffffffffff82169050919050565b6000819050919050565b82818337600083830152505050565b60005b83811015613d4d578082015181840152602081019050613d32565b83811115613d5c576000848401525b50505050565b60006002820490506001821680613d7a57607f821691505b60208210811415613d8e57613d8d613e9d565b5b50919050565b613d9d82613efb565b810181811067ffffffffffffffff82111715613dbc57613dbb613ecc565b5b80604052505050565b6000613dd082613d16565b91507fffffffffffffffffffffffffffffffffffffffffffffffffffffffffffffffff821415613e0357613e02613e3f565b5b600182019050919050565b6000613e1982613d16565b9150613e2483613d16565b925082613e3457613e33613e6e565b5b828206905092915050565b7f4e487b7100000000000000000000000000000000000000000000000000000000600052601160045260246000fd5b7f4e487b7100000000000000000000000000000000000000000000000000000000600052601260045260246000fd5b7f4e487b7100000000000000000000000000000000000000000000000000000000600052602260045260246000fd5b7f4e487b7100000000000000000000000000000000000000000000000000000000600052604160045260246000fd5b6000601f19601f8301169050919050565b7f455243373231456e756d657261626c653a206f776e657220696e646578206f7560008201527f74206f6620626f756e6473000000000000000000000000000000000000000000602082015250565b7f4552433732313a207472616e7366657220746f206e6f6e20455243373231526560008201527f63656976657220696d706c656d656e7465720000000000000000000000000000602082015250565b7f4f776e61626c653a206e6577206f776e657220697320746865207a65726f206160008201527f6464726573730000000000000000000000000000000000000000000000000000602082015250565b7f4552433732313a207472616e736665722066726f6d20696e636f72726563742060008201527f6f776e6572000000000000000000000000000000000000000000000000000000602082015250565b7f4552433732313a20746f6b656e20616c7265616479206d696e74656400000000600082015250565b7f4552433732313a207472616e7366657220746f20746865207a65726f2061646460008201527f7265737300000000000000000000000000000000000000000000000000000000602082015250565b7f4552433732313a20617070726f766520746f2063616c6c657200000000000000600082015250565b7f4552433732313a206f70657261746f7220717565727920666f72206e6f6e657860008201527f697374656e7420746f6b656e0000000000000000000000000000000000000000602082015250565b7f4552433732313a20617070726f76652063616c6c6572206973206e6f74206f7760008201527f6e6572206e6f7220617070726f76656420666f7220616c6c0000000000000000602082015250565b7f4552433732313a2062616c616e636520717565727920666f7220746865207a6560008201527f726f206164647265737300000000000000000000000000000000000000000000602082015250565b7f4552433732313a206f776e657220717565727920666f72206e6f6e657869737460008201527f656e7420746f6b656e0000000000000000000000000000000000000000000000602082015250565b7f4552433732313a206d696e7420746f20746865207a65726f2061646472657373600082015250565b7f4552433732313a20617070726f76656420717565727920666f72206e6f6e657860008201527f697374656e7420746f6b656e0000000000000000000000000000000000000000602082015250565b7f4f776e61626c653a2063616c6c6572206973206e6f7420746865206f776e6572600082015250565b7f4552433732314d657461646174613a2055524920717565727920666f72206e6f60008201527f6e6578697374656e7420746f6b656e0000000000000000000000000000000000602082015250565b7f4552433732313a20617070726f76616c20746f2063757272656e74206f776e6560008201527f7200000000000000000000000000000000000000000000000000000000000000602082015250565b7f4552433732313a207472616e736665722063616c6c6572206973206e6f74206f60008201527f776e6572206e6f7220617070726f766564000000000000000000000000000000602082015250565b7f455243373231456e756d657261626c653a20676c6f62616c20696e646578206f60008201527f7574206f6620626f756e64730000000000000000000000000000000000000000602082015250565b61440b81613cac565b811461441657600080fd5b50565b61442281613cbe565b811461442d57600080fd5b50565b61443981613cca565b811461444457600080fd5b50565b61445081613d16565b811461445b57600080fd5b5056fea2646970667358221220147549d4bb6cbe6eb7405f23fcde5fc64a1cbeb3350f13af2dd00d7e6f01b40a64736f6c63430008040033",
  "linkReferences": {},
  "deployedLinkReferences": {}
}