{
  "_format": "hh-sol-artifact-1",
  "contractName": "DrinkingTrees",
  "sourceName": "contracts/DrinkingTreesCollection1.sol",
  "abi": [
    {
      "inputs": [
        {
          "internalType": "string",
          "name": "_name",
          "type": "string"
        },
        {
          "internalType": "string",
          "name": "_symbol",
          "type": "string"
        },
        {
          "internalType": "string",
          "name": "_initBaseURI",
          "type": "string"
        },
        {
          "internalType": "address",
          "name": "_marketAddress",
          "type": "address"
        },
        {
          "internalType": "address",
          "name": "_bankAddress",
          "type": "address"
        }
      ],
      "stateMutability": "nonpayable",
      "type": "constructor"
    },
    {
      "anonymous": false,
      "inputs": [
        {
          "indexed": true,
          "internalType": "address",
          "name": "owner",
          "type": "address"
        },
        {
          "indexed": true,
          "internalType": "address",
          "name": "approved",
          "type": "address"
        },
        {
          "indexed": true,
          "internalType": "uint256",
          "name": "tokenId",
          "type": "uint256"
        }
      ],
      "name": "Approval",
      "type": "event"
    },
    {
      "anonymous": false,
      "inputs": [
        {
          "indexed": true,
          "internalType": "address",
          "name": "owner",
          "type": "address"
        },
        {
          "indexed": true,
          "internalType": "address",
          "name": "operator",
          "type": "address"
        },
        {
          "indexed": false,
          "internalType": "bool",
          "name": "approved",
          "type": "bool"
        }
      ],
      "name": "ApprovalForAll",
      "type": "event"
    },
    {
      "anonymous": false,
      "inputs": [
        {
          "indexed": true,
          "internalType": "address",
          "name": "previousOwner",
          "type": "address"
        },
        {
          "indexed": true,
          "internalType": "address",
          "name": "newOwner",
          "type": "address"
        }
      ],
      "name": "OwnershipTransferred",
      "type": "event"
    },
    {
      "anonymous": false,
      "inputs": [
        {
          "indexed": true,
          "internalType": "address",
          "name": "from",
          "type": "address"
        },
        {
          "indexed": true,
          "internalType": "address",
          "name": "to",
          "type": "address"
        },
        {
          "indexed": true,
          "internalType": "uint256",
          "name": "tokenId",
          "type": "uint256"
        }
      ],
      "name": "Transfer",
      "type": "event"
    },
    {
      "inputs": [
        {
          "internalType": "address",
          "name": "to",
          "type": "address"
        },
        {
          "internalType": "uint256",
          "name": "tokenId",
          "type": "uint256"
        }
      ],
      "name": "approve",
      "outputs": [],
      "stateMutability": "nonpayable",
      "type": "function"
    },
    {
      "inputs": [
        {
          "internalType": "address",
          "name": "owner",
          "type": "address"
        }
      ],
      "name": "balanceOf",
      "outputs": [
        {
          "internalType": "uint256",
          "name": "",
          "type": "uint256"
        }
      ],
      "stateMutability": "view",
      "type": "function"
    },
    {
      "inputs": [],
      "name": "baseExtension",
      "outputs": [
        {
          "internalType": "string",
          "name": "",
          "type": "string"
        }
      ],
      "stateMutability": "view",
      "type": "function"
    },
    {
      "inputs": [],
      "name": "baseURI",
      "outputs": [
        {
          "internalType": "string",
          "name": "",
          "type": "string"
        }
      ],
      "stateMutability": "view",
      "type": "function"
    },
    {
      "inputs": [],
      "name": "cost",
      "outputs": [
        {
          "internalType": "uint256",
          "name": "",
          "type": "uint256"
        }
      ],
      "stateMutability": "view",
      "type": "function"
    },
    {
      "inputs": [
        {
          "internalType": "uint256",
          "name": "tokenId",
          "type": "uint256"
        }
      ],
      "name": "getApproved",
      "outputs": [
        {
          "internalType": "address",
          "name": "",
          "type": "address"
        }
      ],
      "stateMutability": "view",
      "type": "function"
    },
    {
      "inputs": [
        {
          "internalType": "address",
          "name": "owner",
          "type": "address"
        },
        {
          "internalType": "address",
          "name": "operator",
          "type": "address"
        }
      ],
      "name": "isApprovedForAll",
      "outputs": [
        {
          "internalType": "bool",
          "name": "",
          "type": "bool"
        }
      ],
      "stateMutability": "view",
      "type": "function"
    },
    {
      "inputs": [],
      "name": "maxSupply",
      "outputs": [
        {
          "internalType": "uint256",
          "name": "",
          "type": "uint256"
        }
      ],
      "stateMutability": "view",
      "type": "function"
    },
    {
      "inputs": [],
      "name": "mint",
      "outputs": [],
      "stateMutability": "payable",
      "type": "function"
    },
    {
      "inputs": [],
      "name": "name",
      "outputs": [
        {
          "internalType": "string",
          "name": "",
          "type": "string"
        }
      ],
      "stateMutability": "view",
      "type": "function"
    },
    {
      "inputs": [],
      "name": "owner",
      "outputs": [
        {
          "internalType": "address",
          "name": "",
          "type": "address"
        }
      ],
      "stateMutability": "view",
      "type": "function"
    },
    {
      "inputs": [
        {
          "internalType": "uint256",
          "name": "tokenId",
          "type": "uint256"
        }
      ],
      "name": "ownerOf",
      "outputs": [
        {
          "internalType": "address",
          "name": "",
          "type": "address"
        }
      ],
      "stateMutability": "view",
      "type": "function"
    },
    {
      "inputs": [
        {
          "internalType": "bool",
          "name": "_state",
          "type": "bool"
        }
      ],
      "name": "pause",
      "outputs": [],
      "stateMutability": "nonpayable",
      "type": "function"
    },
    {
      "inputs": [],
      "name": "paused",
      "outputs": [
        {
          "internalType": "bool",
          "name": "",
          "type": "bool"
        }
      ],
      "stateMutability": "view",
      "type": "function"
    },
    {
      "inputs": [
        {
          "internalType": "address",
          "name": "_user",
          "type": "address"
        }
      ],
      "name": "removeWhitelistUser",
      "outputs": [],
      "stateMutability": "nonpayable",
      "type": "function"
    },
    {
      "inputs": [],
      "name": "renounceOwnership",
      "outputs": [],
      "stateMutability": "nonpayable",
      "type": "function"
    },
    {
      "inputs": [
        {
          "internalType": "address",
          "name": "from",
          "type": "address"
        },
        {
          "internalType": "address",
          "name": "to",
          "type": "address"
        },
        {
          "internalType": "uint256",
          "name": "tokenId",
          "type": "uint256"
        }
      ],
      "name": "safeTransferFrom",
      "outputs": [],
      "stateMutability": "nonpayable",
      "type": "function"
    },
    {
      "inputs": [
        {
          "internalType": "address",
          "name": "from",
          "type": "address"
        },
        {
          "internalType": "address",
          "name": "to",
          "type": "address"
        },
        {
          "internalType": "uint256",
          "name": "tokenId",
          "type": "uint256"
        },
        {
          "internalType": "bytes",
          "name": "_data",
          "type": "bytes"
        }
      ],
      "name": "safeTransferFrom",
      "outputs": [],
      "stateMutability": "nonpayable",
      "type": "function"
    },
    {
      "inputs": [
        {
          "internalType": "address",
          "name": "operator",
          "type": "address"
        },
        {
          "internalType": "bool",
          "name": "approved",
          "type": "bool"
        }
      ],
      "name": "setApprovalForAll",
      "outputs": [],
      "stateMutability": "nonpayable",
      "type": "function"
    },
    {
      "inputs": [
        {
          "internalType": "string",
          "name": "_newBaseExtension",
          "type": "string"
        }
      ],
      "name": "setBaseExtension",
      "outputs": [],
      "stateMutability": "nonpayable",
      "type": "function"
    },
    {
      "inputs": [
        {
          "internalType": "string",
          "name": "_newBaseURI",
          "type": "string"
        }
      ],
      "name": "setBaseURI",
      "outputs": [],
      "stateMutability": "nonpayable",
      "type": "function"
    },
    {
      "inputs": [
        {
          "internalType": "uint256",
          "name": "_newCost",
          "type": "uint256"
        }
      ],
      "name": "setCost",
      "outputs": [],
      "stateMutability": "nonpayable",
      "type": "function"
    },
    {
      "inputs": [
        {
          "internalType": "bytes4",
          "name": "interfaceId",
          "type": "bytes4"
        }
      ],
      "name": "supportsInterface",
      "outputs": [
        {
          "internalType": "bool",
          "name": "",
          "type": "bool"
        }
      ],
      "stateMutability": "view",
      "type": "function"
    },
    {
      "inputs": [],
      "name": "symbol",
      "outputs": [
        {
          "internalType": "string",
          "name": "",
          "type": "string"
        }
      ],
      "stateMutability": "view",
      "type": "function"
    },
    {
      "inputs": [
        {
          "internalType": "uint256",
          "name": "index",
          "type": "uint256"
        }
      ],
      "name": "tokenByIndex",
      "outputs": [
        {
          "internalType": "uint256",
          "name": "",
          "type": "uint256"
        }
      ],
      "stateMutability": "view",
      "type": "function"
    },
    {
      "inputs": [
        {
          "internalType": "address",
          "name": "owner",
          "type": "address"
        },
        {
          "internalType": "uint256",
          "name": "index",
          "type": "uint256"
        }
      ],
      "name": "tokenOfOwnerByIndex",
      "outputs": [
        {
          "internalType": "uint256",
          "name": "",
          "type": "uint256"
        }
      ],
      "stateMutability": "view",
      "type": "function"
    },
    {
      "inputs": [
        {
          "internalType": "uint256",
          "name": "tokenId",
          "type": "uint256"
        }
      ],
      "name": "tokenURI",
      "outputs": [
        {
          "internalType": "string",
          "name": "",
          "type": "string"
        }
      ],
      "stateMutability": "view",
      "type": "function"
    },
    {
      "inputs": [],
      "name": "totalSupply",
      "outputs": [
        {
          "internalType": "uint256",
          "name": "",
          "type": "uint256"
        }
      ],
      "stateMutability": "view",
      "type": "function"
    },
    {
      "inputs": [
        {
          "internalType": "address",
          "name": "from",
          "type": "address"
        },
        {
          "internalType": "address",
          "name": "to",
          "type": "address"
        },
        {
          "internalType": "uint256",
          "name": "tokenId",
          "type": "uint256"
        }
      ],
      "name": "transferFrom",
      "outputs": [],
      "stateMutability": "nonpayable",
      "type": "function"
    },
    {
      "inputs": [
        {
          "internalType": "address",
          "name": "newOwner",
          "type": "address"
        }
      ],
      "name": "transferOwnership",
      "outputs": [],
      "stateMutability": "nonpayable",
      "type": "function"
    },
    {
      "inputs": [
        {
          "internalType": "address",
          "name": "_owner",
          "type": "address"
        }
      ],
      "name": "walletOfOwner",
      "outputs": [
        {
          "internalType": "uint256[]",
          "name": "",
          "type": "uint256[]"
        }
      ],
      "stateMutability": "view",
      "type": "function"
    },
    {
      "inputs": [
        {
          "internalType": "address",
          "name": "_user",
          "type": "address"
        }
      ],
      "name": "whitelistUser",
      "outputs": [],
      "stateMutability": "nonpayable",
      "type": "function"
    },
    {
      "inputs": [
        {
          "internalType": "address",
          "name": "",
          "type": "address"
        }
      ],
      "name": "whitelisted",
      "outputs": [
        {
          "internalType": "bool",
          "name": "",
          "type": "bool"
        }
      ],
      "stateMutability": "view",
      "type": "function"
    },
    {
      "inputs": [],
      "name": "withdraw",
      "outputs": [],
      "stateMutability": "payable",
      "type": "function"
    }
  ],
  "bytecode": "0x60806040526040518060400160405280600581526020017f2e6a736f6e000000000000000000000000000000000000000000000000000000815250600c90805190602001906200005192919062000348565b5066470de4df820000600d556103e8600e556000600f60006101000a81548160ff0219169083151502179055503480156200008b57600080fd5b5060405162004a3d38038062004a3d8339818101604052810190620000b1919062000481565b84848160009080519060200190620000cb92919062000348565b508060019080519060200190620000e492919062000348565b50505062000107620000fb620001a560201b60201c565b620001ad60201b60201c565b62000118836200027360201b60201c565b81600f60016101000a81548173ffffffffffffffffffffffffffffffffffffffff021916908373ffffffffffffffffffffffffffffffffffffffff16021790555080601060006101000a81548173ffffffffffffffffffffffffffffffffffffffff021916908373ffffffffffffffffffffffffffffffffffffffff16021790555050505050506200078f565b600033905090565b6000600a60009054906101000a900473ffffffffffffffffffffffffffffffffffffffff16905081600a60006101000a81548173ffffffffffffffffffffffffffffffffffffffff021916908373ffffffffffffffffffffffffffffffffffffffff1602179055508173ffffffffffffffffffffffffffffffffffffffff168173ffffffffffffffffffffffffffffffffffffffff167f8be0079c531659141344cd1fd0a4f28419497f9722a3daafe3b4186f6b6457e060405160405180910390a35050565b62000283620001a560201b60201c565b73ffffffffffffffffffffffffffffffffffffffff16620002a96200031e60201b60201c565b73ffffffffffffffffffffffffffffffffffffffff161462000302576040517f08c379a0000000000000000000000000000000000000000000000000000000008152600401620002f99062000575565b60405180910390fd5b80600b90805190602001906200031a92919062000348565b5050565b6000600a60009054906101000a900473ffffffffffffffffffffffffffffffffffffffff16905090565b828054620003569062000671565b90600052602060002090601f0160209004810192826200037a5760008555620003c6565b82601f106200039557805160ff1916838001178555620003c6565b82800160010185558215620003c6579182015b82811115620003c5578251825591602001919060010190620003a8565b5b509050620003d59190620003d9565b5090565b5b80821115620003f4576000816000905550600101620003da565b5090565b60006200040f6200040984620005c0565b62000597565b9050828152602081018484840111156200042857600080fd5b620004358482856200063b565b509392505050565b6000815190506200044e8162000775565b92915050565b600082601f8301126200046657600080fd5b815162000478848260208601620003f8565b91505092915050565b600080600080600060a086880312156200049a57600080fd5b600086015167ffffffffffffffff811115620004b557600080fd5b620004c38882890162000454565b955050602086015167ffffffffffffffff811115620004e157600080fd5b620004ef8882890162000454565b945050604086015167ffffffffffffffff8111156200050d57600080fd5b6200051b8882890162000454565b93505060606200052e888289016200043d565b925050608062000541888289016200043d565b9150509295509295909350565b60006200055d602083620005f6565b91506200056a826200074c565b602082019050919050565b6000602082019050818103600083015262000590816200054e565b9050919050565b6000620005a3620005b6565b9050620005b18282620006a7565b919050565b6000604051905090565b600067ffffffffffffffff821115620005de57620005dd6200070c565b5b620005e9826200073b565b9050602081019050919050565b600082825260208201905092915050565b600062000614826200061b565b9050919050565b600073ffffffffffffffffffffffffffffffffffffffff82169050919050565b60005b838110156200065b5780820151818401526020810190506200063e565b838111156200066b576000848401525b50505050565b600060028204905060018216806200068a57607f821691505b60208210811415620006a157620006a0620006dd565b5b50919050565b620006b2826200073b565b810181811067ffffffffffffffff82111715620006d457620006d36200070c565b5b80604052505050565b7f4e487b7100000000000000000000000000000000000000000000000000000000600052602260045260246000fd5b7f4e487b7100000000000000000000000000000000000000000000000000000000600052604160045260246000fd5b6000601f19601f8301169050919050565b7f4f776e61626c653a2063616c6c6572206973206e6f7420746865206f776e6572600082015250565b620007808162000607565b81146200078c57600080fd5b50565b61429e806200079f6000396000f3fe6080604052600436106101f95760003560e01c806355f804b31161010d578063a22cb465116100a0578063d5abeb011161006f578063d5abeb0114610703578063d936547e1461072e578063da3ef23f1461076b578063e985e9c514610794578063f2fde38b146107d1576101f9565b8063a22cb46514610649578063b88d4fde14610672578063c66828621461069b578063c87b56dd146106c6576101f9565b806370a08231116100dc57806370a082311461059f578063715018a6146105dc5780638da5cb5b146105f357806395d89b411461061e576101f9565b806355f804b3146104e35780635c975abb1461050c5780636352211e146105375780636c0360eb14610574576101f9565b806323b872dd1161019057806342842e0e1161015f57806342842e0e146103ee578063438b63001461041757806344a0d68a146104545780634a4c560d1461047d5780634f6ccce7146104a6576101f9565b806323b872dd146103555780632f745c591461037e57806330cc7ae0146103bb5780633ccfd60b146103e4576101f9565b8063095ea7b3116101cc578063095ea7b3146102cc5780631249c58b146102f557806313faede6146102ff57806318160ddd1461032a576101f9565b806301ffc9a7146101fe57806302329a291461023b57806306fdde0314610264578063081812fc1461028f575b600080fd5b34801561020a57600080fd5b506102256004803603810190610220919061308b565b6107fa565b604051610232919061364b565b60405180910390f35b34801561024757600080fd5b50610262600480360381019061025d9190613062565b610874565b005b34801561027057600080fd5b5061027961090d565b6040516102869190613666565b60405180910390f35b34801561029b57600080fd5b506102b660048036038101906102b1919061311e565b61099f565b6040516102c391906135c2565b60405180910390f35b3480156102d857600080fd5b506102f360048036038101906102ee9190613026565b610a24565b005b6102fd610b3c565b005b34801561030b57600080fd5b50610314610c6e565b60405161032191906138c8565b60405180910390f35b34801561033657600080fd5b5061033f610c74565b60405161034c91906138c8565b60405180910390f35b34801561036157600080fd5b5061037c60048036038101906103779190612f20565b610c81565b005b34801561038a57600080fd5b506103a560048036038101906103a09190613026565b610ce1565b6040516103b291906138c8565b60405180910390f35b3480156103c757600080fd5b506103e260048036038101906103dd9190612ebb565b610d86565b005b6103ec610e5d565b005b3480156103fa57600080fd5b5061041560048036038101906104109190612f20565b610ec5565b005b34801561042357600080fd5b5061043e60048036038101906104399190612ebb565b610ee5565b60405161044b9190613629565b60405180910390f35b34801561046057600080fd5b5061047b6004803603810190610476919061311e565b610fdf565b005b34801561048957600080fd5b506104a4600480360381019061049f9190612ebb565b611065565b005b3480156104b257600080fd5b506104cd60048036038101906104c8919061311e565b61113c565b6040516104da91906138c8565b60405180910390f35b3480156104ef57600080fd5b5061050a600480360381019061050591906130dd565b6111d3565b005b34801561051857600080fd5b50610521611269565b60405161052e919061364b565b60405180910390f35b34801561054357600080fd5b5061055e6004803603810190610559919061311e565b61127c565b60405161056b91906135c2565b60405180910390f35b34801561058057600080fd5b5061058961132e565b6040516105969190613666565b60405180910390f35b3480156105ab57600080fd5b506105c660048036038101906105c19190612ebb565b6113bc565b6040516105d391906138c8565b60405180910390f35b3480156105e857600080fd5b506105f1611474565b005b3480156105ff57600080fd5b506106086114fc565b60405161061591906135c2565b60405180910390f35b34801561062a57600080fd5b50610633611526565b6040516106409190613666565b60405180910390f35b34801561065557600080fd5b50610670600480360381019061066b9190612fea565b6115b8565b005b34801561067e57600080fd5b5061069960048036038101906106949190612f6f565b6115ce565b005b3480156106a757600080fd5b506106b0611630565b6040516106bd9190613666565b60405180910390f35b3480156106d257600080fd5b506106ed60048036038101906106e8919061311e565b6116be565b6040516106fa9190613666565b60405180910390f35b34801561070f57600080fd5b50610718611768565b60405161072591906138c8565b60405180910390f35b34801561073a57600080fd5b5061075560048036038101906107509190612ebb565b61176e565b604051610762919061364b565b60405180910390f35b34801561077757600080fd5b50610792600480360381019061078d91906130dd565b61178e565b005b3480156107a057600080fd5b506107bb60048036038101906107b69190612ee4565b611824565b6040516107c8919061364b565b60405180910390f35b3480156107dd57600080fd5b506107f860048036038101906107f39190612ebb565b6118b8565b005b60007f780e9d63000000000000000000000000000000000000000000000000000000007bffffffffffffffffffffffffffffffffffffffffffffffffffffffff1916827bffffffffffffffffffffffffffffffffffffffffffffffffffffffff1916148061086d575061086c826119b0565b5b9050919050565b61087c611a92565b73ffffffffffffffffffffffffffffffffffffffff1661089a6114fc565b73ffffffffffffffffffffffffffffffffffffffff16146108f0576040517f08c379a00000000000000000000000000000000000000000000000000000000081526004016108e790613828565b60405180910390fd5b80600f60006101000a81548160ff02191690831515021790555050565b60606000805461091c90613b6c565b80601f016020809104026020016040519081016040528092919081815260200182805461094890613b6c565b80156109955780601f1061096a57610100808354040283529160200191610995565b820191906000526020600020905b81548152906001019060200180831161097857829003601f168201915b5050505050905090565b60006109aa82611a9a565b6109e9576040517f08c379a00000000000000000000000000000000000000000000000000000000081526004016109e090613808565b60405180910390fd5b6004600083815260200190815260200160002060009054906101000a900473ffffffffffffffffffffffffffffffffffffffff169050919050565b6000610a2f8261127c565b90508073ffffffffffffffffffffffffffffffffffffffff168373ffffffffffffffffffffffffffffffffffffffff161415610aa0576040517f08c379a0000000000000000000000000000000000000000000000000000000008152600401610a9790613868565b60405180910390fd5b8073ffffffffffffffffffffffffffffffffffffffff16610abf611a92565b73ffffffffffffffffffffffffffffffffffffffff161480610aee5750610aed81610ae8611a92565b611824565b5b610b2d576040517f08c379a0000000000000000000000000000000000000000000000000000000008152600401610b2490613788565b60405180910390fd5b610b378383611b06565b505050565b6000610b46610c74565b9050600f60009054906101000a900460ff1615610b6257600080fd5b600e54600182610b7291906139fb565b1115610b7d57600080fd5b610b856114fc565b73ffffffffffffffffffffffffffffffffffffffff163373ffffffffffffffffffffffffffffffffffffffff1614610c205760011515601160003373ffffffffffffffffffffffffffffffffffffffff1673ffffffffffffffffffffffffffffffffffffffff16815260200190815260200160002060009054906101000a900460ff16151514610c1f57600d54341015610c1e57600080fd5b5b5b610c3633600183610c3191906139fb565b611bbf565b610c63600f60019054906101000a900473ffffffffffffffffffffffffffffffffffffffff1660016115b8565b610c6b610e5d565b50565b600d5481565b6000600880549050905090565b610c92610c8c611a92565b82611bdd565b610cd1576040517f08c379a0000000000000000000000000000000000000000000000000000000008152600401610cc890613888565b60405180910390fd5b610cdc838383611cbb565b505050565b6000610cec836113bc565b8210610d2d576040517f08c379a0000000000000000000000000000000000000000000000000000000008152600401610d2490613688565b60405180910390fd5b600660008473ffffffffffffffffffffffffffffffffffffffff1673ffffffffffffffffffffffffffffffffffffffff168152602001908152602001600020600083815260200190815260200160002054905092915050565b610d8e611a92565b73ffffffffffffffffffffffffffffffffffffffff16610dac6114fc565b73ffffffffffffffffffffffffffffffffffffffff1614610e02576040517f08c379a0000000000000000000000000000000000000000000000000000000008152600401610df990613828565b60405180910390fd5b6000601160008373ffffffffffffffffffffffffffffffffffffffff1673ffffffffffffffffffffffffffffffffffffffff16815260200190815260200160002060006101000a81548160ff02191690831515021790555050565b6000601060009054906101000a900473ffffffffffffffffffffffffffffffffffffffff1690508073ffffffffffffffffffffffffffffffffffffffff166108fc479081150290604051600060405180830381858888f19350505050610ec257600080fd5b50565b610ee0838383604051806020016040528060008152506115ce565b505050565b60606000610ef2836113bc565b905060008167ffffffffffffffff811115610f36577f4e487b7100000000000000000000000000000000000000000000000000000000600052604160045260246000fd5b604051908082528060200260200182016040528015610f645781602001602082028036833780820191505090505b50905060005b82811015610fd457610f7c8582610ce1565b828281518110610fb5577f4e487b7100000000000000000000000000000000000000000000000000000000600052603260045260246000fd5b6020026020010181815250508080610fcc90613bcf565b915050610f6a565b508092505050919050565b610fe7611a92565b73ffffffffffffffffffffffffffffffffffffffff166110056114fc565b73ffffffffffffffffffffffffffffffffffffffff161461105b576040517f08c379a000000000000000000000000000000000000000000000000000000000815260040161105290613828565b60405180910390fd5b80600d8190555050565b61106d611a92565b73ffffffffffffffffffffffffffffffffffffffff1661108b6114fc565b73ffffffffffffffffffffffffffffffffffffffff16146110e1576040517f08c379a00000000000000000000000000000000000000000000000000000000081526004016110d890613828565b60405180910390fd5b6001601160008373ffffffffffffffffffffffffffffffffffffffff1673ffffffffffffffffffffffffffffffffffffffff16815260200190815260200160002060006101000a81548160ff02191690831515021790555050565b6000611146610c74565b8210611187576040517f08c379a000000000000000000000000000000000000000000000000000000000815260040161117e906138a8565b60405180910390fd5b600882815481106111c1577f4e487b7100000000000000000000000000000000000000000000000000000000600052603260045260246000fd5b90600052602060002001549050919050565b6111db611a92565b73ffffffffffffffffffffffffffffffffffffffff166111f96114fc565b73ffffffffffffffffffffffffffffffffffffffff161461124f576040517f08c379a000000000000000000000000000000000000000000000000000000000815260040161124690613828565b60405180910390fd5b80600b9080519060200190611265929190612cdf565b5050565b600f60009054906101000a900460ff1681565b6000806002600084815260200190815260200160002060009054906101000a900473ffffffffffffffffffffffffffffffffffffffff169050600073ffffffffffffffffffffffffffffffffffffffff168173ffffffffffffffffffffffffffffffffffffffff161415611325576040517f08c379a000000000000000000000000000000000000000000000000000000000815260040161131c906137c8565b60405180910390fd5b80915050919050565b600b805461133b90613b6c565b80601f016020809104026020016040519081016040528092919081815260200182805461136790613b6c565b80156113b45780601f10611389576101008083540402835291602001916113b4565b820191906000526020600020905b81548152906001019060200180831161139757829003601f168201915b505050505081565b60008073ffffffffffffffffffffffffffffffffffffffff168273ffffffffffffffffffffffffffffffffffffffff16141561142d576040517f08c379a0000000000000000000000000000000000000000000000000000000008152600401611424906137a8565b60405180910390fd5b600360008373ffffffffffffffffffffffffffffffffffffffff1673ffffffffffffffffffffffffffffffffffffffff168152602001908152602001600020549050919050565b61147c611a92565b73ffffffffffffffffffffffffffffffffffffffff1661149a6114fc565b73ffffffffffffffffffffffffffffffffffffffff16146114f0576040517f08c379a00000000000000000000000000000000000000000000000000000000081526004016114e790613828565b60405180910390fd5b6114fa6000611f22565b565b6000600a60009054906101000a900473ffffffffffffffffffffffffffffffffffffffff16905090565b60606001805461153590613b6c565b80601f016020809104026020016040519081016040528092919081815260200182805461156190613b6c565b80156115ae5780601f10611583576101008083540402835291602001916115ae565b820191906000526020600020905b81548152906001019060200180831161159157829003601f168201915b5050505050905090565b6115ca6115c3611a92565b8383611fe8565b5050565b6115df6115d9611a92565b83611bdd565b61161e576040517f08c379a000000000000000000000000000000000000000000000000000000000815260040161161590613888565b60405180910390fd5b61162a84848484612155565b50505050565b600c805461163d90613b6c565b80601f016020809104026020016040519081016040528092919081815260200182805461166990613b6c565b80156116b65780601f1061168b576101008083540402835291602001916116b6565b820191906000526020600020905b81548152906001019060200180831161169957829003601f168201915b505050505081565b60606116c982611a9a565b611708576040517f08c379a00000000000000000000000000000000000000000000000000000000081526004016116ff90613848565b60405180910390fd5b60006117126121b1565b905060008151116117325760405180602001604052806000815250611760565b8061173c84612243565b600c60405160200161175093929190613591565b6040516020818303038152906040525b915050919050565b600e5481565b60116020528060005260406000206000915054906101000a900460ff1681565b611796611a92565b73ffffffffffffffffffffffffffffffffffffffff166117b46114fc565b73ffffffffffffffffffffffffffffffffffffffff161461180a576040517f08c379a000000000000000000000000000000000000000000000000000000000815260040161180190613828565b60405180910390fd5b80600c9080519060200190611820929190612cdf565b5050565b6000600560008473ffffffffffffffffffffffffffffffffffffffff1673ffffffffffffffffffffffffffffffffffffffff16815260200190815260200160002060008373ffffffffffffffffffffffffffffffffffffffff1673ffffffffffffffffffffffffffffffffffffffff16815260200190815260200160002060009054906101000a900460ff16905092915050565b6118c0611a92565b73ffffffffffffffffffffffffffffffffffffffff166118de6114fc565b73ffffffffffffffffffffffffffffffffffffffff1614611934576040517f08c379a000000000000000000000000000000000000000000000000000000000815260040161192b90613828565b60405180910390fd5b600073ffffffffffffffffffffffffffffffffffffffff168173ffffffffffffffffffffffffffffffffffffffff1614156119a4576040517f08c379a000000000000000000000000000000000000000000000000000000000815260040161199b906136c8565b60405180910390fd5b6119ad81611f22565b50565b60007f80ac58cd000000000000000000000000000000000000000000000000000000007bffffffffffffffffffffffffffffffffffffffffffffffffffffffff1916827bffffffffffffffffffffffffffffffffffffffffffffffffffffffff19161480611a7b57507f5b5e139f000000000000000000000000000000000000000000000000000000007bffffffffffffffffffffffffffffffffffffffffffffffffffffffff1916827bffffffffffffffffffffffffffffffffffffffffffffffffffffffff1916145b80611a8b5750611a8a826123f0565b5b9050919050565b600033905090565b60008073ffffffffffffffffffffffffffffffffffffffff166002600084815260200190815260200160002060009054906101000a900473ffffffffffffffffffffffffffffffffffffffff1673ffffffffffffffffffffffffffffffffffffffff1614159050919050565b816004600083815260200190815260200160002060006101000a81548173ffffffffffffffffffffffffffffffffffffffff021916908373ffffffffffffffffffffffffffffffffffffffff160217905550808273ffffffffffffffffffffffffffffffffffffffff16611b798361127c565b73ffffffffffffffffffffffffffffffffffffffff167f8c5be1e5ebec7d5bd14f71427d1e84f3dd0314c0f7b2291e5b200ac8c7c3b92560405160405180910390a45050565b611bd982826040518060200160405280600081525061245a565b5050565b6000611be882611a9a565b611c27576040517f08c379a0000000000000000000000000000000000000000000000000000000008152600401611c1e90613768565b60405180910390fd5b6000611c328361127c565b90508073ffffffffffffffffffffffffffffffffffffffff168473ffffffffffffffffffffffffffffffffffffffff161480611ca157508373ffffffffffffffffffffffffffffffffffffffff16611c898461099f565b73ffffffffffffffffffffffffffffffffffffffff16145b80611cb25750611cb18185611824565b5b91505092915050565b8273ffffffffffffffffffffffffffffffffffffffff16611cdb8261127c565b73ffffffffffffffffffffffffffffffffffffffff1614611d31576040517f08c379a0000000000000000000000000000000000000000000000000000000008152600401611d28906136e8565b60405180910390fd5b600073ffffffffffffffffffffffffffffffffffffffff168273ffffffffffffffffffffffffffffffffffffffff161415611da1576040517f08c379a0000000000000000000000000000000000000000000000000000000008152600401611d9890613728565b60405180910390fd5b611dac8383836124b5565b611db7600082611b06565b6001600360008573ffffffffffffffffffffffffffffffffffffffff1673ffffffffffffffffffffffffffffffffffffffff1681526020019081526020016000206000828254611e079190613a82565b925050819055506001600360008473ffffffffffffffffffffffffffffffffffffffff1673ffffffffffffffffffffffffffffffffffffffff1681526020019081526020016000206000828254611e5e91906139fb565b92505081905550816002600083815260200190815260200160002060006101000a81548173ffffffffffffffffffffffffffffffffffffffff021916908373ffffffffffffffffffffffffffffffffffffffff160217905550808273ffffffffffffffffffffffffffffffffffffffff168473ffffffffffffffffffffffffffffffffffffffff167fddf252ad1be2c89b69c2b068fc378daa952ba7f163c4a11628f55a4df523b3ef60405160405180910390a4611f1d8383836125c9565b505050565b6000600a60009054906101000a900473ffffffffffffffffffffffffffffffffffffffff16905081600a60006101000a81548173ffffffffffffffffffffffffffffffffffffffff021916908373ffffffffffffffffffffffffffffffffffffffff1602179055508173ffffffffffffffffffffffffffffffffffffffff168173ffffffffffffffffffffffffffffffffffffffff167f8be0079c531659141344cd1fd0a4f28419497f9722a3daafe3b4186f6b6457e060405160405180910390a35050565b8173ffffffffffffffffffffffffffffffffffffffff168373ffffffffffffffffffffffffffffffffffffffff161415612057576040517f08c379a000000000000000000000000000000000000000000000000000000000815260040161204e90613748565b60405180910390fd5b80600560008573ffffffffffffffffffffffffffffffffffffffff1673ffffffffffffffffffffffffffffffffffffffff16815260200190815260200160002060008473ffffffffffffffffffffffffffffffffffffffff1673ffffffffffffffffffffffffffffffffffffffff16815260200190815260200160002060006101000a81548160ff0219169083151502179055508173ffffffffffffffffffffffffffffffffffffffff168373ffffffffffffffffffffffffffffffffffffffff167f17307eab39ab6107e8899845ad3d59bd9653f200f220920489ca2b5937696c3183604051612148919061364b565b60405180910390a3505050565b612160848484611cbb565b61216c848484846125ce565b6121ab576040517f08c379a00000000000000000000000000000000000000000000000000000000081526004016121a2906136a8565b60405180910390fd5b50505050565b6060600b80546121c090613b6c565b80601f01602080910402602001604051908101604052809291908181526020018280546121ec90613b6c565b80156122395780601f1061220e57610100808354040283529160200191612239565b820191906000526020600020905b81548152906001019060200180831161221c57829003601f168201915b5050505050905090565b6060600082141561228b576040518060400160405280600181526020017f300000000000000000000000000000000000000000000000000000000000000081525090506123eb565b600082905060005b600082146122bd5780806122a690613bcf565b915050600a826122b69190613a51565b9150612293565b60008167ffffffffffffffff8111156122ff577f4e487b7100000000000000000000000000000000000000000000000000000000600052604160045260246000fd5b6040519080825280601f01601f1916602001820160405280156123315781602001600182028036833780820191505090505b5090505b600085146123e45760018261234a9190613a82565b9150600a856123599190613c18565b603061236591906139fb565b60f81b8183815181106123a1577f4e487b7100000000000000000000000000000000000000000000000000000000600052603260045260246000fd5b60200101907effffffffffffffffffffffffffffffffffffffffffffffffffffffffffffff1916908160001a905350600a856123dd9190613a51565b9450612335565b8093505050505b919050565b60007f01ffc9a7000000000000000000000000000000000000000000000000000000007bffffffffffffffffffffffffffffffffffffffffffffffffffffffff1916827bffffffffffffffffffffffffffffffffffffffffffffffffffffffff1916149050919050565b6124648383612765565b61247160008484846125ce565b6124b0576040517f08c379a00000000000000000000000000000000000000000000000000000000081526004016124a7906136a8565b60405180910390fd5b505050565b6124c083838361293f565b600073ffffffffffffffffffffffffffffffffffffffff168373ffffffffffffffffffffffffffffffffffffffff161415612503576124fe81612944565b612542565b8173ffffffffffffffffffffffffffffffffffffffff168373ffffffffffffffffffffffffffffffffffffffff161461254157612540838261298d565b5b5b600073ffffffffffffffffffffffffffffffffffffffff168273ffffffffffffffffffffffffffffffffffffffff1614156125855761258081612afa565b6125c4565b8273ffffffffffffffffffffffffffffffffffffffff168273ffffffffffffffffffffffffffffffffffffffff16146125c3576125c28282612c3d565b5b5b505050565b505050565b60006125ef8473ffffffffffffffffffffffffffffffffffffffff16612cbc565b15612758578373ffffffffffffffffffffffffffffffffffffffff1663150b7a02612618611a92565b8786866040518563ffffffff1660e01b815260040161263a94939291906135dd565b602060405180830381600087803b15801561265457600080fd5b505af192505050801561268557506040513d601f19601f8201168201806040525081019061268291906130b4565b60015b612708573d80600081146126b5576040519150601f19603f3d011682016040523d82523d6000602084013e6126ba565b606091505b50600081511415612700576040517f08c379a00000000000000000000000000000000000000000000000000000000081526004016126f7906136a8565b60405180910390fd5b805181602001fd5b63150b7a0260e01b7bffffffffffffffffffffffffffffffffffffffffffffffffffffffff1916817bffffffffffffffffffffffffffffffffffffffffffffffffffffffff19161491505061275d565b600190505b949350505050565b600073ffffffffffffffffffffffffffffffffffffffff168273ffffffffffffffffffffffffffffffffffffffff1614156127d5576040517f08c379a00000000000000000000000000000000000000000000000000000000081526004016127cc906137e8565b60405180910390fd5b6127de81611a9a565b1561281e576040517f08c379a000000000000000000000000000000000000000000000000000000000815260040161281590613708565b60405180910390fd5b61282a600083836124b5565b6001600360008473ffffffffffffffffffffffffffffffffffffffff1673ffffffffffffffffffffffffffffffffffffffff168152602001908152602001600020600082825461287a91906139fb565b92505081905550816002600083815260200190815260200160002060006101000a81548173ffffffffffffffffffffffffffffffffffffffff021916908373ffffffffffffffffffffffffffffffffffffffff160217905550808273ffffffffffffffffffffffffffffffffffffffff16600073ffffffffffffffffffffffffffffffffffffffff167fddf252ad1be2c89b69c2b068fc378daa952ba7f163c4a11628f55a4df523b3ef60405160405180910390a461293b600083836125c9565b5050565b505050565b6008805490506009600083815260200190815260200160002081905550600881908060018154018082558091505060019003906000526020600020016000909190919091505550565b6000600161299a846113bc565b6129a49190613a82565b9050600060076000848152602001908152602001600020549050818114612a89576000600660008673ffffffffffffffffffffffffffffffffffffffff1673ffffffffffffffffffffffffffffffffffffffff168152602001908152602001600020600084815260200190815260200160002054905080600660008773ffffffffffffffffffffffffffffffffffffffff1673ffffffffffffffffffffffffffffffffffffffff168152602001908152602001600020600084815260200190815260200160002081905550816007600083815260200190815260200160002081905550505b6007600084815260200190815260200160002060009055600660008573ffffffffffffffffffffffffffffffffffffffff1673ffffffffffffffffffffffffffffffffffffffff16815260200190815260200160002060008381526020019081526020016000206000905550505050565b60006001600880549050612b0e9190613a82565b9050600060096000848152602001908152602001600020549050600060088381548110612b64577f4e487b7100000000000000000000000000000000000000000000000000000000600052603260045260246000fd5b906000526020600020015490508060088381548110612bac577f4e487b7100000000000000000000000000000000000000000000000000000000600052603260045260246000fd5b906000526020600020018190555081600960008381526020019081526020016000208190555060096000858152602001908152602001600020600090556008805480612c21577f4e487b7100000000000000000000000000000000000000000000000000000000600052603160045260246000fd5b6001900381819060005260206000200160009055905550505050565b6000612c48836113bc565b905081600660008573ffffffffffffffffffffffffffffffffffffffff1673ffffffffffffffffffffffffffffffffffffffff168152602001908152602001600020600083815260200190815260200160002081905550806007600084815260200190815260200160002081905550505050565b6000808273ffffffffffffffffffffffffffffffffffffffff163b119050919050565b828054612ceb90613b6c565b90600052602060002090601f016020900481019282612d0d5760008555612d54565b82601f10612d2657805160ff1916838001178555612d54565b82800160010185558215612d54579182015b82811115612d53578251825591602001919060010190612d38565b5b509050612d619190612d65565b5090565b5b80821115612d7e576000816000905550600101612d66565b5090565b6000612d95612d9084613908565b6138e3565b905082815260208101848484011115612dad57600080fd5b612db8848285613b2a565b509392505050565b6000612dd3612dce84613939565b6138e3565b905082815260208101848484011115612deb57600080fd5b612df6848285613b2a565b509392505050565b600081359050612e0d8161420c565b92915050565b600081359050612e2281614223565b92915050565b600081359050612e378161423a565b92915050565b600081519050612e4c8161423a565b92915050565b600082601f830112612e6357600080fd5b8135612e73848260208601612d82565b91505092915050565b600082601f830112612e8d57600080fd5b8135612e9d848260208601612dc0565b91505092915050565b600081359050612eb581614251565b92915050565b600060208284031215612ecd57600080fd5b6000612edb84828501612dfe565b91505092915050565b60008060408385031215612ef757600080fd5b6000612f0585828601612dfe565b9250506020612f1685828601612dfe565b9150509250929050565b600080600060608486031215612f3557600080fd5b6000612f4386828701612dfe565b9350506020612f5486828701612dfe565b9250506040612f6586828701612ea6565b9150509250925092565b60008060008060808587031215612f8557600080fd5b6000612f9387828801612dfe565b9450506020612fa487828801612dfe565b9350506040612fb587828801612ea6565b925050606085013567ffffffffffffffff811115612fd257600080fd5b612fde87828801612e52565b91505092959194509250565b60008060408385031215612ffd57600080fd5b600061300b85828601612dfe565b925050602061301c85828601612e13565b9150509250929050565b6000806040838503121561303957600080fd5b600061304785828601612dfe565b925050602061305885828601612ea6565b9150509250929050565b60006020828403121561307457600080fd5b600061308284828501612e13565b91505092915050565b60006020828403121561309d57600080fd5b60006130ab84828501612e28565b91505092915050565b6000602082840312156130c657600080fd5b60006130d484828501612e3d565b91505092915050565b6000602082840312156130ef57600080fd5b600082013567ffffffffffffffff81111561310957600080fd5b61311584828501612e7c565b91505092915050565b60006020828403121561313057600080fd5b600061313e84828501612ea6565b91505092915050565b60006131538383613573565b60208301905092915050565b61316881613ab6565b82525050565b60006131798261398f565b61318381856139bd565b935061318e8361396a565b8060005b838110156131bf5781516131a68882613147565b97506131b1836139b0565b925050600181019050613192565b5085935050505092915050565b6131d581613ac8565b82525050565b60006131e68261399a565b6131f081856139ce565b9350613200818560208601613b39565b61320981613d05565b840191505092915050565b600061321f826139a5565b61322981856139df565b9350613239818560208601613b39565b61324281613d05565b840191505092915050565b6000613258826139a5565b61326281856139f0565b9350613272818560208601613b39565b80840191505092915050565b6000815461328b81613b6c565b61329581866139f0565b945060018216600081146132b057600181146132c1576132f4565b60ff198316865281860193506132f4565b6132ca8561397a565b60005b838110156132ec578154818901526001820191506020810190506132cd565b838801955050505b50505092915050565b600061330a602b836139df565b915061331582613d16565b604082019050919050565b600061332d6032836139df565b915061333882613d65565b604082019050919050565b60006133506026836139df565b915061335b82613db4565b604082019050919050565b60006133736025836139df565b915061337e82613e03565b604082019050919050565b6000613396601c836139df565b91506133a182613e52565b602082019050919050565b60006133b96024836139df565b91506133c482613e7b565b604082019050919050565b60006133dc6019836139df565b91506133e782613eca565b602082019050919050565b60006133ff602c836139df565b915061340a82613ef3565b604082019050919050565b60006134226038836139df565b915061342d82613f42565b604082019050919050565b6000613445602a836139df565b915061345082613f91565b604082019050919050565b60006134686029836139df565b915061347382613fe0565b604082019050919050565b600061348b6020836139df565b91506134968261402f565b602082019050919050565b60006134ae602c836139df565b91506134b982614058565b604082019050919050565b60006134d16020836139df565b91506134dc826140a7565b602082019050919050565b60006134f4602f836139df565b91506134ff826140d0565b604082019050919050565b60006135176021836139df565b91506135228261411f565b604082019050919050565b600061353a6031836139df565b91506135458261416e565b604082019050919050565b600061355d602c836139df565b9150613568826141bd565b604082019050919050565b61357c81613b20565b82525050565b61358b81613b20565b82525050565b600061359d828661324d565b91506135a9828561324d565b91506135b5828461327e565b9150819050949350505050565b60006020820190506135d7600083018461315f565b92915050565b60006080820190506135f2600083018761315f565b6135ff602083018661315f565b61360c6040830185613582565b818103606083015261361e81846131db565b905095945050505050565b60006020820190508181036000830152613643818461316e565b905092915050565b600060208201905061366060008301846131cc565b92915050565b600060208201905081810360008301526136808184613214565b905092915050565b600060208201905081810360008301526136a1816132fd565b9050919050565b600060208201905081810360008301526136c181613320565b9050919050565b600060208201905081810360008301526136e181613343565b9050919050565b6000602082019050818103600083015261370181613366565b9050919050565b6000602082019050818103600083015261372181613389565b9050919050565b60006020820190508181036000830152613741816133ac565b9050919050565b60006020820190508181036000830152613761816133cf565b9050919050565b60006020820190508181036000830152613781816133f2565b9050919050565b600060208201905081810360008301526137a181613415565b9050919050565b600060208201905081810360008301526137c181613438565b9050919050565b600060208201905081810360008301526137e18161345b565b9050919050565b600060208201905081810360008301526138018161347e565b9050919050565b60006020820190508181036000830152613821816134a1565b9050919050565b60006020820190508181036000830152613841816134c4565b9050919050565b60006020820190508181036000830152613861816134e7565b9050919050565b600060208201905081810360008301526138818161350a565b9050919050565b600060208201905081810360008301526138a18161352d565b9050919050565b600060208201905081810360008301526138c181613550565b9050919050565b60006020820190506138dd6000830184613582565b92915050565b60006138ed6138fe565b90506138f98282613b9e565b919050565b6000604051905090565b600067ffffffffffffffff82111561392357613922613cd6565b5b61392c82613d05565b9050602081019050919050565b600067ffffffffffffffff82111561395457613953613cd6565b5b61395d82613d05565b9050602081019050919050565b6000819050602082019050919050565b60008190508160005260206000209050919050565b600081519050919050565b600081519050919050565b600081519050919050565b6000602082019050919050565b600082825260208201905092915050565b600082825260208201905092915050565b600082825260208201905092915050565b600081905092915050565b6000613a0682613b20565b9150613a1183613b20565b9250827fffffffffffffffffffffffffffffffffffffffffffffffffffffffffffffffff03821115613a4657613a45613c49565b5b828201905092915050565b6000613a5c82613b20565b9150613a6783613b20565b925082613a7757613a76613c78565b5b828204905092915050565b6000613a8d82613b20565b9150613a9883613b20565b925082821015613aab57613aaa613c49565b5b828203905092915050565b6000613ac182613b00565b9050919050565b60008115159050919050565b60007fffffffff0000000000000000000000000000000000000000000000000000000082169050919050565b600073ffffffffffffffffffffffffffffffffffffffff82169050919050565b6000819050919050565b82818337600083830152505050565b60005b83811015613b57578082015181840152602081019050613b3c565b83811115613b66576000848401525b50505050565b60006002820490506001821680613b8457607f821691505b60208210811415613b9857613b97613ca7565b5b50919050565b613ba782613d05565b810181811067ffffffffffffffff82111715613bc657613bc5613cd6565b5b80604052505050565b6000613bda82613b20565b91507fffffffffffffffffffffffffffffffffffffffffffffffffffffffffffffffff821415613c0d57613c0c613c49565b5b600182019050919050565b6000613c2382613b20565b9150613c2e83613b20565b925082613c3e57613c3d613c78565b5b828206905092915050565b7f4e487b7100000000000000000000000000000000000000000000000000000000600052601160045260246000fd5b7f4e487b7100000000000000000000000000000000000000000000000000000000600052601260045260246000fd5b7f4e487b7100000000000000000000000000000000000000000000000000000000600052602260045260246000fd5b7f4e487b7100000000000000000000000000000000000000000000000000000000600052604160045260246000fd5b6000601f19601f8301169050919050565b7f455243373231456e756d657261626c653a206f776e657220696e646578206f7560008201527f74206f6620626f756e6473000000000000000000000000000000000000000000602082015250565b7f4552433732313a207472616e7366657220746f206e6f6e20455243373231526560008201527f63656976657220696d706c656d656e7465720000000000000000000000000000602082015250565b7f4f776e61626c653a206e6577206f776e657220697320746865207a65726f206160008201527f6464726573730000000000000000000000000000000000000000000000000000602082015250565b7f4552433732313a207472616e736665722066726f6d20696e636f72726563742060008201527f6f776e6572000000000000000000000000000000000000000000000000000000602082015250565b7f4552433732313a20746f6b656e20616c7265616479206d696e74656400000000600082015250565b7f4552433732313a207472616e7366657220746f20746865207a65726f2061646460008201527f7265737300000000000000000000000000000000000000000000000000000000602082015250565b7f4552433732313a20617070726f766520746f2063616c6c657200000000000000600082015250565b7f4552433732313a206f70657261746f7220717565727920666f72206e6f6e657860008201527f697374656e7420746f6b656e0000000000000000000000000000000000000000602082015250565b7f4552433732313a20617070726f76652063616c6c6572206973206e6f74206f7760008201527f6e6572206e6f7220617070726f76656420666f7220616c6c0000000000000000602082015250565b7f4552433732313a2062616c616e636520717565727920666f7220746865207a6560008201527f726f206164647265737300000000000000000000000000000000000000000000602082015250565b7f4552433732313a206f776e657220717565727920666f72206e6f6e657869737460008201527f656e7420746f6b656e0000000000000000000000000000000000000000000000602082015250565b7f4552433732313a206d696e7420746f20746865207a65726f2061646472657373600082015250565b7f4552433732313a20617070726f76656420717565727920666f72206e6f6e657860008201527f697374656e7420746f6b656e0000000000000000000000000000000000000000602082015250565b7f4f776e61626c653a2063616c6c6572206973206e6f7420746865206f776e6572600082015250565b7f4552433732314d657461646174613a2055524920717565727920666f72206e6f60008201527f6e6578697374656e7420746f6b656e0000000000000000000000000000000000602082015250565b7f4552433732313a20617070726f76616c20746f2063757272656e74206f776e6560008201527f7200000000000000000000000000000000000000000000000000000000000000602082015250565b7f4552433732313a207472616e736665722063616c6c6572206973206e6f74206f60008201527f776e6572206e6f7220617070726f766564000000000000000000000000000000602082015250565b7f455243373231456e756d657261626c653a20676c6f62616c20696e646578206f60008201527f7574206f6620626f756e64730000000000000000000000000000000000000000602082015250565b61421581613ab6565b811461422057600080fd5b50565b61422c81613ac8565b811461423757600080fd5b50565b61424381613ad4565b811461424e57600080fd5b50565b61425a81613b20565b811461426557600080fd5b5056fea2646970667358221220f4ead42683c4d1063050018812b39dff3db23b89384192a144660ec07612590d64736f6c63430008040033",
  "linkReferences": {},
  "deployedLinkReferences": {}
}