{
  "_format": "hh-sol-artifact-1",
  "contractName": "DrinkingTrees",
  "sourceName": "contracts/DrinkingTreesCollection1.sol",
  "abi": [
    {
      "inputs": [
        {
          "internalType": "string",
          "name": "_name",
          "type": "string"
        },
        {
          "internalType": "string",
          "name": "_symbol",
          "type": "string"
        },
        {
          "internalType": "string",
          "name": "_initBaseURI",
          "type": "string"
        },
        {
          "internalType": "address",
          "name": "_marketAddress",
          "type": "address"
        },
        {
          "internalType": "address",
          "name": "_bankAddress",
          "type": "address"
        }
      ],
      "stateMutability": "nonpayable",
      "type": "constructor"
    },
    {
      "anonymous": false,
      "inputs": [
        {
          "indexed": true,
          "internalType": "address",
          "name": "owner",
          "type": "address"
        },
        {
          "indexed": true,
          "internalType": "address",
          "name": "approved",
          "type": "address"
        },
        {
          "indexed": true,
          "internalType": "uint256",
          "name": "tokenId",
          "type": "uint256"
        }
      ],
      "name": "Approval",
      "type": "event"
    },
    {
      "anonymous": false,
      "inputs": [
        {
          "indexed": true,
          "internalType": "address",
          "name": "owner",
          "type": "address"
        },
        {
          "indexed": true,
          "internalType": "address",
          "name": "operator",
          "type": "address"
        },
        {
          "indexed": false,
          "internalType": "bool",
          "name": "approved",
          "type": "bool"
        }
      ],
      "name": "ApprovalForAll",
      "type": "event"
    },
    {
      "anonymous": false,
      "inputs": [
        {
          "indexed": true,
          "internalType": "address",
          "name": "previousOwner",
          "type": "address"
        },
        {
          "indexed": true,
          "internalType": "address",
          "name": "newOwner",
          "type": "address"
        }
      ],
      "name": "OwnershipTransferred",
      "type": "event"
    },
    {
      "anonymous": false,
      "inputs": [
        {
          "indexed": true,
          "internalType": "address",
          "name": "from",
          "type": "address"
        },
        {
          "indexed": true,
          "internalType": "address",
          "name": "to",
          "type": "address"
        },
        {
          "indexed": true,
          "internalType": "uint256",
          "name": "tokenId",
          "type": "uint256"
        }
      ],
      "name": "Transfer",
      "type": "event"
    },
    {
      "inputs": [
        {
          "internalType": "address",
          "name": "to",
          "type": "address"
        },
        {
          "internalType": "uint256",
          "name": "tokenId",
          "type": "uint256"
        }
      ],
      "name": "approve",
      "outputs": [],
      "stateMutability": "nonpayable",
      "type": "function"
    },
    {
      "inputs": [
        {
          "internalType": "address",
          "name": "owner",
          "type": "address"
        }
      ],
      "name": "balanceOf",
      "outputs": [
        {
          "internalType": "uint256",
          "name": "",
          "type": "uint256"
        }
      ],
      "stateMutability": "view",
      "type": "function"
    },
    {
      "inputs": [],
      "name": "baseExtension",
      "outputs": [
        {
          "internalType": "string",
          "name": "",
          "type": "string"
        }
      ],
      "stateMutability": "view",
      "type": "function"
    },
    {
      "inputs": [],
      "name": "baseURI",
      "outputs": [
        {
          "internalType": "string",
          "name": "",
          "type": "string"
        }
      ],
      "stateMutability": "view",
      "type": "function"
    },
    {
      "inputs": [],
      "name": "cost",
      "outputs": [
        {
          "internalType": "uint256",
          "name": "",
          "type": "uint256"
        }
      ],
      "stateMutability": "view",
      "type": "function"
    },
    {
      "inputs": [
        {
          "internalType": "uint256",
          "name": "tokenId",
          "type": "uint256"
        }
      ],
      "name": "getApproved",
      "outputs": [
        {
          "internalType": "address",
          "name": "",
          "type": "address"
        }
      ],
      "stateMutability": "view",
      "type": "function"
    },
    {
      "inputs": [
        {
          "internalType": "address",
          "name": "owner",
          "type": "address"
        },
        {
          "internalType": "address",
          "name": "operator",
          "type": "address"
        }
      ],
      "name": "isApprovedForAll",
      "outputs": [
        {
          "internalType": "bool",
          "name": "",
          "type": "bool"
        }
      ],
      "stateMutability": "view",
      "type": "function"
    },
    {
      "inputs": [],
      "name": "maxSupply",
      "outputs": [
        {
          "internalType": "uint256",
          "name": "",
          "type": "uint256"
        }
      ],
      "stateMutability": "view",
      "type": "function"
    },
    {
      "inputs": [],
      "name": "mint",
      "outputs": [],
      "stateMutability": "payable",
      "type": "function"
    },
    {
      "inputs": [],
      "name": "name",
      "outputs": [
        {
          "internalType": "string",
          "name": "",
          "type": "string"
        }
      ],
      "stateMutability": "view",
      "type": "function"
    },
    {
      "inputs": [],
      "name": "owner",
      "outputs": [
        {
          "internalType": "address",
          "name": "",
          "type": "address"
        }
      ],
      "stateMutability": "view",
      "type": "function"
    },
    {
      "inputs": [
        {
          "internalType": "uint256",
          "name": "tokenId",
          "type": "uint256"
        }
      ],
      "name": "ownerOf",
      "outputs": [
        {
          "internalType": "address",
          "name": "",
          "type": "address"
        }
      ],
      "stateMutability": "view",
      "type": "function"
    },
    {
      "inputs": [
        {
          "internalType": "bool",
          "name": "_state",
          "type": "bool"
        }
      ],
      "name": "pause",
      "outputs": [],
      "stateMutability": "nonpayable",
      "type": "function"
    },
    {
      "inputs": [],
      "name": "paused",
      "outputs": [
        {
          "internalType": "bool",
          "name": "",
          "type": "bool"
        }
      ],
      "stateMutability": "view",
      "type": "function"
    },
    {
      "inputs": [
        {
          "internalType": "address",
          "name": "_user",
          "type": "address"
        }
      ],
      "name": "removeWhitelistUser",
      "outputs": [],
      "stateMutability": "nonpayable",
      "type": "function"
    },
    {
      "inputs": [],
      "name": "renounceOwnership",
      "outputs": [],
      "stateMutability": "nonpayable",
      "type": "function"
    },
    {
      "inputs": [
        {
          "internalType": "address",
          "name": "from",
          "type": "address"
        },
        {
          "internalType": "address",
          "name": "to",
          "type": "address"
        },
        {
          "internalType": "uint256",
          "name": "tokenId",
          "type": "uint256"
        }
      ],
      "name": "safeTransferFrom",
      "outputs": [],
      "stateMutability": "nonpayable",
      "type": "function"
    },
    {
      "inputs": [
        {
          "internalType": "address",
          "name": "from",
          "type": "address"
        },
        {
          "internalType": "address",
          "name": "to",
          "type": "address"
        },
        {
          "internalType": "uint256",
          "name": "tokenId",
          "type": "uint256"
        },
        {
          "internalType": "bytes",
          "name": "_data",
          "type": "bytes"
        }
      ],
      "name": "safeTransferFrom",
      "outputs": [],
      "stateMutability": "nonpayable",
      "type": "function"
    },
    {
      "inputs": [
        {
          "internalType": "address",
          "name": "operator",
          "type": "address"
        },
        {
          "internalType": "bool",
          "name": "approved",
          "type": "bool"
        }
      ],
      "name": "setApprovalForAll",
      "outputs": [],
      "stateMutability": "nonpayable",
      "type": "function"
    },
    {
      "inputs": [
        {
          "internalType": "string",
          "name": "_newBaseExtension",
          "type": "string"
        }
      ],
      "name": "setBaseExtension",
      "outputs": [],
      "stateMutability": "nonpayable",
      "type": "function"
    },
    {
      "inputs": [
        {
          "internalType": "string",
          "name": "_newBaseURI",
          "type": "string"
        }
      ],
      "name": "setBaseURI",
      "outputs": [],
      "stateMutability": "nonpayable",
      "type": "function"
    },
    {
      "inputs": [
        {
          "internalType": "uint256",
          "name": "_newCost",
          "type": "uint256"
        }
      ],
      "name": "setCost",
      "outputs": [],
      "stateMutability": "nonpayable",
      "type": "function"
    },
    {
      "inputs": [
        {
          "internalType": "bytes4",
          "name": "interfaceId",
          "type": "bytes4"
        }
      ],
      "name": "supportsInterface",
      "outputs": [
        {
          "internalType": "bool",
          "name": "",
          "type": "bool"
        }
      ],
      "stateMutability": "view",
      "type": "function"
    },
    {
      "inputs": [],
      "name": "symbol",
      "outputs": [
        {
          "internalType": "string",
          "name": "",
          "type": "string"
        }
      ],
      "stateMutability": "view",
      "type": "function"
    },
    {
      "inputs": [
        {
          "internalType": "uint256",
          "name": "index",
          "type": "uint256"
        }
      ],
      "name": "tokenByIndex",
      "outputs": [
        {
          "internalType": "uint256",
          "name": "",
          "type": "uint256"
        }
      ],
      "stateMutability": "view",
      "type": "function"
    },
    {
      "inputs": [
        {
          "internalType": "address",
          "name": "owner",
          "type": "address"
        },
        {
          "internalType": "uint256",
          "name": "index",
          "type": "uint256"
        }
      ],
      "name": "tokenOfOwnerByIndex",
      "outputs": [
        {
          "internalType": "uint256",
          "name": "",
          "type": "uint256"
        }
      ],
      "stateMutability": "view",
      "type": "function"
    },
    {
      "inputs": [
        {
          "internalType": "uint256",
          "name": "tokenId",
          "type": "uint256"
        }
      ],
      "name": "tokenURI",
      "outputs": [
        {
          "internalType": "string",
          "name": "",
          "type": "string"
        }
      ],
      "stateMutability": "view",
      "type": "function"
    },
    {
      "inputs": [],
      "name": "totalSupply",
      "outputs": [
        {
          "internalType": "uint256",
          "name": "",
          "type": "uint256"
        }
      ],
      "stateMutability": "view",
      "type": "function"
    },
    {
      "inputs": [
        {
          "internalType": "address",
          "name": "from",
          "type": "address"
        },
        {
          "internalType": "address",
          "name": "to",
          "type": "address"
        },
        {
          "internalType": "uint256",
          "name": "tokenId",
          "type": "uint256"
        }
      ],
      "name": "transferFrom",
      "outputs": [],
      "stateMutability": "nonpayable",
      "type": "function"
    },
    {
      "inputs": [
        {
          "internalType": "address",
          "name": "newOwner",
          "type": "address"
        }
      ],
      "name": "transferOwnership",
      "outputs": [],
      "stateMutability": "nonpayable",
      "type": "function"
    },
    {
      "inputs": [
        {
          "internalType": "address",
          "name": "_owner",
          "type": "address"
        }
      ],
      "name": "walletOfOwner",
      "outputs": [
        {
          "internalType": "uint256[]",
          "name": "",
          "type": "uint256[]"
        }
      ],
      "stateMutability": "view",
      "type": "function"
    },
    {
      "inputs": [
        {
          "internalType": "address",
          "name": "_user",
          "type": "address"
        }
      ],
      "name": "whitelistUser",
      "outputs": [],
      "stateMutability": "nonpayable",
      "type": "function"
    },
    {
      "inputs": [
        {
          "internalType": "address",
          "name": "",
          "type": "address"
        }
      ],
      "name": "whitelisted",
      "outputs": [
        {
          "internalType": "bool",
          "name": "",
          "type": "bool"
        }
      ],
      "stateMutability": "view",
      "type": "function"
    },
    {
      "inputs": [],
      "name": "withdraw",
      "outputs": [],
      "stateMutability": "payable",
      "type": "function"
    }
  ],
  "bytecode": "0x60806040526040518060400160405280600581526020017f2e6a736f6e000000000000000000000000000000000000000000000000000000815250600c90805190602001906200005192919062000348565b5066470de4df820000600d556103e8600e556000600f60006101000a81548160ff0219169083151502179055503480156200008b57600080fd5b5060405162004b0538038062004b058339818101604052810190620000b1919062000481565b84848160009080519060200190620000cb92919062000348565b508060019080519060200190620000e492919062000348565b50505062000107620000fb620001a560201b60201c565b620001ad60201b60201c565b62000118836200027360201b60201c565b81600f60016101000a81548173ffffffffffffffffffffffffffffffffffffffff021916908373ffffffffffffffffffffffffffffffffffffffff16021790555080601060006101000a81548173ffffffffffffffffffffffffffffffffffffffff021916908373ffffffffffffffffffffffffffffffffffffffff16021790555050505050506200078f565b600033905090565b6000600a60009054906101000a900473ffffffffffffffffffffffffffffffffffffffff16905081600a60006101000a81548173ffffffffffffffffffffffffffffffffffffffff021916908373ffffffffffffffffffffffffffffffffffffffff1602179055508173ffffffffffffffffffffffffffffffffffffffff168173ffffffffffffffffffffffffffffffffffffffff167f8be0079c531659141344cd1fd0a4f28419497f9722a3daafe3b4186f6b6457e060405160405180910390a35050565b62000283620001a560201b60201c565b73ffffffffffffffffffffffffffffffffffffffff16620002a96200031e60201b60201c565b73ffffffffffffffffffffffffffffffffffffffff161462000302576040517f08c379a0000000000000000000000000000000000000000000000000000000008152600401620002f99062000575565b60405180910390fd5b80600b90805190602001906200031a92919062000348565b5050565b6000600a60009054906101000a900473ffffffffffffffffffffffffffffffffffffffff16905090565b828054620003569062000671565b90600052602060002090601f0160209004810192826200037a5760008555620003c6565b82601f106200039557805160ff1916838001178555620003c6565b82800160010185558215620003c6579182015b82811115620003c5578251825591602001919060010190620003a8565b5b509050620003d59190620003d9565b5090565b5b80821115620003f4576000816000905550600101620003da565b5090565b60006200040f6200040984620005c0565b62000597565b9050828152602081018484840111156200042857600080fd5b620004358482856200063b565b509392505050565b6000815190506200044e8162000775565b92915050565b600082601f8301126200046657600080fd5b815162000478848260208601620003f8565b91505092915050565b600080600080600060a086880312156200049a57600080fd5b600086015167ffffffffffffffff811115620004b557600080fd5b620004c38882890162000454565b955050602086015167ffffffffffffffff811115620004e157600080fd5b620004ef8882890162000454565b945050604086015167ffffffffffffffff8111156200050d57600080fd5b6200051b8882890162000454565b93505060606200052e888289016200043d565b925050608062000541888289016200043d565b9150509295509295909350565b60006200055d602083620005f6565b91506200056a826200074c565b602082019050919050565b6000602082019050818103600083015262000590816200054e565b9050919050565b6000620005a3620005b6565b9050620005b18282620006a7565b919050565b6000604051905090565b600067ffffffffffffffff821115620005de57620005dd6200070c565b5b620005e9826200073b565b9050602081019050919050565b600082825260208201905092915050565b600062000614826200061b565b9050919050565b600073ffffffffffffffffffffffffffffffffffffffff82169050919050565b60005b838110156200065b5780820151818401526020810190506200063e565b838111156200066b576000848401525b50505050565b600060028204905060018216806200068a57607f821691505b60208210811415620006a157620006a0620006dd565b5b50919050565b620006b2826200073b565b810181811067ffffffffffffffff82111715620006d457620006d36200070c565b5b80604052505050565b7f4e487b7100000000000000000000000000000000000000000000000000000000600052602260045260246000fd5b7f4e487b7100000000000000000000000000000000000000000000000000000000600052604160045260246000fd5b6000601f19601f8301169050919050565b7f4f776e61626c653a2063616c6c6572206973206e6f7420746865206f776e6572600082015250565b620007808162000607565b81146200078c57600080fd5b50565b614366806200079f6000396000f3fe6080604052600436106101f95760003560e01c806355f804b31161010d578063a22cb465116100a0578063d5abeb011161006f578063d5abeb0114610703578063d936547e1461072e578063da3ef23f1461076b578063e985e9c514610794578063f2fde38b146107d1576101f9565b8063a22cb46514610649578063b88d4fde14610672578063c66828621461069b578063c87b56dd146106c6576101f9565b806370a08231116100dc57806370a082311461059f578063715018a6146105dc5780638da5cb5b146105f357806395d89b411461061e576101f9565b806355f804b3146104e35780635c975abb1461050c5780636352211e146105375780636c0360eb14610574576101f9565b806323b872dd1161019057806342842e0e1161015f57806342842e0e146103ee578063438b63001461041757806344a0d68a146104545780634a4c560d1461047d5780634f6ccce7146104a6576101f9565b806323b872dd146103555780632f745c591461037e57806330cc7ae0146103bb5780633ccfd60b146103e4576101f9565b8063095ea7b3116101cc578063095ea7b3146102cc5780631249c58b146102f557806313faede6146102ff57806318160ddd1461032a576101f9565b806301ffc9a7146101fe57806302329a291461023b57806306fdde0314610264578063081812fc1461028f575b600080fd5b34801561020a57600080fd5b50610225600480360381019061022091906130c1565b6107fa565b60405161023291906136a4565b60405180910390f35b34801561024757600080fd5b50610262600480360381019061025d9190613098565b610874565b005b34801561027057600080fd5b5061027961090d565b60405161028691906136bf565b60405180910390f35b34801561029b57600080fd5b506102b660048036038101906102b19190613154565b61099f565b6040516102c3919061361b565b60405180910390f35b3480156102d857600080fd5b506102f360048036038101906102ee919061305c565b610a24565b005b6102fd610b3c565b005b34801561030b57600080fd5b50610314610ca4565b6040516103219190613941565b60405180910390f35b34801561033657600080fd5b5061033f610caa565b60405161034c9190613941565b60405180910390f35b34801561036157600080fd5b5061037c60048036038101906103779190612f56565b610cb7565b005b34801561038a57600080fd5b506103a560048036038101906103a0919061305c565b610d17565b6040516103b29190613941565b60405180910390f35b3480156103c757600080fd5b506103e260048036038101906103dd9190612ef1565b610dbc565b005b6103ec610e93565b005b3480156103fa57600080fd5b5061041560048036038101906104109190612f56565b610efb565b005b34801561042357600080fd5b5061043e60048036038101906104399190612ef1565b610f1b565b60405161044b9190613682565b60405180910390f35b34801561046057600080fd5b5061047b60048036038101906104769190613154565b611015565b005b34801561048957600080fd5b506104a4600480360381019061049f9190612ef1565b61109b565b005b3480156104b257600080fd5b506104cd60048036038101906104c89190613154565b611172565b6040516104da9190613941565b60405180910390f35b3480156104ef57600080fd5b5061050a60048036038101906105059190613113565b611209565b005b34801561051857600080fd5b5061052161129f565b60405161052e91906136a4565b60405180910390f35b34801561054357600080fd5b5061055e60048036038101906105599190613154565b6112b2565b60405161056b919061361b565b60405180910390f35b34801561058057600080fd5b50610589611364565b60405161059691906136bf565b60405180910390f35b3480156105ab57600080fd5b506105c660048036038101906105c19190612ef1565b6113f2565b6040516105d39190613941565b60405180910390f35b3480156105e857600080fd5b506105f16114aa565b005b3480156105ff57600080fd5b50610608611532565b604051610615919061361b565b60405180910390f35b34801561062a57600080fd5b5061063361155c565b60405161064091906136bf565b60405180910390f35b34801561065557600080fd5b50610670600480360381019061066b9190613020565b6115ee565b005b34801561067e57600080fd5b5061069960048036038101906106949190612fa5565b611604565b005b3480156106a757600080fd5b506106b0611666565b6040516106bd91906136bf565b60405180910390f35b3480156106d257600080fd5b506106ed60048036038101906106e89190613154565b6116f4565b6040516106fa91906136bf565b60405180910390f35b34801561070f57600080fd5b5061071861179e565b6040516107259190613941565b60405180910390f35b34801561073a57600080fd5b5061075560048036038101906107509190612ef1565b6117a4565b60405161076291906136a4565b60405180910390f35b34801561077757600080fd5b50610792600480360381019061078d9190613113565b6117c4565b005b3480156107a057600080fd5b506107bb60048036038101906107b69190612f1a565b61185a565b6040516107c891906136a4565b60405180910390f35b3480156107dd57600080fd5b506107f860048036038101906107f39190612ef1565b6118ee565b005b60007f780e9d63000000000000000000000000000000000000000000000000000000007bffffffffffffffffffffffffffffffffffffffffffffffffffffffff1916827bffffffffffffffffffffffffffffffffffffffffffffffffffffffff1916148061086d575061086c826119e6565b5b9050919050565b61087c611ac8565b73ffffffffffffffffffffffffffffffffffffffff1661089a611532565b73ffffffffffffffffffffffffffffffffffffffff16146108f0576040517f08c379a00000000000000000000000000000000000000000000000000000000081526004016108e7906138a1565b60405180910390fd5b80600f60006101000a81548160ff02191690831515021790555050565b60606000805461091c90613be5565b80601f016020809104026020016040519081016040528092919081815260200182805461094890613be5565b80156109955780601f1061096a57610100808354040283529160200191610995565b820191906000526020600020905b81548152906001019060200180831161097857829003601f168201915b5050505050905090565b60006109aa82611ad0565b6109e9576040517f08c379a00000000000000000000000000000000000000000000000000000000081526004016109e090613861565b60405180910390fd5b6004600083815260200190815260200160002060009054906101000a900473ffffffffffffffffffffffffffffffffffffffff169050919050565b6000610a2f826112b2565b90508073ffffffffffffffffffffffffffffffffffffffff168373ffffffffffffffffffffffffffffffffffffffff161415610aa0576040517f08c379a0000000000000000000000000000000000000000000000000000000008152600401610a97906138e1565b60405180910390fd5b8073ffffffffffffffffffffffffffffffffffffffff16610abf611ac8565b73ffffffffffffffffffffffffffffffffffffffff161480610aee5750610aed81610ae8611ac8565b61185a565b5b610b2d576040517f08c379a0000000000000000000000000000000000000000000000000000000008152600401610b24906137e1565b60405180910390fd5b610b378383611b3c565b505050565b6000610b46610caa565b9050600f60009054906101000a900460ff1615610b6257600080fd5b600e54600182610b729190613a74565b1115610b7d57600080fd5b610b85611532565b73ffffffffffffffffffffffffffffffffffffffff163373ffffffffffffffffffffffffffffffffffffffff1614610c565760011515601160003373ffffffffffffffffffffffffffffffffffffffff1673ffffffffffffffffffffffffffffffffffffffff16815260200190815260200160002060009054906101000a900460ff16151514610c5557600d54341015610c54576040517f08c379a0000000000000000000000000000000000000000000000000000000008152600401610c4b90613881565b60405180910390fd5b5b5b610c6c33600183610c679190613a74565b611bf5565b610c99600f60019054906101000a900473ffffffffffffffffffffffffffffffffffffffff1660016115ee565b610ca1610e93565b50565b600d5481565b6000600880549050905090565b610cc8610cc2611ac8565b82611c13565b610d07576040517f08c379a0000000000000000000000000000000000000000000000000000000008152600401610cfe90613901565b60405180910390fd5b610d12838383611cf1565b505050565b6000610d22836113f2565b8210610d63576040517f08c379a0000000000000000000000000000000000000000000000000000000008152600401610d5a906136e1565b60405180910390fd5b600660008473ffffffffffffffffffffffffffffffffffffffff1673ffffffffffffffffffffffffffffffffffffffff168152602001908152602001600020600083815260200190815260200160002054905092915050565b610dc4611ac8565b73ffffffffffffffffffffffffffffffffffffffff16610de2611532565b73ffffffffffffffffffffffffffffffffffffffff1614610e38576040517f08c379a0000000000000000000000000000000000000000000000000000000008152600401610e2f906138a1565b60405180910390fd5b6000601160008373ffffffffffffffffffffffffffffffffffffffff1673ffffffffffffffffffffffffffffffffffffffff16815260200190815260200160002060006101000a81548160ff02191690831515021790555050565b6000601060009054906101000a900473ffffffffffffffffffffffffffffffffffffffff1690508073ffffffffffffffffffffffffffffffffffffffff166108fc479081150290604051600060405180830381858888f19350505050610ef857600080fd5b50565b610f1683838360405180602001604052806000815250611604565b505050565b60606000610f28836113f2565b905060008167ffffffffffffffff811115610f6c577f4e487b7100000000000000000000000000000000000000000000000000000000600052604160045260246000fd5b604051908082528060200260200182016040528015610f9a5781602001602082028036833780820191505090505b50905060005b8281101561100a57610fb28582610d17565b828281518110610feb577f4e487b7100000000000000000000000000000000000000000000000000000000600052603260045260246000fd5b602002602001018181525050808061100290613c48565b915050610fa0565b508092505050919050565b61101d611ac8565b73ffffffffffffffffffffffffffffffffffffffff1661103b611532565b73ffffffffffffffffffffffffffffffffffffffff1614611091576040517f08c379a0000000000000000000000000000000000000000000000000000000008152600401611088906138a1565b60405180910390fd5b80600d8190555050565b6110a3611ac8565b73ffffffffffffffffffffffffffffffffffffffff166110c1611532565b73ffffffffffffffffffffffffffffffffffffffff1614611117576040517f08c379a000000000000000000000000000000000000000000000000000000000815260040161110e906138a1565b60405180910390fd5b6001601160008373ffffffffffffffffffffffffffffffffffffffff1673ffffffffffffffffffffffffffffffffffffffff16815260200190815260200160002060006101000a81548160ff02191690831515021790555050565b600061117c610caa565b82106111bd576040517f08c379a00000000000000000000000000000000000000000000000000000000081526004016111b490613921565b60405180910390fd5b600882815481106111f7577f4e487b7100000000000000000000000000000000000000000000000000000000600052603260045260246000fd5b90600052602060002001549050919050565b611211611ac8565b73ffffffffffffffffffffffffffffffffffffffff1661122f611532565b73ffffffffffffffffffffffffffffffffffffffff1614611285576040517f08c379a000000000000000000000000000000000000000000000000000000000815260040161127c906138a1565b60405180910390fd5b80600b908051906020019061129b929190612d15565b5050565b600f60009054906101000a900460ff1681565b6000806002600084815260200190815260200160002060009054906101000a900473ffffffffffffffffffffffffffffffffffffffff169050600073ffffffffffffffffffffffffffffffffffffffff168173ffffffffffffffffffffffffffffffffffffffff16141561135b576040517f08c379a000000000000000000000000000000000000000000000000000000000815260040161135290613821565b60405180910390fd5b80915050919050565b600b805461137190613be5565b80601f016020809104026020016040519081016040528092919081815260200182805461139d90613be5565b80156113ea5780601f106113bf576101008083540402835291602001916113ea565b820191906000526020600020905b8154815290600101906020018083116113cd57829003601f168201915b505050505081565b60008073ffffffffffffffffffffffffffffffffffffffff168273ffffffffffffffffffffffffffffffffffffffff161415611463576040517f08c379a000000000000000000000000000000000000000000000000000000000815260040161145a90613801565b60405180910390fd5b600360008373ffffffffffffffffffffffffffffffffffffffff1673ffffffffffffffffffffffffffffffffffffffff168152602001908152602001600020549050919050565b6114b2611ac8565b73ffffffffffffffffffffffffffffffffffffffff166114d0611532565b73ffffffffffffffffffffffffffffffffffffffff1614611526576040517f08c379a000000000000000000000000000000000000000000000000000000000815260040161151d906138a1565b60405180910390fd5b6115306000611f58565b565b6000600a60009054906101000a900473ffffffffffffffffffffffffffffffffffffffff16905090565b60606001805461156b90613be5565b80601f016020809104026020016040519081016040528092919081815260200182805461159790613be5565b80156115e45780601f106115b9576101008083540402835291602001916115e4565b820191906000526020600020905b8154815290600101906020018083116115c757829003601f168201915b5050505050905090565b6116006115f9611ac8565b838361201e565b5050565b61161561160f611ac8565b83611c13565b611654576040517f08c379a000000000000000000000000000000000000000000000000000000000815260040161164b90613901565b60405180910390fd5b6116608484848461218b565b50505050565b600c805461167390613be5565b80601f016020809104026020016040519081016040528092919081815260200182805461169f90613be5565b80156116ec5780601f106116c1576101008083540402835291602001916116ec565b820191906000526020600020905b8154815290600101906020018083116116cf57829003601f168201915b505050505081565b60606116ff82611ad0565b61173e576040517f08c379a0000000000000000000000000000000000000000000000000000000008152600401611735906138c1565b60405180910390fd5b60006117486121e7565b905060008151116117685760405180602001604052806000815250611796565b8061177284612279565b600c604051602001611786939291906135ea565b6040516020818303038152906040525b915050919050565b600e5481565b60116020528060005260406000206000915054906101000a900460ff1681565b6117cc611ac8565b73ffffffffffffffffffffffffffffffffffffffff166117ea611532565b73ffffffffffffffffffffffffffffffffffffffff1614611840576040517f08c379a0000000000000000000000000000000000000000000000000000000008152600401611837906138a1565b60405180910390fd5b80600c9080519060200190611856929190612d15565b5050565b6000600560008473ffffffffffffffffffffffffffffffffffffffff1673ffffffffffffffffffffffffffffffffffffffff16815260200190815260200160002060008373ffffffffffffffffffffffffffffffffffffffff1673ffffffffffffffffffffffffffffffffffffffff16815260200190815260200160002060009054906101000a900460ff16905092915050565b6118f6611ac8565b73ffffffffffffffffffffffffffffffffffffffff16611914611532565b73ffffffffffffffffffffffffffffffffffffffff161461196a576040517f08c379a0000000000000000000000000000000000000000000000000000000008152600401611961906138a1565b60405180910390fd5b600073ffffffffffffffffffffffffffffffffffffffff168173ffffffffffffffffffffffffffffffffffffffff1614156119da576040517f08c379a00000000000000000000000000000000000000000000000000000000081526004016119d190613721565b60405180910390fd5b6119e381611f58565b50565b60007f80ac58cd000000000000000000000000000000000000000000000000000000007bffffffffffffffffffffffffffffffffffffffffffffffffffffffff1916827bffffffffffffffffffffffffffffffffffffffffffffffffffffffff19161480611ab157507f5b5e139f000000000000000000000000000000000000000000000000000000007bffffffffffffffffffffffffffffffffffffffffffffffffffffffff1916827bffffffffffffffffffffffffffffffffffffffffffffffffffffffff1916145b80611ac15750611ac082612426565b5b9050919050565b600033905090565b60008073ffffffffffffffffffffffffffffffffffffffff166002600084815260200190815260200160002060009054906101000a900473ffffffffffffffffffffffffffffffffffffffff1673ffffffffffffffffffffffffffffffffffffffff1614159050919050565b816004600083815260200190815260200160002060006101000a81548173ffffffffffffffffffffffffffffffffffffffff021916908373ffffffffffffffffffffffffffffffffffffffff160217905550808273ffffffffffffffffffffffffffffffffffffffff16611baf836112b2565b73ffffffffffffffffffffffffffffffffffffffff167f8c5be1e5ebec7d5bd14f71427d1e84f3dd0314c0f7b2291e5b200ac8c7c3b92560405160405180910390a45050565b611c0f828260405180602001604052806000815250612490565b5050565b6000611c1e82611ad0565b611c5d576040517f08c379a0000000000000000000000000000000000000000000000000000000008152600401611c54906137c1565b60405180910390fd5b6000611c68836112b2565b90508073ffffffffffffffffffffffffffffffffffffffff168473ffffffffffffffffffffffffffffffffffffffff161480611cd757508373ffffffffffffffffffffffffffffffffffffffff16611cbf8461099f565b73ffffffffffffffffffffffffffffffffffffffff16145b80611ce85750611ce7818561185a565b5b91505092915050565b8273ffffffffffffffffffffffffffffffffffffffff16611d11826112b2565b73ffffffffffffffffffffffffffffffffffffffff1614611d67576040517f08c379a0000000000000000000000000000000000000000000000000000000008152600401611d5e90613741565b60405180910390fd5b600073ffffffffffffffffffffffffffffffffffffffff168273ffffffffffffffffffffffffffffffffffffffff161415611dd7576040517f08c379a0000000000000000000000000000000000000000000000000000000008152600401611dce90613781565b60405180910390fd5b611de28383836124eb565b611ded600082611b3c565b6001600360008573ffffffffffffffffffffffffffffffffffffffff1673ffffffffffffffffffffffffffffffffffffffff1681526020019081526020016000206000828254611e3d9190613afb565b925050819055506001600360008473ffffffffffffffffffffffffffffffffffffffff1673ffffffffffffffffffffffffffffffffffffffff1681526020019081526020016000206000828254611e949190613a74565b92505081905550816002600083815260200190815260200160002060006101000a81548173ffffffffffffffffffffffffffffffffffffffff021916908373ffffffffffffffffffffffffffffffffffffffff160217905550808273ffffffffffffffffffffffffffffffffffffffff168473ffffffffffffffffffffffffffffffffffffffff167fddf252ad1be2c89b69c2b068fc378daa952ba7f163c4a11628f55a4df523b3ef60405160405180910390a4611f538383836125ff565b505050565b6000600a60009054906101000a900473ffffffffffffffffffffffffffffffffffffffff16905081600a60006101000a81548173ffffffffffffffffffffffffffffffffffffffff021916908373ffffffffffffffffffffffffffffffffffffffff1602179055508173ffffffffffffffffffffffffffffffffffffffff168173ffffffffffffffffffffffffffffffffffffffff167f8be0079c531659141344cd1fd0a4f28419497f9722a3daafe3b4186f6b6457e060405160405180910390a35050565b8173ffffffffffffffffffffffffffffffffffffffff168373ffffffffffffffffffffffffffffffffffffffff16141561208d576040517f08c379a0000000000000000000000000000000000000000000000000000000008152600401612084906137a1565b60405180910390fd5b80600560008573ffffffffffffffffffffffffffffffffffffffff1673ffffffffffffffffffffffffffffffffffffffff16815260200190815260200160002060008473ffffffffffffffffffffffffffffffffffffffff1673ffffffffffffffffffffffffffffffffffffffff16815260200190815260200160002060006101000a81548160ff0219169083151502179055508173ffffffffffffffffffffffffffffffffffffffff168373ffffffffffffffffffffffffffffffffffffffff167f17307eab39ab6107e8899845ad3d59bd9653f200f220920489ca2b5937696c318360405161217e91906136a4565b60405180910390a3505050565b612196848484611cf1565b6121a284848484612604565b6121e1576040517f08c379a00000000000000000000000000000000000000000000000000000000081526004016121d890613701565b60405180910390fd5b50505050565b6060600b80546121f690613be5565b80601f016020809104026020016040519081016040528092919081815260200182805461222290613be5565b801561226f5780601f106122445761010080835404028352916020019161226f565b820191906000526020600020905b81548152906001019060200180831161225257829003601f168201915b5050505050905090565b606060008214156122c1576040518060400160405280600181526020017f30000000000000000000000000000000000000000000000000000000000000008152509050612421565b600082905060005b600082146122f35780806122dc90613c48565b915050600a826122ec9190613aca565b91506122c9565b60008167ffffffffffffffff811115612335577f4e487b7100000000000000000000000000000000000000000000000000000000600052604160045260246000fd5b6040519080825280601f01601f1916602001820160405280156123675781602001600182028036833780820191505090505b5090505b6000851461241a576001826123809190613afb565b9150600a8561238f9190613c91565b603061239b9190613a74565b60f81b8183815181106123d7577f4e487b7100000000000000000000000000000000000000000000000000000000600052603260045260246000fd5b60200101907effffffffffffffffffffffffffffffffffffffffffffffffffffffffffffff1916908160001a905350600a856124139190613aca565b945061236b565b8093505050505b919050565b60007f01ffc9a7000000000000000000000000000000000000000000000000000000007bffffffffffffffffffffffffffffffffffffffffffffffffffffffff1916827bffffffffffffffffffffffffffffffffffffffffffffffffffffffff1916149050919050565b61249a838361279b565b6124a76000848484612604565b6124e6576040517f08c379a00000000000000000000000000000000000000000000000000000000081526004016124dd90613701565b60405180910390fd5b505050565b6124f6838383612975565b600073ffffffffffffffffffffffffffffffffffffffff168373ffffffffffffffffffffffffffffffffffffffff161415612539576125348161297a565b612578565b8173ffffffffffffffffffffffffffffffffffffffff168373ffffffffffffffffffffffffffffffffffffffff16146125775761257683826129c3565b5b5b600073ffffffffffffffffffffffffffffffffffffffff168273ffffffffffffffffffffffffffffffffffffffff1614156125bb576125b681612b30565b6125fa565b8273ffffffffffffffffffffffffffffffffffffffff168273ffffffffffffffffffffffffffffffffffffffff16146125f9576125f88282612c73565b5b5b505050565b505050565b60006126258473ffffffffffffffffffffffffffffffffffffffff16612cf2565b1561278e578373ffffffffffffffffffffffffffffffffffffffff1663150b7a0261264e611ac8565b8786866040518563ffffffff1660e01b81526004016126709493929190613636565b602060405180830381600087803b15801561268a57600080fd5b505af19250505080156126bb57506040513d601f19601f820116820180604052508101906126b891906130ea565b60015b61273e573d80600081146126eb576040519150601f19603f3d011682016040523d82523d6000602084013e6126f0565b606091505b50600081511415612736576040517f08c379a000000000000000000000000000000000000000000000000000000000815260040161272d90613701565b60405180910390fd5b805181602001fd5b63150b7a0260e01b7bffffffffffffffffffffffffffffffffffffffffffffffffffffffff1916817bffffffffffffffffffffffffffffffffffffffffffffffffffffffff191614915050612793565b600190505b949350505050565b600073ffffffffffffffffffffffffffffffffffffffff168273ffffffffffffffffffffffffffffffffffffffff16141561280b576040517f08c379a000000000000000000000000000000000000000000000000000000000815260040161280290613841565b60405180910390fd5b61281481611ad0565b15612854576040517f08c379a000000000000000000000000000000000000000000000000000000000815260040161284b90613761565b60405180910390fd5b612860600083836124eb565b6001600360008473ffffffffffffffffffffffffffffffffffffffff1673ffffffffffffffffffffffffffffffffffffffff16815260200190815260200160002060008282546128b09190613a74565b92505081905550816002600083815260200190815260200160002060006101000a81548173ffffffffffffffffffffffffffffffffffffffff021916908373ffffffffffffffffffffffffffffffffffffffff160217905550808273ffffffffffffffffffffffffffffffffffffffff16600073ffffffffffffffffffffffffffffffffffffffff167fddf252ad1be2c89b69c2b068fc378daa952ba7f163c4a11628f55a4df523b3ef60405160405180910390a4612971600083836125ff565b5050565b505050565b6008805490506009600083815260200190815260200160002081905550600881908060018154018082558091505060019003906000526020600020016000909190919091505550565b600060016129d0846113f2565b6129da9190613afb565b9050600060076000848152602001908152602001600020549050818114612abf576000600660008673ffffffffffffffffffffffffffffffffffffffff1673ffffffffffffffffffffffffffffffffffffffff168152602001908152602001600020600084815260200190815260200160002054905080600660008773ffffffffffffffffffffffffffffffffffffffff1673ffffffffffffffffffffffffffffffffffffffff168152602001908152602001600020600084815260200190815260200160002081905550816007600083815260200190815260200160002081905550505b6007600084815260200190815260200160002060009055600660008573ffffffffffffffffffffffffffffffffffffffff1673ffffffffffffffffffffffffffffffffffffffff16815260200190815260200160002060008381526020019081526020016000206000905550505050565b60006001600880549050612b449190613afb565b9050600060096000848152602001908152602001600020549050600060088381548110612b9a577f4e487b7100000000000000000000000000000000000000000000000000000000600052603260045260246000fd5b906000526020600020015490508060088381548110612be2577f4e487b7100000000000000000000000000000000000000000000000000000000600052603260045260246000fd5b906000526020600020018190555081600960008381526020019081526020016000208190555060096000858152602001908152602001600020600090556008805480612c57577f4e487b7100000000000000000000000000000000000000000000000000000000600052603160045260246000fd5b6001900381819060005260206000200160009055905550505050565b6000612c7e836113f2565b905081600660008573ffffffffffffffffffffffffffffffffffffffff1673ffffffffffffffffffffffffffffffffffffffff168152602001908152602001600020600083815260200190815260200160002081905550806007600084815260200190815260200160002081905550505050565b6000808273ffffffffffffffffffffffffffffffffffffffff163b119050919050565b828054612d2190613be5565b90600052602060002090601f016020900481019282612d435760008555612d8a565b82601f10612d5c57805160ff1916838001178555612d8a565b82800160010185558215612d8a579182015b82811115612d89578251825591602001919060010190612d6e565b5b509050612d979190612d9b565b5090565b5b80821115612db4576000816000905550600101612d9c565b5090565b6000612dcb612dc684613981565b61395c565b905082815260208101848484011115612de357600080fd5b612dee848285613ba3565b509392505050565b6000612e09612e04846139b2565b61395c565b905082815260208101848484011115612e2157600080fd5b612e2c848285613ba3565b509392505050565b600081359050612e43816142d4565b92915050565b600081359050612e58816142eb565b92915050565b600081359050612e6d81614302565b92915050565b600081519050612e8281614302565b92915050565b600082601f830112612e9957600080fd5b8135612ea9848260208601612db8565b91505092915050565b600082601f830112612ec357600080fd5b8135612ed3848260208601612df6565b91505092915050565b600081359050612eeb81614319565b92915050565b600060208284031215612f0357600080fd5b6000612f1184828501612e34565b91505092915050565b60008060408385031215612f2d57600080fd5b6000612f3b85828601612e34565b9250506020612f4c85828601612e34565b9150509250929050565b600080600060608486031215612f6b57600080fd5b6000612f7986828701612e34565b9350506020612f8a86828701612e34565b9250506040612f9b86828701612edc565b9150509250925092565b60008060008060808587031215612fbb57600080fd5b6000612fc987828801612e34565b9450506020612fda87828801612e34565b9350506040612feb87828801612edc565b925050606085013567ffffffffffffffff81111561300857600080fd5b61301487828801612e88565b91505092959194509250565b6000806040838503121561303357600080fd5b600061304185828601612e34565b925050602061305285828601612e49565b9150509250929050565b6000806040838503121561306f57600080fd5b600061307d85828601612e34565b925050602061308e85828601612edc565b9150509250929050565b6000602082840312156130aa57600080fd5b60006130b884828501612e49565b91505092915050565b6000602082840312156130d357600080fd5b60006130e184828501612e5e565b91505092915050565b6000602082840312156130fc57600080fd5b600061310a84828501612e73565b91505092915050565b60006020828403121561312557600080fd5b600082013567ffffffffffffffff81111561313f57600080fd5b61314b84828501612eb2565b91505092915050565b60006020828403121561316657600080fd5b600061317484828501612edc565b91505092915050565b600061318983836135cc565b60208301905092915050565b61319e81613b2f565b82525050565b60006131af82613a08565b6131b98185613a36565b93506131c4836139e3565b8060005b838110156131f55781516131dc888261317d565b97506131e783613a29565b9250506001810190506131c8565b5085935050505092915050565b61320b81613b41565b82525050565b600061321c82613a13565b6132268185613a47565b9350613236818560208601613bb2565b61323f81613d7e565b840191505092915050565b600061325582613a1e565b61325f8185613a58565b935061326f818560208601613bb2565b61327881613d7e565b840191505092915050565b600061328e82613a1e565b6132988185613a69565b93506132a8818560208601613bb2565b80840191505092915050565b600081546132c181613be5565b6132cb8186613a69565b945060018216600081146132e657600181146132f75761332a565b60ff1983168652818601935061332a565b613300856139f3565b60005b8381101561332257815481890152600182019150602081019050613303565b838801955050505b50505092915050565b6000613340602b83613a58565b915061334b82613d8f565b604082019050919050565b6000613363603283613a58565b915061336e82613dde565b604082019050919050565b6000613386602683613a58565b915061339182613e2d565b604082019050919050565b60006133a9602583613a58565b91506133b482613e7c565b604082019050919050565b60006133cc601c83613a58565b91506133d782613ecb565b602082019050919050565b60006133ef602483613a58565b91506133fa82613ef4565b604082019050919050565b6000613412601983613a58565b915061341d82613f43565b602082019050919050565b6000613435602c83613a58565b915061344082613f6c565b604082019050919050565b6000613458603883613a58565b915061346382613fbb565b604082019050919050565b600061347b602a83613a58565b91506134868261400a565b604082019050919050565b600061349e602983613a58565b91506134a982614059565b604082019050919050565b60006134c1602083613a58565b91506134cc826140a8565b602082019050919050565b60006134e4602c83613a58565b91506134ef826140d1565b604082019050919050565b6000613507602283613a58565b915061351282614120565b604082019050919050565b600061352a602083613a58565b91506135358261416f565b602082019050919050565b600061354d602f83613a58565b915061355882614198565b604082019050919050565b6000613570602183613a58565b915061357b826141e7565b604082019050919050565b6000613593603183613a58565b915061359e82614236565b604082019050919050565b60006135b6602c83613a58565b91506135c182614285565b604082019050919050565b6135d581613b99565b82525050565b6135e481613b99565b82525050565b60006135f68286613283565b91506136028285613283565b915061360e82846132b4565b9150819050949350505050565b60006020820190506136306000830184613195565b92915050565b600060808201905061364b6000830187613195565b6136586020830186613195565b61366560408301856135db565b81810360608301526136778184613211565b905095945050505050565b6000602082019050818103600083015261369c81846131a4565b905092915050565b60006020820190506136b96000830184613202565b92915050565b600060208201905081810360008301526136d9818461324a565b905092915050565b600060208201905081810360008301526136fa81613333565b9050919050565b6000602082019050818103600083015261371a81613356565b9050919050565b6000602082019050818103600083015261373a81613379565b9050919050565b6000602082019050818103600083015261375a8161339c565b9050919050565b6000602082019050818103600083015261377a816133bf565b9050919050565b6000602082019050818103600083015261379a816133e2565b9050919050565b600060208201905081810360008301526137ba81613405565b9050919050565b600060208201905081810360008301526137da81613428565b9050919050565b600060208201905081810360008301526137fa8161344b565b9050919050565b6000602082019050818103600083015261381a8161346e565b9050919050565b6000602082019050818103600083015261383a81613491565b9050919050565b6000602082019050818103600083015261385a816134b4565b9050919050565b6000602082019050818103600083015261387a816134d7565b9050919050565b6000602082019050818103600083015261389a816134fa565b9050919050565b600060208201905081810360008301526138ba8161351d565b9050919050565b600060208201905081810360008301526138da81613540565b9050919050565b600060208201905081810360008301526138fa81613563565b9050919050565b6000602082019050818103600083015261391a81613586565b9050919050565b6000602082019050818103600083015261393a816135a9565b9050919050565b600060208201905061395660008301846135db565b92915050565b6000613966613977565b90506139728282613c17565b919050565b6000604051905090565b600067ffffffffffffffff82111561399c5761399b613d4f565b5b6139a582613d7e565b9050602081019050919050565b600067ffffffffffffffff8211156139cd576139cc613d4f565b5b6139d682613d7e565b9050602081019050919050565b6000819050602082019050919050565b60008190508160005260206000209050919050565b600081519050919050565b600081519050919050565b600081519050919050565b6000602082019050919050565b600082825260208201905092915050565b600082825260208201905092915050565b600082825260208201905092915050565b600081905092915050565b6000613a7f82613b99565b9150613a8a83613b99565b9250827fffffffffffffffffffffffffffffffffffffffffffffffffffffffffffffffff03821115613abf57613abe613cc2565b5b828201905092915050565b6000613ad582613b99565b9150613ae083613b99565b925082613af057613aef613cf1565b5b828204905092915050565b6000613b0682613b99565b9150613b1183613b99565b925082821015613b2457613b23613cc2565b5b828203905092915050565b6000613b3a82613b79565b9050919050565b60008115159050919050565b60007fffffffff0000000000000000000000000000000000000000000000000000000082169050919050565b600073ffffffffffffffffffffffffffffffffffffffff82169050919050565b6000819050919050565b82818337600083830152505050565b60005b83811015613bd0578082015181840152602081019050613bb5565b83811115613bdf576000848401525b50505050565b60006002820490506001821680613bfd57607f821691505b60208210811415613c1157613c10613d20565b5b50919050565b613c2082613d7e565b810181811067ffffffffffffffff82111715613c3f57613c3e613d4f565b5b80604052505050565b6000613c5382613b99565b91507fffffffffffffffffffffffffffffffffffffffffffffffffffffffffffffffff821415613c8657613c85613cc2565b5b600182019050919050565b6000613c9c82613b99565b9150613ca783613b99565b925082613cb757613cb6613cf1565b5b828206905092915050565b7f4e487b7100000000000000000000000000000000000000000000000000000000600052601160045260246000fd5b7f4e487b7100000000000000000000000000000000000000000000000000000000600052601260045260246000fd5b7f4e487b7100000000000000000000000000000000000000000000000000000000600052602260045260246000fd5b7f4e487b7100000000000000000000000000000000000000000000000000000000600052604160045260246000fd5b6000601f19601f8301169050919050565b7f455243373231456e756d657261626c653a206f776e657220696e646578206f7560008201527f74206f6620626f756e6473000000000000000000000000000000000000000000602082015250565b7f4552433732313a207472616e7366657220746f206e6f6e20455243373231526560008201527f63656976657220696d706c656d656e7465720000000000000000000000000000602082015250565b7f4f776e61626c653a206e6577206f776e657220697320746865207a65726f206160008201527f6464726573730000000000000000000000000000000000000000000000000000602082015250565b7f4552433732313a207472616e736665722066726f6d20696e636f72726563742060008201527f6f776e6572000000000000000000000000000000000000000000000000000000602082015250565b7f4552433732313a20746f6b656e20616c7265616479206d696e74656400000000600082015250565b7f4552433732313a207472616e7366657220746f20746865207a65726f2061646460008201527f7265737300000000000000000000000000000000000000000000000000000000602082015250565b7f4552433732313a20617070726f766520746f2063616c6c657200000000000000600082015250565b7f4552433732313a206f70657261746f7220717565727920666f72206e6f6e657860008201527f697374656e7420746f6b656e0000000000000000000000000000000000000000602082015250565b7f4552433732313a20617070726f76652063616c6c6572206973206e6f74206f7760008201527f6e6572206e6f7220617070726f76656420666f7220616c6c0000000000000000602082015250565b7f4552433732313a2062616c616e636520717565727920666f7220746865207a6560008201527f726f206164647265737300000000000000000000000000000000000000000000602082015250565b7f4552433732313a206f776e657220717565727920666f72206e6f6e657869737460008201527f656e7420746f6b656e0000000000000000000000000000000000000000000000602082015250565b7f4552433732313a206d696e7420746f20746865207a65726f2061646472657373600082015250565b7f4552433732313a20617070726f76656420717565727920666f72206e6f6e657860008201527f697374656e7420746f6b656e0000000000000000000000000000000000000000602082015250565b7f596f75206d7573742070726f766964652074686520636f72726563742070726960008201527f6365000000000000000000000000000000000000000000000000000000000000602082015250565b7f4f776e61626c653a2063616c6c6572206973206e6f7420746865206f776e6572600082015250565b7f4552433732314d657461646174613a2055524920717565727920666f72206e6f60008201527f6e6578697374656e7420746f6b656e0000000000000000000000000000000000602082015250565b7f4552433732313a20617070726f76616c20746f2063757272656e74206f776e6560008201527f7200000000000000000000000000000000000000000000000000000000000000602082015250565b7f4552433732313a207472616e736665722063616c6c6572206973206e6f74206f60008201527f776e6572206e6f7220617070726f766564000000000000000000000000000000602082015250565b7f455243373231456e756d657261626c653a20676c6f62616c20696e646578206f60008201527f7574206f6620626f756e64730000000000000000000000000000000000000000602082015250565b6142dd81613b2f565b81146142e857600080fd5b50565b6142f481613b41565b81146142ff57600080fd5b50565b61430b81613b4d565b811461431657600080fd5b50565b61432281613b99565b811461432d57600080fd5b5056fea264697066735822122007d6224ff4d2df6b54597605371f8b68b8ba9e0cdc7998e588d0d667a208417f64736f6c63430008040033",
  "linkReferences": {},
  "deployedLinkReferences": {}
}